:020000040800F2
:1000000058170020D5000008C52D0008C92B00088E
:1000100000000000000000000000000000000000E0
:10002000000000000000000000000000F5310008A2
:1000300000000000000000000D2E00083F3C0008FA
:10004000E7000008E70000089B2F0008E700000811
:10005000E700000873040008830400089304000804
:10006000E7000008E7000008410400084D0400080C
:10007000E7000008E7000008E7000008E7000008C4
:10008000E7000008E7000008E700000800000000A3
:10009000E7000008E7000008E7000008E7000008A4
:1000A000E7000008E7000008E7000008E700000894
:1000B000E7000008352F000800000000E7000008F6
:1000C0000348854600F0A6F8004800479947000815
:1000D000581700200448804704480047FEE7FEE721
:1000E000FEE7FEE7FEE7FEE7D53C0008C10000089A
:1000F00030B50B46014600202022012409E00D46C0
:10010000D5409D4205D31D469540491B2546954047
:1001100040191546521E002DF1DC30BDF0B51FB45C
:100120000646002082B005464024019100901BE065
:10013000019922460F46304600F05BF8049A059B71
:10014000801A994110D310461946224600F041F812
:10015000361A8F410197224601200021009F00F0AE
:1001600038F838184D4100902046641E0028DFDC26
:10017000019B00982946324607B0F0BD03460B4369
:100180009B0703D009E008C9121F08C0042AFAD24D
:1001900003E00B780370401C491C521EF9D27047D3
:1001A000D2B201E00270401C491EFBD2704700220F
:1001B000F6E710B513460A4604461946FFF7F0FF66
:1001C000204610BD421C0178401C0029FBD1801A3A
:1001D000704710B5202A04DB0146203A91400020E8
:1001E00010BD914020239C1A0346E34019439040E0
:1001F00010BD10B5202A04DB0846203AD04000216B
:1002000010BD0B46D340D0402024A21A9140084391
:10021000194610BD064C0125064E05E0E36807CCE3
:100220002B430C3C98471034B442F7D3FFF74CFFF4
:10023000284F0008584F000870B521488AB0416B1C
:1002400001229203114341630015009002200190A6
:1002500004200526032500243607049069460395EB
:100260000294304600F04AFB012040020090122028
:1002700001906946304600F041FB1349114808607F
:100280008C60CC604B200C61C0018C6148600C20FC
:100290004861084601F0B9FE0120400305900120A5
:1002A00006AA31C205A9094800F028FBFF20013049
:1002B000059005A9304600F021FB0AB070BD000092
:1002C0000010024000380140640600200004005085
:1002D00070B590B00A2000F0D8FA01221B4E5403EA
:1002E0002146304600F0CCFBFF25F535284600F0CE
:1002F000CCFA00222146304600F0C2FB0A2000F072
:10030000C4FA01220526140236072146304600F0C1
:10031000B7FB284600F0B9FA00222146304600F02B
:10032000AFFB0BA103C90D900E910DA800F018F8BA
:100330000023DB4332226946074801F09DFE6946EF
:1003400006A004F00FFC10B070BD000000040050C7
:10035000415445310D000000640600202573000063
:1003600010B500230146DB430422024801F004FFDC
:1003700010BD00006406002010B5022214490123BC
:1003800086B000281ED0012804D002281AD00328E5
:1003900007D117E0CA6A1A43CA62C96AC907C90FF6
:1003A000059141000B4A8000515A009100210291B1
:1003B00003210391084901930858694600F09EFA09
:1003C00006B010BDCC6A1443CC62C96A1140E7E79D
:1003D00000100240EC4D000824000020704700008F
:1003E00030B587B014216846FFF7E1FE0320019085
:1003F0000020029003204003104C0090E06A01218D
:100400000843E062E06A084005900520694600075D
:1004100000F074FAE06A40084000E062606B012579
:10042000AD052843606300F047F900F055F900F08E
:100430004BF9606BA843606307B030BD0010024009
:1004400010B502F033FA02F089FE10BD10B504F0C9
:1004500071FA10BD10B5046863608368102B0368DF
:1004600003D099600068C26010BD9A600068C160E6
:1004700010BD10B5012000F035FA022000F032FA6C
:1004800010BD10B5042000F02DFA082000F02AFA63
:1004900010BD10B5102000F025FA202000F022FA3F
:1004A000402000F01FFA802000F01CFAFF200130ED
:1004B00000F018FA0120400200F014FA0120800236
:1004C00000F010FA0120C00200F00CFA0120000335
:1004D00000F008FA0120400300F004FA0120800334
:1004E00000F000FA0120C00300F0FCF910BDFEE7A7
:1004F00070B5040006D0A06D2646002540360028C1
:1005000002D006E0012070BDE5653575204600F09B
:10051000D1F8A06DC00603D421688868400705D5CE
:10052000A06D10210843A0653575EBE7A06DFF2293
:100530000132904302221043A06588688207920F1F
:100540005A48012A02D10A68D2072BD103236268D4
:100550009B079A4205D05B429A4202D05B009A42C6
:1005600009D10A69920092080A6121680A696368E0
:100570001A430A610CE00A69920092080A618168D4
:100580000F22920491438160816862681143816007
:100590002168CA6818239A43CA602168CA68A36898
:1005A0001A43CA60816801225206914381608168C2
:1005B000228F52061143816020688168C90004D4EB
:1005C000816801221207114381602068C168384A9E
:1005D0001140C1602169E068022923D0002108434D
:1005E000216A226B4903520011430843616B08439F
:1005F000A16989030843E169C90308432168CA68FE
:100600001043C860A06A0146FF39C23905D0E16ACB
:1006100008432168CA681043C860606A0121012844
:1006200002D00BE00421DAE7206A002823D0A06D75
:1006300020221043A065E06D0843E065206C01288E
:1006400020681FD00169C90703D001694908490022
:10065000016120684169C908C90041612068416998
:10066000E26B11434161E565A06D80088000401C8C
:10067000A065002070BD2068C26801231B041A43D6
:10068000C260DBE70269FF239B009A430261206896
:100690000269636CE66C1A43A36C33431A4302612C
:1006A000206802690A430261D3E700000027014085
:1006B0001902FEFF704700000248416849084900DE
:1006C000416070470058014002484168042291434C
:1006D000416070470058014002484168022291433E
:1006E0004160704700580140F8B504460068016851
:1006F00049084900016000F0C9F90027254606466F
:1007000020350EE000F0C2F9811B7D20C00081423F
:1007100007D9E06B20210843E0632F710320687143
:10072000F8BD20680068C007ECD12F710120687106
:100730000020F8BD70B5002805D003462033597954
:10074000002902D003E0012070BD002119710221AF
:100750005971046822683749C5680A40816846694A
:10076000294305693543294385692943C5692943D7
:10077000056A2943114321602F492F4C02687831C3
:10078000A24206D18A6A120912018A628A6A406804
:1007900049E0294C1434A24207D18A6AF024A243CA
:1007A0008A628A6A406800013DE0234C2834A242F4
:1007B00008D18A6A0F242402A2438A628A6A4068A6
:1007C000000230E01C4C3C34A24208D18A6A0F245B
:1007D0002403A2438A628A6A4068000323E0164C1D
:1007E0005034A24208D18A6A0F242404A2438A62A8
:1007F0008A6A8088000416E00F4C6434A24208D153
:100800008A6A0F242405A2438A628A6A80880005C6
:1008100009E08A4209D18A6A0F242406A2438A6227
:100820008A6A0079000602438A620120587100201A
:1008300070BD00000FC0FFFF08000240F8B504467D
:1008400020300579012D1ED0012505710226467143
:1008500020680768AF4307602046FFF7FBFD20686C
:10086000016831430160206801680422114301607E
:10087000206801680822114301602068016829434B
:1008800001600020F8BD0220F8BD01B5009801F01C
:1008900063FE08BD024841688215114341607047FC
:1008A00000200240034841680122114341600020BA
:1008B000704700000020024005484168C90705D084
:1008C0000449C1600449C16000207047012070479D
:1008D00000200240EFCDAB890504030210B501F002
:1008E00089FD10BD10B504494A69024202D0486131
:1008F000FFF7F4FF10BD000000040140F8B500232D
:100900000124A7E027469F403A4070D04D68022D51
:1009100001D0122D14D1DD08AD002D1800952D6ADF
:100920005E07AC46F50E0F26AE46AE406546B543B3
:10093000AC460E697546AE4065462E43009D2E625C
:100940004D68012D05D0022D03D0112D01D0122D9F
:1009500016D185680326AC465D00AE46AE406546BE
:10096000B543AC46CE687546AE4065462E438660BC
:1009700046680D79BE43ED06ED0F9D403543456059
:1009800006685F000325BD40AE46AE430D79B44610
:10099000AE07B60FBE4065462E430660C668754674
:1009A000AE438D68BD403543C5604D68ED0050D500
:1009B0002B4D6E6B26436E639E082A4DB60075194B
:1009C000AC46AD689E07360F0F27B740BD430527DD
:1009D0003F07B84201D100271AE0234FB84201D1A6
:1009E000012715E0214FB84202D1022710E030E084
:1009F0001F4FB84201D103270AE01E4FB84201D170
:100A0000042705E01C4FB84201D1052700E0062766
:100A1000B7402F436546AF60184D2E684F68964328
:100A2000FF0300D516432E606E684F689643BF03E0
:100A300000D516436E60AE684F689643FF0200D53E
:100A40001643AE60EE684F689643BF0200D516436A
:100A5000EE605B1C0A681546DD4000D052E7F8BD29
:100A60000010024000000140000400500008005047
:100A7000000C005000100050001C00500004014009
:100A8000002A01D081617047816270470148006887
:100A9000704700005000002002480168491C0160B6
:100AA000704700005000002010B50648016802227F
:100AB00011430160032000F007F800F007F8002060
:100AC00010BD0000002002400020704710B509480A
:100AD000816B02041143816300F03CF800F032F8AE
:100AE0000548016808221143016000F023F801F075
:100AF000B3FC10BD0010024000200240C106C90E28
:100B000001208840014908607047000000E100E0D2
:100B100005490968C206D20E01209040014201D069
:100B2000012070470020704700E200E010B502F09D
:100B30004BF910BD0248016802151143016070476E
:100B4000007000400248016842151143016070477F
:100B50000070004002480168102291430160704714
:100B600000700040F8B56649074601250020ED03F6
:100B7000624B634A4031102F6FD011DC012F77D0C8
:100B8000022F6CD0042F6BD0082F24D1C968032406
:100B9000240321407BD0BD026C10A9427CD0A0E090
:100BA0000326584C3604202F0BD0402F35D0FF3F62
:100BB000012F10D1C968314069D07C04A1426BD0AB
:100BC00096E00B690969012731403F04B94203D11E
:100BD000990559E02846F8BD01256D04A94203D1C5
:100BE0009907F8D54848F8BDB142FCD1116889038E
:100BF000F9D5116803200005014001200005091AFC
:100C000009D0091A05D0814201D14048F8BD2046DB
:100C1000F8BD3F48F8BD3F48F8BDC9680125AD069D
:100C2000294006D0A942F7D191688907F4D53A48FE
:100C3000F8BD11688901FBD5D068D1688002374DB5
:100C4000000F2D5C0802810FD068491CC0030AD434
:100C50001068C00605D5204606E045E008E023E020
:100C600030E0184600E02E486843FFF741FAF8BD2F
:100C7000CC68A407A40F0CD0022C0DD0012C10D0EE
:100C8000032CF4D1096989050029A3DBF8BD16E01E
:100C900002E000F0D1F9F9E711684907F6D51846E6
:100CA000F4E700F0D9F9F1E7CC680C26344006D01F
:100CB000082CF1D0042CF4D00C2CE3D0E6E700F0A3
:100CC000ABF9E3E7CC680326B6023440F7D001273E
:100CD000FF02BC42E0D07A109442E2D0B442D1D0BC
:100CE000D4E7A142DDD0D1E7916B4902E7D4CDE74B
:100CF000012212049142D4D0C8E700000024F4007D
:100D00000010024000093D008890000020A107006B
:100D100040420F0080841E00006CDC02044E00087C
:100D200000127A00F8B5044600785E4D800672D550
:100D30005C4E0027403EB06BC00004D4B06BA905E8
:100D40000843B063012758480168C90511D40168F8
:100D5000821511430160FFF799FE009005E0FFF74F
:100D600095FE0099401A642837D84F480068C0059E
:100D7000F5D532680321090560680A4001409142B7
:100D800008D08103890F032904D13168890301D573
:100D90000120F8BD2A69032109040A4022D0084035
:100DA00090421FD0207880061CD528692A69884384
:100DB0000121C9040A432A612A698A432A612861F8
:100DC000C0050FD5FFF762FE009008E0FFF75EFE5A
:100DD0000099411A3548814201D90320F8BD28699C
:100DE0008005F3D561688803800F032805D1326838
:100DF0000005824301400A4332602869032261688A
:100E00001204114008432861002F04D0B06B012167
:100E100009078843B0632078C00705D0E868A16857
:100E2000800880000843E8602078800705D5E868DE
:100E30000C218843E1680843E8602078400706D524
:100E4000E86803218902884321690843E860207823
:100E5000000706D5E8680321090388436169084350
:100E6000E8602088C00506D5E868032109048843A6
:100E7000A1690843E8602078400606D5E8680121AA
:100E800089068843216A0843E8602078000606D571
:100E9000E868032189048843E1690843E860002089
:100EA000F8BD0000401002400070004088130000B0
:100EB000F8B5054653480E460068C007C00FB0425B
:100EC0000AD250480168490849003143016000686E
:100ED000C007C00FB0426FD128784B4C800705D5B2
:100EE000E068F0218843A9680843E0602878C007DB
:100EF00052D06868022817D0032818D0216801282A
:100F000018D08905002957DAE1688908890001436A
:100F1000E160FFF7BBFD69680746022912D003298B
:100F20001CD0012926D033E021688903EAE7216833
:100F30008901E7E74907E5E7FFF7A8FDC11B33484B
:100F4000814223D8E0680007800F0228F4D123E013
:100F5000FFF79CFDC11B2D48814217D8E0680007B0
:100F6000800F0328F4D117E0FFF790FDC11B27483D
:100F700081420BD8E0680007800F0128F4D10BE014
:100F8000FFF784FDC11B2148814201D90320F8BD30
:100F9000E0680007800FF3D11A480168C907C90F3C
:100FA000B1420BD90168490849003143016000682A
:100FB000C007C00FB04201D00120F8BD287840071B
:100FC00006D5E068072109028843E9680843E06024
:100FD0002878000707D5E0680721C90288432969F6
:100FE000C9000843E06000F037F8E168084A0906E4
:100FF000090F515CC840074908600320FFF764FDF2
:101000000020F8BD002002400010024088130000BC
:10101000F44D00084C000020044805490068C968E8
:10102000044A4905490F515CC84070474C000020F4
:10103000001002400D4E0008044805490068C968C8
:10104000044A8904490F515CC84070474C00002095
:10105000001002400D4E000810B5184AD1680C204F
:10106000084004280BD0082810D00C2810D0506855
:101070000004410F0120C003491C884010BD1068C6
:10108000C00601D50E4810BD0E4810BD0E4810BD5B
:1010900088020E4B000F185C0902D368890F491CA7
:1010A000DB0301D5084A05E01268D20601D5044ADF
:1010B00000E0044A5043FFF71BF810BD0010024047
:1010C00000093D000024F40000127A00044E0008DC
:1010D000F8B504460078FF4DC0074CD0E86800071B
:1010E000800F022807D0E8680007800F032809D185
:1010F000E868C00306D5286880033CD560680028EE
:1011000075D038E0012062680004824203D129686A
:101110000143296011E0052301211B0489049A423F
:101120002A6802D10A432A60F1E782432A602A68CA
:1011300002400092286888432860606800280DD02B
:10114000FFF7A4FC0646E44F04E0FFF79FFC801B7A
:10115000B8427DD828688003F7D50CE0FFF796FCED
:101160000646DD4F04E0FFF791FC801BB842F0D843
:1011700028688003F7D42078800741D5E8681F27C6
:101180000007800F3F02012807D0E8680007800FA2
:10119000032809D1E868C00306D42868400717D59A
:1011A000E068012823D113E0E068002817D02968FF
:1011B0000922914301432960FFF768FC064604E0D9
:1011C000FFF764FC801B0228C3D828684007F7D5C6
:1011D00068682169B84309020843686010E028681C
:1011E000400840002860FFF751FC064605E090E00B
:1011F000FFF74CFC801B0228ABD828684007F7D4C7
:101200002078C00676D5E868B44E0007800F0BD072
:10121000E06900285DD02868FF210131084328607B
:10122000FFF734FC074644E02868800502D5E069F2
:1012300000286ED0606A69683140884212D901F096
:1012400041FE0028AED16868616AB043084300E0FF
:10125000E4E068606868218C0002000A090608431F
:1012600068600FE06968B143014369606868218C78
:101270000002000A090608436860606A01F022FE65
:1012800000288FD1606A410B0120C003491C8840AF
:10129000E968934A0906090F515CC8409149086002
:1012A0000320FFF711FC25E0FFF7F0FBC01B02282D
:1012B0008AD828688005F7D56868616AB043084312
:1012C00068606868218C0002000A090608436860AB
:1012D00010E02968FF20013081432960FFF7D6FB29
:1012E000064604E0FFF7D2FB801B022884D828685A
:1012F0008005F7D420787C4E000723D5606900284C
:10130000306910D0012108433061FFF7BFFB074669
:1013100005E009E1FFF7BAFBC01B02287ED830695F
:101320008007F7D50EE0400840003061FFF7AEFBC4
:10133000074604E0FFF7AAFBC01B02286ED83069FD
:101340008007F7D42078400761D5A86B0027C0003C
:1013500005D4A86B012109070843A8630127634846
:101360000168C90511D40168821511430160FFF7B6
:101370008DFB009005E0FFF789FB0099401A642877
:101380004CD85A480068C005F5D5FF20A268013046
:10139000824203D131690143316111E001218902A7
:1013A000002A07D005231B029A4203D132690A435F
:1013B0003261EFE7326982433261306988433061DC
:1013C000A06800280ED0FFF761FB009006E0FFF751
:1013D0005DFB0099411A404881421FD83069800561
:1013E000F5D50DE0FFF752FB009006E0FFF74EFB4E
:1013F0000099411A3848814210D830698005F5D4E7
:10140000002F04D0A96B012000078143A963207835
:10141000800630D53649A0694A1400E07DE00028F6
:1014200016D0AB6801200343AB606B6B03436B6367
:10143000086A10430862FFF729FB064604E0FFF73D
:1014400025FB801B022868D8A8688007F7D512E022
:10145000A86840084000A860086A90430862FFF747
:1014600015FB064604E0FFF711FB801B022854D849
:10147000A8688007F7D4A06A002853D0E968090754
:10148000890F032950D0012636060228286805D086
:10149000B0432860FFF7FAFA044640E0B043286002
:1014A000FFF7F4FA074604E0FFF7F0FAC01B022842
:1014B00033D828688001F7D4216BE06AEA680843D2
:1014C000616BFD231B049A4311430843E8602868BD
:1014D00030430FE0001002408813000000E00000DD
:1014E000F44D00084C000020401002400070004005
:1014F000000001402860FFF7C9FA044604E0FFF746
:10150000C5FA001B022808D828688001F7D509E031
:10151000FFF7BCFA001B022801D90320F8BD286898
:101520008001F5D40020F8BD0120F8BD30B501469A
:1015300020310A78012A15D001220A7002234B704B
:101540000468CA23636204685323636203689C6867
:1015500020252C439C600068FF2343624A700020D2
:10156000087030BD022030BD10B502F0EFFC10BD98
:10157000F8B5054604462035287801281DD00120FD
:101580002870022068702268CA20506222685320A6
:101590005062FF2001300026FF2781421CD12168C4
:1015A0008A6882438A60206881680122120391431D
:1015B0008160FFF76BFA009009E00220F8BDFFF7A9
:1015C00065FA0099411A7D20C00081421BD820682D
:1015D000C068C007F3D020E0206881680122520271
:1015E0009143816020688168120191438160FFF717
:1015F0004DFA00900DE0FFF749FA0099411A7D205D
:10160000C000814205D920684762032068702E70AF
:10161000F8BD2068C0688007EDD5206847620120CA
:1016200068702E700020F8BD10B500680B46406849
:10163000C021C94301400002000ECC04D870E40E62
:101640005C708C06A40E0904490F9C701970002A66
:101650000AD101F073FCD870587801F06FFC587013
:10166000987801F06BFC9870002010BD30B50B46E7
:101670000168896A5960016809694904490C9960DF
:10168000006804680F482146014088024D04800E1E
:1016900018706D0E49065D70490E99706102490E11
:1016A00040242140D970002A0AD101F047FC18706B
:1016B000587801F043FC5870987801F03FFC98701E
:1016C000002030BD7F7F7F0070B5040005D0254627
:1016D00020356878002802D006E0012070BD002087
:1016E0002870204600F042F8022068702168CA2065
:1016F0004862216853204862204601F032FCFF21F5
:101700000028206803D0416204206870E5E7826801
:10171000154B1A408260226890686368A669184376
:1017200023693343184390602268E06810612068A1
:10173000026923891B041A4302612068C26880235E
:101740009A43C2602068C26C92089200C264E26947
:10175000606902432068C36C1A43C2642068416216
:1017600001206870002070BDBFFF8FFF00B597B0EB
:101770000420009000200A90FF200130029068466B
:10178000FFF7A6FC002801D0FEF7B1FE20200E9046
:10179000C0020F900EA8FFF7C5FA002801D0FEF78F
:1017A000A6FE08480169012292041143016100224A
:1017B00001210220FFF7BAF90220FFF79FF917B0C5
:1017C00000BD000040100240FEB50646044620362B
:1017D00030780B46012842D0012030700220707012
:1017E00020681D46002720358068002A39D0400631
:1017F00055D5187801F0A2FB287801F09FFB1978E5
:101800009878090408435978DA78090212041143D8
:101810000843297809060843D969084359690843E8
:10182000054699695868084300902168CA204862B3
:10183000216853204862FF205A6A01308021824289
:101840004AD122689368834393602268D068084035
:10185000FF388238D060FFF719F9019029E00220A3
:10186000FEBD400600D4DF70187801F06FFB020463
:10187000587801F06BFB00020243987801F066FB98
:101880000243D87800040243287801F05FFB000689
:101890000243D8690243586902431546C1E7DF7025
:1018A000AAE7FFF7F3F80199411A7D20C0008142B1
:1018B0002AD82068C068C007F3D02068C5612168B5
:1018C0000098486420688168FF22013211438160DA
:1018D00020688168120130E02068826801235B0281
:1018E0009A4382602068C2680A401D495118C1604D
:1018F000FFF7CCF801900EE0FFF7C8F80199411A04
:101900007D20C000814206D92168FF204862032063
:1019100070703770FEBD2068C0688007ECD5206805
:10192000056221680098886420688168012252025B
:101930001143816020688168120111438160094868
:101940000268012149040A43026082680A438260F6
:101950002168FF2048620120707037700020FEBDB2
:101960007FFDFFFF00040140F8B505460446203521
:1019700028780B46012815D00120287002206870B5
:101980005878002A10D001F0D9FA987801F0D6FAE8
:10199000D8789E78000406435878197800024903E5
:1019A000084316E00220F8BDC10603D5EF21084028
:1019B0000A305870D87801F0C9FA0604587801F056
:1019C000C5FA00020643987801F0C0FA0643187879
:1019D000400306432168CA204862216853204862B8
:1019E000204601F0BEFA0027002811D11048064019
:1019F000206846602068C16880229143C1602068E9
:101A0000806880060CD4204600F08CF8002807D0AF
:101A10002168FF204862042068702F700120F8BD03
:101A20002168FF204862012068702F700020F8BDF7
:101A30003FFFFF00F8B506460446203630780D46D5
:101A400001280ED00120307002207070206800271D
:101A50008068002A07D040061AD5287801F06EFA6F
:101A600017E00220F8BD400600D4EF70287801F09E
:101A70006DFA0204687801F069FA00020243A8785E
:101A800001F064FA0243E8780004024300920BE09C
:101A9000EF702978A878090408436978EA78090280
:101AA00012041143084300902168CA20486221684B
:101AB00053204862204601F054FA00281FD11849EB
:101AC000009808402168086020688168012292041B
:101AD000914381602969E868084321688A68104356
:101AE00088602068C16880229143C1602068806856
:101AF00080060CD4204600F015F8002807D0216895
:101B0000FF2048620420707037700120F8BD216802
:101B1000FF2048620120707037700020F8BD00007F
:101B20007F7F7F0070B504460068C168A0229143A2
:101B3000C160FEF7ABFF7D260546F60006E0FEF726
:101B4000A5FF401BB04201D9032070BD2068C068CA
:101B50008006F4D5002070BD10B50446006C002846
:101B600001D0FEF7C1FD606C002801D0FEF7BCFD7E
:101B70002068416802229143416020684168490819
:101B800049004160012040346074002010BD70B5F0
:101B9000040006D025464035687C0026002802D087
:101BA00005E0012070BD2E74204600F033F80220BD
:101BB000687420680168402291430160A1686068F0
:101BC00022690843E168114308436169012208431F
:101BD000A169520211400843E1690843216A0843A0
:101BE000A16A084321680860A0690421000C08402C
:101BF000616A0843216848602168E06A08612068DA
:101C0000C16992009143C16166650120687400203A
:101C100070BD000038B51C490546486B8A14104356
:101C20004863086B012210430863086B1040009062
:101C300000F0D4FE154C082060601020A060002049
:101C4000E06080202061400060618000A061202071
:101C5000E061000220620E4820602046FEF76AFD27
:101C60002C64002211460A20A562FEF75FFF0A20BD
:101C7000FEF744FF002211461920FEF757FF1920F6
:101C8000FEF73CFF38BD0000001002408C0500202C
:101C900030000240F8B50446002768460780264613
:101CA0004036707C012802D0707C22287ED1002929
:101CB0000CD0002A0AD0002B08D0307C012875D027
:101CC00001203074707C012802D003E00120F8BDAF
:101CD000322070746765A263A387E3872163A386BC
:101CE000E386A764E7640125A06A6D03A84207D1D3
:101CF00020680168A94301602068016829430160E8
:101D000020680168490603D401684022114301603C
:101D10000121FF20E268C90205308A42616866D16C
:101D2000002904D081420CD1E08E012809D1206B1A
:101D300021680088C860206B801C2063E08E401EF4
:101D4000E086E08E002843D1A06AA84246D12068F0
:101D5000016801221203114301603FE02068C0685E
:101D6000A16B0880A06B801CA063B0E00022022160
:101D70002046069B01F07CF900287DD1206B21686C
:101D80000088C860206B801C2063E08E401EE086C7
:101D9000E08E002808D1A06AA84205D12068016819
:101DA0000122120311430160002200E0CCE0012176
:101DB0002046069B01F05CF900287FD12068C068AE
:101DC000A16B0880A06B801CA063E08F401EE087A1
:101DD000E08E0028CAD1606800287BD10022012152
:101DE0002046069B01F044F9002867D1B6E7002998
:101DF00004D081420BD1E08E012808D1206B411C18
:101E0000216321680078C860E08E401EE086E08E85
:101E1000002845D1A06AA84205D1206801680122A6
:101E2000120311430160002201212046069B01F0AC
:101E30001FF9002842D12068C068A16B087046E0F5
:101E4000002202212046069B01F012F9002835D11C
:101E5000206B411C216321680078C860E08E401E21
:101E6000E086E08E00280AD1A06AA84207D1206847
:101E700002680121090300E020E00A430260002219
:101E800001212046069B01F0F3F8002816D12068B6
:101E9000C268A06B411CA1630270E08F401EE08706
:101EA000E08E0028CCD16068002813D100220121E7
:101EB0002046069B01F0DCF8002802D00320F8BD84
:101EC00008E02068C168A06B421CA2630170E08F2B
:101ED000401EE087A06AA8420FD1002201212046BF
:101EE000069B01F0C5F8002802D0606D02210EE0CB
:101EF0002068C06869460880088801228021204641
:101F0000069B01F0B5F8002804D0606D202108433D
:101F10006065D3E701207074A06AA84211D12068DF
:101F20008168C943C9060CD4616D02221143616501
:101F30000168A94301602068016829430160377482
:101F4000C4E637740020BAE70220B8E770B504464B
:101F50002034237D012B0CD00125257502236375C8
:101F6000002A08D0042A0AD0082A0CD00C2A11D141
:101F70000DE0022070BD006801F011FF0AE000686A
:101F800001F025FF06E0006801F03AFF02E000687A
:101F900001F051FF65750020207570BD70B504001B
:101FA00005D025462035687D002802D006E00120B6
:101FB00070BD00202875204600F00AF802206875E0
:101FC000211D206801F0B0FE01206875002070BD61
:101FD0000248816B01221143816370470010024067
:101FE00010B504460068002201F0CEFE2068016AA8
:101FF000044A114203D101684908490001600020E8
:1020000010BD000011110000704770B5040005D02C
:1020100025466035687A002802D006E0012070BDB0
:1020200000202872204600F026F8242068722068DC
:102030000168490849000160606A002802D0204612
:1020400002F07EF8204602F06BF90128E7D0206804
:1020500041680922D20291434160206881682A22A6
:10206000914381602068016801221143016020468C
:1020700002F0CCF870BD7047FFB5074604466037E4
:10208000B87A83B00E46202871D1002E0CD0059866
:10209000002809D00120A1680003814207D12069EE
:1020A000002804D1F00702D0012007B0F0BD387A33
:1020B00001285CD0012038720020E0662220B8722E
:1020C000FEF7E4FC029025464035059828830598E4
:1020D00068830122A0681203FF21904204D1206985
:1020E000002815D123480AE07F2200280BD00121C7
:1020F0000907884204D12069002807D03F20A8831F
:10210000A88B019023E02069002801D0AA83F7E77B
:10211000A983F5E7688B401E68830698009000222B
:1021200020212046029B02F013FA002801D0032050
:10213000BBE70120A1680003814202D12069002889
:102140000DD02068416A019801403170761C688B7F
:102150000028DFD12020B87200203872A5E720685F
:10216000406A019908403080B61CF0E7FFE7022082
:102170009BE70000FF010000FFB5064604466036FD
:10218000707A83B00D46202858D1002D0CD00598C8
:10219000002809D00120A1680003814207D12069ED
:1021A000002804D1E80702D0012007B0F0BD307A42
:1021B000012843D0012030720020E0662120707297
:1021C000FEF764FC01902746403705983882059851
:1021D000788218E0788A401E788206980090002263
:1021E00080212046019B02F0B3F9002818D101207C
:1021F000A1680003814202D12069002812D0216821
:10220000287888626D1C788A0028E3D106980090AF
:10221000002240212046019B02F09AF9002808D0B4
:102220000320C2E728882168C005C00D8862AD1C64
:10223000E9E72020707200203072B6E70220B4E790
:10224000F8B5054604466035687A20283BD1002958
:102250000BD0002A09D00123A0681B03984206D1A5
:102260002069002803D1C80701D00120F8BD287AD1
:10227000012828D00120287220464030E1640282E3
:1022800042820026E66621206872216E0F48C862ED
:10229000216E0F480863216E0E484863206E134676
:1022A00086632768E16C3A462832206EFEF7C6FA4C
:1022B0002168402008622E722068816880221143C4
:1022C00081600020F8BD0220F8BD0000B742000880
:1022D000E74200086D4200087047704710B5124889
:1022E000017800291ED10122027011480F490160B6
:1022F00000210164C161D307816143608263816011
:10230000C160016207234162C3630261C1620422AA
:10231000426101630748416B421511434163044820
:10232000FEF7E6F810BD0000750000200024014013
:10233000CC0500200010024010B5094C2078AA28D6
:102340000CD0FEF7B9FAFEF7A5FAAA2020705822A1
:102350000449201DFDF712FFFEF7A4FA10BD00008E
:1023600000000808804E0008014600200A0A00D03C
:102370000820084A114201D004221043064A1142A3
:1023800001D002221043054A114201D00121084325
:1023900070470000F0F00000CCCC0000AAAA0000BA
:1023A00038B50B231B07C518114B0FD01C152D1B5F
:1023B00018D02D1B19D0A542DD6A05D1082425436C
:1023C000DD62DB6A234007E08024F8E7DC6A012550
:1023D0002C43DC62DB6A2B40009311601146FEF750
:1023E0008DFA38BDDD6A0224E9E7DD6A0424E6E7F8
:1023F0000010024010B5FFF7B7FF810003484158B5
:10240000002901D00020884710BD00007003002083
:1024100070B51C4615460E460846FFF7A5FF0A494B
:10242000002C0DD080000C50304600F0B3FC044668
:1024300000222946FEF77AFB2046FEF75FFB70BDBF
:10244000002280000A5070BD7003002010B5D2B287
:10245000FEF716FB10BD0000F0B587B014216846EA
:10246000FDF7A5FE224CE06A01210843E062E06A24
:1024700008400590E06A02252843E062E06A2840AF
:102480000590E06A04263043E062E06A304005903F
:10249000E06A80273843E062E06A69463840059088
:1024A00003200190002002901248009005200007B0
:1024B000FEF724FA1048009069461048FEF71EFA0D
:1024C00069460F48FEF71AFA69460E48FEF716FAF3
:1024D000E06A40084000E062E06AA843E062E06A27
:1024E000B043E062E06AB843E06207B0F0BD0000CC
:1024F00000100240FF9F0000FFFF0000000400509A
:1025000000080050001C005010B5124C88B06078D4
:1025100000281DD11C216846FDF749FEFFF7DEFEAD
:1025200000F02CFA00F09CF800F006FB01F0D0FD62
:10253000002002F09BFAFDF751FF00F0B1FE684663
:1025400000F068FE0121402001F04BFB012060708B
:1025500008B010BD7500002070B5410EC0017D228D
:102560000023FDF7DBFD054600F072F8044600E0AD
:1025700000BF00F06DF8001BA842F9D370BD000049
:1025800070B505460C4600222048FFF76FF8002280
:1025900029461E486668FFF747F8002221461B4877
:1025A000FFF764F86068B042F1D1E878184A014654
:1025B0005043C01C8308880726D0164968783D22FE
:1025C0000646504302463C3A7000801EC1408807D0
:1025D000D10F8918800F4910081AC018A978401E19
:1025E00008180D493C2248436178E1235143227881
:1025F0001B015A438918A27810180818074A616805
:102600008002511A401870BD0549D7E7B003002079
:10261000B5050000A0AA990080510100FF03000049
:10262000505544000320704701480068704700007F
:10263000FC03002000B587B0694605A8FFF7A0FF9E
:102640000249096807B0401A00BD0000FC030020E1
:1026500000B587B0694605A8FFF792FF07B000BD37
:1026600010B5084C207800280AD100F041F8FF216D
:1026700001310548FEF77CFF00F06AF80120207068
:1026800010BD000074000020B003002010B50D4CF8
:102690000021042000F06AFB01200B49400448613E
:1026A00021688868C0040BD5C868C00508D5C8680B
:1026B00080221040FF388238C8602046FEF754FF61
:1026C00010BD0000B00300200004014010B5044616
:1026D000FFF7B0FF201A032801D9002100E00121F3
:1026E000042000F043FB204600F03EF810BD00003F
:1026F00010B51449144886B0002412C01F2101608F
:10270000846004611149446141600838FEF7DCFFD0
:102710006946CC750120487588750875002205A9A1
:102720000948FFF721F900940194049400226946B6
:1027300005480394FFF77EF90348FEF7F7FE06B05D
:1027400010BD000000280040B0030020FF0300007F
:1027500010B5044C2046211D1830FFF711FF2060F2
:1027600010BD0000FC030020F0B587B00446142221
:102770003F4901A8FDF702FD3D485038406E0090EA
:1027800000F07EF83B4802993B4A401AA105890DAA
:10279000081887B2A10A68468078534202E0891877
:1027A000401C80B29942FAD26A461579E1221201A0
:1027B00002E0891A6D1CADB29142FAD26A46547990
:1027C00002E0641CA4B23C393C29FAD29279511837
:1027D0008EB20121890203E07A1A761C97B2B6B252
:1027E0008F42F9D203E03C3E641CB6B2A4B23C2E48
:1027F000F9D203E03C3C6D1CA4B2ADB23C2CF9D242
:1028000003E0183D401CADB280B2182DF9D26946E4
:10281000C978890769464A7827D01849491E515C0A
:10282000814202D2FDF764FC08461249CA1B1049D6
:102830002C394A60052252068A618E704C700A4615
:102840000D70203210706846C079C8700020C861D1
:10285000FF2248610132C8604A62086102460846A8
:102860002438FEF7B1FF07B0F0BD04490C31D5E7BD
:1028700000040020FF03000080AEFEFF1C4E000895
:1028800010B5FF2101310748FEF772FE05480168C7
:10289000C86880221040FF388238C8600249900220
:1028A000486110BDB003002000040140F0B5294884
:1028B000294B016C284C284D274E274A08681433B1
:1028C00028343C355036904201D102201BE098421A
:1028D00001D1202017E0A04202D10120400212E0E5
:1028E000A84202D1012040030DE0B04202D10120F4
:1028F000400408E0184F6437B84202D10120400577
:1029000001E001204006144F083F786008689042BB
:1029100001D104201BE0984201D1402017E0A042E1
:1029200002D10120800212E0A84202D101208003DE
:102930000DE0B04202D10120800408E00649643174
:10294000884202D10120800501E0012080067860E4
:10295000F0BD0000180400200800024001B582B05C
:102960000020C0430090012301AA02A90248FFF7FA
:1029700091F9684680880EBD1804002010B51448EF
:1029800012490160144A134B0021126803E05208F7
:10299000491C072901D29A42F9D8C900C161002116
:1029A000816001614161FF22C16005328162426044
:1029B000012201625202826141620548FFF7E7F895
:1029C000002801D0FDF793FD10BD0000003001404C
:1029D000180400200024F4004C00002030B585B01D
:1029E00014216846FDF7E3FB0220019002900320CA
:1029F0000390002004906A4608210F48FFF7D0FC9E
:102A0000052424076A4640212046FFF7C9FC6A4690
:102A100080212046FFF7C4FC01210191CD030291E2
:102A20006A4629462046FFF7BBFC0122294620467C
:102A3000FFF70CFD05B030BD0004005038B512485A
:102A4000006801680122D202914301600F48C16A07
:102A500001221143C162C06A05241040D503240736
:102A600000902946204600F0F1F86068A8436060B5
:102A700002222946204600F0FDF800222946204681
:102A800000F0EEF8A56138BD1804002000100240E7
:102A900010B50848046CFFF75FF82068016804224D
:102AA0009143016020680168022291430160FFF7B1
:102AB000C5FF10BD18040020094801680122120456
:102AC0001143016001688903FCD5C1688908890048
:102AD000891CC160C1680907890F0229FAD17047B2
:102AE0000010024008B5134801680122114301603B
:102AF00001684907FCD501680122120611430160F3
:102B000001688901FCD5C16803221143C160C16815
:102B10000907890F0329FAD10268012109048A43B0
:102B2000026002680A400092016801229204914307
:102B3000016008BD001002407FB50120134C8007E2
:102B4000206000256560FF2025619030A560E06071
:102B50002046FFF723FA60200090022001900295A2
:102B6000002269462046FFF7F1F910200090452029
:102B700001900295042269462046FFF7E7F9206894
:102B8000C168012292021143C1607FBD2C06002062
:102B900010B50C4C01202168C04308612068016910
:102BA000C943C907FBD10748FFF71AFA04210548B2
:102BB000FFF716FA2168002048622168C01E0861EC
:102BC00010BD00002C06002000BFFDE7F8B5D4685A
:102BD00093685569234314692C4323439469234321
:102BE000D4692343946A2343104C6418203CE67F45
:102BF00085590F4F3D401D438551E57F03460C33FA
:102C0000EF585668EE50E67F1B1FF7581568F550D1
:102C1000E47F031DE658156A360C36042E43E65051
:102C2000526A00F007F80120F8BD0000154E0008B8
:102C30000F80FFFF10B589000F24091F8C408030E2
:102C4000836A8A40A3431343836210BD10B50368AF
:102C500049434C000C19A34351430B43036010BD7F
:102C600010B5C36849434C000C19A34351430B43AF
:102C7000C36010BD10B5836849434C000C19A343D1
:102C800051430B43836010BD70B5044600680E4687
:102C90000025C007C00F2AD1F16870682268084378
:102CA0003169144B1A40114308432060B1686068D1
:102CB000032212039043084360607169A0681211F7
:102CC00090430843A060900000F016F800280ED052
:102CD0003268002A0BD0010E06025008002330187B
:102CE00001255941FDF71AFA0003000BE060284660
:102CF00070BD0000F3E9FFEF10B512490024C96868
:102D0000014001208002091A12D0091A14D0814210
:102D100007D100F023F8002801D00124E403204665
:102D200010BD00F08FF800F073F800F07FF801E0BC
:102D300000F088F80446F2E700F008F80028EED02A
:102D4000014CECE7401002400024F4000248006807
:102D50004007C00F704700000010024002480069A1
:102D60008005C00F704700004010024010B5EFF31F
:102D7000108272B6064B00291C6803D0012903D1CA
:102D8000044300E084431C6082F3108810BD0000FF
:102D900054000020FF220132811A90420CD009DC3D
:102DA00008280DD008DC012808D0022806D0042805
:102DB00002D105E00F22120207207047052070475C
:102DC00006207047704700008307FF22DB0E9A4001
:102DD0008907090E994000280BDA0007000F083810
:102DE000830808489B001818C36993430B43C361C9
:102DF0007047830804489B001B18186890430843D9
:102E00001860704700ED00E000E400E0704700004B
:102E10000449C968F0221140034A0909515CC840BD
:102E20007047000000100240F44D00080349C968D3
:102E3000034A4905490F515CC840704700100240E1
:102E40000D4E000810B50C49CA680C2002400B4812
:102E500005D0042A09D0082A09D00C2A09D04968CB
:102E60000904490F491C884010BD054810BD05489C
:102E700010BD00F009F810BD0010024000800000F5
:102E80000024F40000127A0010B50B48C168012339
:102E90001B040A4A194002D0994200D15210C1685D
:102EA000C0680902890F8002054B000F185C491C9D
:102EB0005043FDF71DF910BD001002400024F4003E
:102EC000044E000870B517490023CA681206120F95
:102ED00018D18A6B154CD500134A02D512682240CE
:102EE00009E08E6B01252D072E438E6312688E6BD1
:102EF0002240AE438E63A24204D10321890388425B
:102F000000D101230A4801684908490019430160BA
:102F10000068C007C00F984201D0012070BD00209A
:102F200070BD00000010024000700040001800005A
:102F30000020024010B501F033FD10BD01090A2246
:102F400000075143000F4018C0B27047002102E053
:102F50000A38C0B2491C0A28FAD20907090E0843E8
:102F6000704770B504460068C168490613D4002153
:102F7000C943C160FDF78AFD7D260546F60006E0DF
:102F8000FDF784FD401BB04201D9032070BD2068CD
:102F9000C0684006F4D5002070BD10B5FFF776FB81
:102FA00010BD000070B5092000F05EFC054606204B
:102FB00000F05AFC0404072000F056FC0002044311
:102FC000082000F051FC0443200A0102184A611A4B
:102FD000514380315043090A46180021092000F06E
:102FE00000FE3B2000F040FC4024204301463B20F3
:102FF00000F0F7FD3B2000F037FC8006FAD40D48C6
:1030000000F0E6FC3B2000F02FFC204301463B2073
:1030100000F0E7FD3B2000F027FC8006FAD42946AB
:10302000092000F0DEFD304600F0D2FC70BD00004B
:10303000093D000000A1BC33EFF3108172B60122FC
:103040008240034883681A4381F310888260704786
:1030500064000020EFF3108172B601228240034821
:1030600003681A4381F310880260704764000020EF
:10307000F8B51D4616460F460446FDF707FD3146D6
:1030800026464036009000291ED043E0681C1BD025
:10309000002D05D0FDF7FAFC0099401AA84213D97B
:1030A00020684168E0229143416020680268402125
:1030B0008A43026023E021680A6882430A6021682B
:1030C0000A6802430A601FE0206881683846884326
:1030D000DCD124E0681C1DD0002D06D0FDF7D6FC05
:1030E00001460098081AA84214D920684268E021D5
:1030F0008A434260206801684022914301600120B8
:10310000A16A40038142D6D001207074002030743F
:103110000320F8BD2068816838468843DAD0002053
:10312000F8BD10B5002804D001210220FFF71EFED3
:1031300010BD0021F9E710B5012802D0FFF7BCFC53
:1031400010BDFFF7CFFC10BD10B50020FFF774FFD6
:1031500010BD10B5FFF71CFD10BD000070B5214C6F
:10316000A089C207204600894100002A0DD01E48D0
:103170000D18A089628990420DD22846FDF717F8F4
:1031800060698047002802D027E0174DF1E7284604
:1031900000F06CFE21E0A08990420ED0A389501C63
:1031A000834206D12846FDF702F8284600F090FE3B
:1031B00013E0A089921C904203D12846FCF7F7FF48
:1031C0000BE0FFF7C6FF00F011F80020FFF7A9FFA2
:1031D0000120FFF7B0FFFFF7B7FFA089401CA081D7
:1031E00070BD000080000020D406002010B5FFF75D
:1031F0004FFC10BD70470000014948607047000057
:10320000000000200E2801DD80207047002070475C
:1032100005207047F8B51E4D1E4928601E4800F075
:103220007DFE1D481B49183000F078FE1A481949E8
:10323000303000F073FE686801680120884700F0B4
:1032400043FBFFF7AFFE002000F024FC68688168B4
:10325000284608308847114E002460002718F05D8A
:1032600000F0DEFBB8198178407800F0BAFC641CED
:10327000E4B2102CF1D3002000F0D2FB064900206C
:1032800068390871686840688047801CF8BD000094
:1032900000000020A137000818020020084D000897
:1032A00010B586B014216846FCF781FF1848FFF777
:1032B000A3FF18480190022002900320164C0390AF
:1032C0006A4610212046FFF76BF86A460221204625
:1032D000FFF766F86A4601212046FFF761F80121F1
:1032E0006A4649030D48FFF75BF8052424076A4640
:1032F00020212046FFF754F80120019000200121F1
:1033000002906A4609032046FFF74AF806B010BD4E
:10331000340000200000111000040050000800508C
:1033200070B50E4D04460368002210212846FFF7B1
:103330006FF80022022128466368FFF769F800222F
:1033400001212846A368FFF763F801210022490301
:103350000348E368FFF75CF870BD0000000400500C
:1033600000080050F8B5002568460570894C2079A2
:10337000012809D0022857D12046683000F076FE97
:10338000607901287ED1F7E06079002818D0012803
:103390004AD14021122000F024FC122000F064FAEF
:1033A0006946087008787B4E8006403600286ADA45
:1033B0002021122000F015FCB07D002876D083E09B
:1033C000744E20363079012835D13F2000F04CFA78
:1033D00069460870087880072DD40B213E2000F044
:1033E00000FC10213F2000F0FCFB3046603000F074
:1033F0003DFEB079002818D00D2000F035FA4021AC
:1034000001430D2000F0EDFB3046783000F0F4FD74
:1034100061480068002803D00069002800D0804778
:1034200035747574A5876587F8BD5A48983000F0E3
:103430001DFE2571ECE7618F584F00290AD1A08F3E
:10344000002807D1B078002831D0322000F00CFAE3
:103450006087618FA08F091AC9B2C01900F02DFAD8
:10346000608FA0874B48803000F000FEB0790028C4
:1034700023D00D2000F0F8F9402101430D2000F089
:10348000B0FB01E07CE029E04248983000F0B4FD58
:10349000414800680028C3D08768002FC0D012229E
:1034A000B256618F00233D48B847B9E70BE0394871
:1034B00001213A3000F001FACBE736482571983007
:1034C00000F0D4FDE4E725713248803000F0CEFDF5
:1034D000314800680028A7D0006957E0192000F0A3
:1034E000C3F940B22B4F801C8010603738701A200F
:1034F00000F0BAF900217956294A00290BDAA368AD
:10350000934203D9091800119D3802E009180011EF
:10351000A438081809E0A168914203D901110818DC
:103520009D3802E001110818A4387084132000F0BF
:103530009BF93871102000F097F901460D2000F03A
:1035400050FB3979154800F0B8F9B07D002800D15A
:1035500025711048803000F089FD0F480068002870
:10356000B9D08468002CB6D000232222FB56B25E6C
:1035700039790A48A047F8BD0821122000F031FB34
:103580000548257100680028F5D000680028F2D0B1
:103590008047F8BDB001002000000020B0000020EE
:1035A00040DD4A1F70B5324C25462179E61F687907
:1035B000F93E2035012911D0022925D1002823D137
:1035C000618FA08F33460A1AE97FC0188A424ADD0C
:1035D00000F02EFBA08FE97F401842E0002814D0B5
:1035E000012811D12248803000F040FD80211220B6
:1035F00000F0F7FA002020711E480068002803D070
:10360000C068002800D0804770BD1948983000F08D
:103610002DFD608F002809D1A08F002806D1A87841
:10362000002813D0322000F01FF96087618FA08F2F
:10363000AA7F091A91420FDB521ED1B2801900F005
:103640003CF9A08FA97F4018401E0AE008480121DC
:103650003A3000F032F9E9E7C9B2801900F02DF9EB
:1036600004E0A08770BDD1B200F0E2FA608FF8E705
:10367000B00100200000002070B52A4D2A4C2946D8
:1036800008462A7940304979C07C012A04D0022AB0
:1036900001D1002902D170BD002916D00129FAD12B
:1036A0000128F8D10221122000F09BFA206800289E
:1036B000F1D040690028EED01C2000F0D5F8216838
:1036C00080064969800E884770BD164C2034207CE6
:1036D0000128F9D1607C0028F6D12046783000F02E
:1036E000C5FC01206074112000F0BEF84008404283
:1036F000A0741B2000F0B8F806021C2000F0B4F8FB
:103700000643300A0102094A711A5143803150437D
:10371000090A401868630C2000F0A6F840092076DA
:1037200070BD0000B001002000000020093D000035
:1037300010B51248407900281FD001281DD1122051
:1037400000F092F80E4CC0070BD00521122000F0BB
:1037500048FA2068002810D0816900290DD0012086
:103760000AE00421122000F03CFA2068002804D06E
:103770008169002901D00020884710BDB0010020D8
:103780000000002005484079002806D10348203079
:10379000017C002901D1012101747047B001002092
:1037A000F8B52E4D287901282BD0022828D100F019
:1037B0008BF8FFF7F7FB002000F06CF9284E00248F
:1037C00060002718F05D00F02BF9B8198178407877
:1037D00000F007FA641CE4B2102CF1D3002000F0D2
:1037E0001FF91E484030007F00F082F90020287148
:1037F0001C480068002803D04068002800D080479B
:10380000F8BD6879002816D1144E0024203634748F
:103810007474AC876C870B213E2000F0E2F9102114
:103820003F2000F0DEF9B07901280AD030462C7133
:10383000783000F01BFC0B4800680028E0D0C0681E
:10384000DBE70D2000F010F8402101430D2000F0CF
:10385000C8F90248983000F0CFFBECE7B001002037
:10386000084D00080000002008B50122694600F05C
:1038700003F86846007808BDF8B5044601271546E8
:103880000E46FF030520002239460007FEF7DEFD45
:103890006006400EFFF762F8002405E00020FFF705
:1038A0005DF83055641CE4B2AC42F7D30520012228
:1038B00039460007FEF7CAFDF8BD0A4610B50146B5
:1038C0000020FFF7D9FF10BD30B585B01421684640
:1038D000FCF76DFC0120019003200E4D00240390A5
:1038E00002946A4601212846FEF75AFD0022012172
:1038F0002846FEF7ABFD0120FCF7C7FF6A46012111
:1039000028460194FEF74CFD0620FCF7BEFF05B0EB
:1039100030BD00000008005070B504460920FFF7D4
:10392000A3FF0C4D032C08D0002028700520012295
:1039300002210007FEF78AFD70BDC109064802D0CA
:103940000122022101E001220421FEF77FFD012076
:10395000287070BDB001002000080050F0B50525AA
:10396000002703242D07194E85B0002826D01421E6
:103970006846FCF71CFC01946A460221284602971F
:103980000394FEF70DFD002202212846FEF75EFD9E
:103990006A4602213046FEF703FD0022022130462E
:1039A000FEF754FD6A4604213046FEF7F9FC00227A
:1039B00004213046FEF74AFD05B0F0BD14216846EB
:1039C000FCF7F5FB01200190D6E70000000800504D
:1039D00070B505461048114E856031462846FCF703
:1039E00087FB044630466043281A000271104018D5
:1039F0003146FCF77DFB210244182002010E06200F
:103A000000F0EFF82004010E072000F0EAF8E1B220
:103A1000082000F0E6F870BDB0010020093D00006C
:103A200010B504460120FFF71FFF0106184801D515
:103A3000012100E000214171C9B2A14226D04471A8
:103A4000012C10D0002000F025F80120FFF70CFF1A
:103A50004106490E012000F0C4F80021402000F08A
:103A6000C0F830210FE0002000F014F80120FFF72B
:103A7000FBFE80210143012000F0B3F8002140202B
:103A800000F0AFF80021412000F0ABF810BD0000BD
:103A9000B001002070B5154C050015D060680168B4
:103AA0000120884760680169002088476068416993
:103AB000284688470120FFF7D7FEC108C9002943DF
:103AC000012000F08EF870BD0120FFF7CDFEC10887
:103AD000C900012000F085F860680169012088476D
:103AE000606801680020884770BD00000000002069
:103AF00010B504460120FFF793FF0548002C04771A
:103B000001D0342100E01221392000F06AF810BD04
:103B1000F001002070B504460920FFF7A5FE064617
:103B20004D20FFF7A1FE05462046FFF76BFB71060F
:103B3000490E0843C10923D0112C02DD07210D4392
:103B400002E0ED08ED002D1DE943490703D0022CEA
:103B50000CDA02240DE0052C01DA052402E0142C15
:103B600000DD142401090901641F05E0112C00DDAA
:103B7000112401090901A41E2007000F014314E0CC
:103B8000002C08DD0F2C00DD0F24C009C0012043EC
:103B90007021084308E00321C9438C4200DA0C4637
:103BA000C009C001241D2043C1B2092000F019F84A
:103BB00029464D2000F015F870BD0121052310B5F0
:103BC00009031B07012804D000221846FEF73EFC1B
:103BD00010BD01221846FEF739FC0520FCF755FE02
:103BE00010BD13B5012201A900F001F81CBDF8B504
:103BF0000446012715460E46FF03052000223946DC
:103C00000007FEF723FC204680210843FEF7A6FEAE
:103C1000002404E0305DFEF7A1FE641CE4B2AC4277
:103C2000F8D30520012239460007FEF70FFCF8BD46
:103C30000A4610B501460020FFF7D9FF10BD10B5A8
:103C4000FCF72AFF10BD000010B594B014210EA897
:103C5000FCF7ADFA38216846FCF7A9FA022000907B
:103C600001210A90039180040C900024000101942A
:103C700010210D900B9404916846FDF729FA002855
:103C800001D0FCF734FC1148816B020411438163BD
:103C90000F4801680322D2029143C21489180160BF
:103CA0004168C943C906FBD50F200E9003200F9031
:103CB00010941194012112940EA8FDF7F9F8002830
:103CC00001D0FCF714FC14B010BD0000001002403D
:103CD0000070004010480168821511430160C168FE
:103CE0000E4A1140C16001680D4A114001608168AF
:103CF00049084900816001680122920491430160F2
:103D0000C168FD2212049143C1600021016105498F
:103D1000C003886070470000001002400C40FF881C
:103D2000F6FFF6FE00ED00E0F0B502680124A407FE
:103D3000124D134E134FA04205D0A84203D0B042FB
:103D400001D0B84204D11346702293434A681A4303
:103D5000A04205D0A84203D0B04201D0B84204D15D
:103D600003231B029A43CB681A4302608A68C2622B
:103D70000968816201214161F0BD0000000400403A
:103D8000000801400014014010B50123046A8B4073
:103D90009C430462036A8A401343036210BD30B53A
:103DA000026A520852000262026A456883697024FE
:103DB000A3439C080B68A40023430224A2438C68FD
:103DC00045601443836149684163046230BD30B586
:103DD000026A10239A430262036A45688269732467
:103DE0002402A2430C6824021443202293438A68CD
:103DF000456012011A43846149688163026230BDE3
:103E000030B5026AFF2301339A430262026A4568B1
:103E1000C3697024A3439C080B68A40023430124B6
:103E20006402A2438C68456024021443C36149685C
:103E3000C163046230BD30B5026A01231B039A439B
:103E40000262036A4568C26973242402A2430C68B3
:103E5000240214430122520393438A6845601203EB
:103E60001A43C46149680164026230BD70B5164CE2
:103E7000A2885108511A1309CD1A144B11000AD007
:103E80000E461E43B6B20680801CA94201D90680A8
:103E9000801C491EF4D103806188802671406180B6
:103EA0005F246402214341800121001D09E00C468A
:103EB0001C43A4B20480801CA94201D90480801C48
:103EC000491C9142F3D970BD8000002000C500005C
:103ED00010B50F4989884A088A1A0B09D31AC522D6
:103EE000120200290AD00C461443A4B20480801C9C
:103EF000994201D90480801C491EF4D169210280B5
:103F000049024180034981800349C18010BD0000FE
:103F10008000002080810000709E0000002202606E
:103F200042600272427202614261C16070470000E9
:103F300010B5054A1168002901D000234B72416178
:103F4000106000F043F810BD5C00002070B5FEF773
:103F50006BFB0446FEF7FCFB031B1B4C2068002890
:103F600030D00246002507E00E689E4202D9F61ABC
:103F70000E6000E00D60526951690029F4D10028FB
:103F800020D0416921600572C168002900D1FEE797
:103F9000006988472068002814D0FEF74BFB0146D3
:103FA00020680268914206D9416921600572C168A2
:103FB0000029EDD1FEE7002804D0417A002901D183
:103FC00000F004F870BD00005C00002070B50446ED
:103FD000FEF728FB054601206072FEF72BFB2168E7
:103FE0004019884201D8084603E0FEF723FB401938
:103FF0002060FEF76BFB70BDF8B50400EFF3108591
:1040000072B62ED0184F01223868014602E0A04255
:1040100027D040690028FAD160680026206022720B
:10402000667200290CD0FEF705FB21680918216093
:1040300038680268914206D22046FFF779FF10E007
:10404000FEF786FBF8E74169002908D022680B6873
:104050009A4201D90846F6E74461616101E0446192
:10406000666185F31088F8BD5C00002070B5EFF341
:10407000108572B6154C21680A1E24D0002822D063
:10408000002606720B4681421BD1487A012804D0D3
:10409000586900280BD0206015E04E72586900283E
:1040A00003D02060FFF792FF0DE0FEF7E9FB2660EA
:1040B00009E0814203D148695061002803E00A46C3
:1040C00049690029F5D185F3108870BD5C00002096
:1040D00010B5054800F0CAFC0449FF220846013229
:1040E000103800F09FFA10BDF14000087002002067
:1040F0001CB5EFF3108472B60F4800F09BFA0E481F
:1041000000F0C0FA002809D000212020FEF72EFE82
:104110000A490120087084F310881CBD01AA694671
:10412000054800F062FA84F3108868468188009898
:1041300000F0E0FD1CBD00006002002060000020D7
:1041400010B5818CC90707D001684A6801235B0458
:104150009A43836A1A434A60818C890707D50168AC
:104160004A6801231B049A43C36A1A434A60818C3C
:10417000490707D501684A6801239B049A43036BEA
:104180001A434A60818C090707D501684A680123F0
:10419000DB039A43436B1A434A60818CC90607D5F7
:1041A0000268916801231B039943836B1943916053
:1041B000818C890607D501688A6801235B039A43CD
:1041C000C36B1A438A60818C490612D503685A680A
:1041D00001210905046C8A4322435A60026C8A4219
:1041E00007D10268516803235B059943436C194367
:1041F0005160818C090607D501684A680123DB04F8
:10420000806C9A4302434A6010BD0000F8B5002656
:104210000446C666FCF73AFC054620680068124F63
:10422000000709D501212B460022490520460097A9
:1042300000F08EF900280DD12068006840070BD5EA
:1042400001212B46002289052046009700F080F9C5
:10425000002801D00320F8BD202060346072A072D5
:1042600026720020F8BD0000FFFFFF0170B5846AD0
:1042700025466035687A0026212808D120688068A4
:10428000000604D552200653204600F040F8A87AD4
:10429000222808D120688068400604D55A20065399
:1042A000204600F025F8E06E10210843E066204625
:1042B000FDF7AAFE70BD10B501460968806A09685D
:1042C00089060DD4002252210A5201688A6880238F
:1042D0009A438A600068016840221143016010BD62
:1042E000FDF7FAFF10BD10B5806AFDF7F6FF10BDAF
:1042F00001680A68FF2321339A430A6001688A68CB
:10430000520852008A602021603081727047016833
:104310000A68C0239A430A602021603041727047C6
:10432000FEB50446016880682269E369104362694A
:10433000102700261A4310430A683546784B1A4066
:1043400002430A6020684168032212039143E26835
:1043500011434160734A2168A069914201D0226AE9
:1043600010438A680B231B029A4302438A606E4AF9
:1043700020686E4990420CD1C8688007800F06D033
:10438000012843D002283FD0032826D124E001276A
:1043900023E0674A90420AD1C8680C21084031D016
:1043A000042833D008282FD00C2816D114E0614AF5
:1043B000904227D0604A904224D05A4A90420CD171
:1043C000C9680320800201401CD01015091A1DD0B5
:1043D000091A19D0814200D108270220FCF7C2FB3C
:1043E0000190504B514922684039D81300929A42AB
:1043F00035D1002F0CD0022F0DD0042F12D0082F52
:104400001CD113E00027E8E70227E6E70427E4E7EA
:10441000FCF702FE08E00868C00601D5474805E041
:10442000474803E0FCF718FE002873D0626851008B
:104430005118814202D81103814201D2012569E05D
:10444000010E06025008002330185941FBF766FEA2
:10445000032109023B4A411A914259D9EEE7E26928
:1044600082422DD13B0000F0A4F80906080B241964
:104470002424241F2400019812E0FCF7DDFD0FE046
:1044800008686168C00602D548082F4A01E02F4A33
:1044900048088018FBF72CFE86B20BE0FCF7DCFD29
:1044A000616840004A08F4E7616801224808120484
:1044B000EFE70125310909013007400F084327E0E4
:1044C0003B0000F076F809070A0D061D06060629CE
:1044D0000600B3E7FCF7A0FD14E0FCF7ADFD11E02A
:1044E00008686168C00602D54A08144801E014480B
:1044F0004A081018FBF7FCFD81B20098C16009E082
:10450000FCF7AAFD61684A088018FBF7F1FD80B24C
:104510002168C8602846FEBD61684A08E9E70000D6
:10452000F369FFEF004800400038014040100240AE
:1045300000440040004C00400050004000093D0095
:104540000024F400FFFC0F0000127A000048E8018C
:10455000FFB581B017460E4604460A9D1DE0681C53
:104560001BD0002D05D0FCF791FA0499401AA842FF
:1045700013D920680168FF22A132914301602068AD
:104580008168490849008160202060346072A0720F
:1045900000202072032005B0F0BD2068C1693046BC
:1045A000884304D00020B842D9D00020F3E701208E
:1045B000F9E730B47446641E2578641CAB4200D21F
:1045C0001D46635D5B00E31830BC184702E008C875
:1045D000121F08C1002AFAD170477047002001E07D
:1045E00001C1121F002AFBD17047F0B58388002B50
:1045F00015D003888468C788E55C5B1C2E029BB2DB
:104600009F4200D10023E55C5B1C354398B2874292
:1046100000D100202018086015800020F0BD002087
:10462000C043F0BD00230380438083808160C2804B
:1046300003737047F0B58288002A20D0018885680E
:104640004B1C9BB20380695CC4880E020021A3420C
:1046500000D1018003885F1CBFB20780EB5C33434D
:10466000A74200D101800588EB189BB20380A342CA
:1046700000D10180521E828001730020F0BD002015
:10468000C043F0BD8088002801D000207047002082
:10469000C0437047FFB505463E480C4695B00168DB
:1046A000139120991F9F490601D5406813901898CF
:1046B000801E232802D3002019B0F0BD2098C00727
:1046C00001D0302000E0202012900020119020988E
:1046D000800707D5002A05DA2D2011901E98524236
:1046E000401E1E900026002A15D010461899FBF790
:1046F000FFFC139A525C69468A55761C0200F4D17D
:10470000BE4200DD374620991E98CA07C01B2021F3
:10471000002A0AD00DE03020694608700126EFE734
:104720002970641E6D1C002C31D00246401E002AE8
:10473000F6DC119A002A04D02A70641E6D1C002C2D
:1047400025D00246401E002A07DD129AF4E72A709F
:10475000641E6D1C002C01D119E030223B467F1EE7
:10476000B342F4DC6A463346761E002B0BDD935DC4
:104770002B70641E6D1C002CF5D108E02970641E9E
:104780006D1C002C03D00246401E002AF6DC284691
:1047900092E700007800002088B020220D4968468A
:1047A000FBF7ECFCFCF780F9FFF74EFAFBF718FE7D
:1047B000FDF7AAFEFDF7C0FD0220FBF7DDFD00209E
:1047C000FBF7DAFD0320FBF7D7FDFBF735FDFBF721
:1047D0007FFDFEE7344E0008FFB585B0074606981A
:1047E0001646002802DC002009B0F0BD401E3C4601
:1047F00003908EE00399E21B8A4270DA252801D0EB
:10480000207045E072780020761C302A00D101200B
:104810000021C943303A0D46092A0BD800253246FB
:104820000A2312785D43303D761C55193278303AB0
:10483000092AF4D98C4631780A23692950D006DC3C
:10484000582948D063291AD0642906D148E0732931
:1048500020D075294CD078293FD0252902D0252198
:104860002170641C0399E21B8A4241DA31780029E5
:1048700039D02170641C37E02070641C00E02020D7
:104880006D1E002DF8DC089801782170001D08903D
:10489000641C3DE0089802C800910890002901D0EE
:1048A000084601E021A00090FBF78CFC202101E0EC
:1048B0002170641C2A466D1E8242F9DC002107E04B
:1048C000009A491C12782270009A521C641C0092B3
:1048D0008142F5DB1CE040210843102308E020E082
:1048E0000221084304E0761E0399E21B8A420FDB93
:1048F0008107089904C908916146019102900698C0
:10490000E11B411A00952046491EFFF7C3FE0446ED
:10491000761C3078002800D06CE70399E21B8A42AD
:10492000FADA00202070E01B5EE700003C4E554C98
:104930004C3E000070B5164801688901CA0F154940
:10494000002A1DD0144B9A7984580225AC43845018
:1049500042680402224342608C694A691219D417E2
:10496000640EA418E409E401121B4A619A79835881
:104970005B085B0083500948826880239A43826009
:1049800048690969884201D000F0CAF870BD00008A
:1049900000000240F0040020784E0008004800406B
:1049A000F8B5304CE0694006C00F09D020684006D9
:1049B000C00F05D04020206200212020FEF7D6F94C
:1049C00000200090E0690125C002C00F09D0A06856
:1049D0004002C00F05D02805206201211020FEF7FB
:1049E000C5F9E06901268006C00F00280AD02068BA
:1049F0008006C00F06D0606A0021C5B21020009664
:104A0000FEF7B4F9E069C007C00F0BD1E069800779
:104A1000C00F07D1E0690007C00F03D1E06940076C
:104A2000C00F09D0266202202062082020620420E4
:104A300020620125009602E00098012811D10A4861
:104A40008168455481688268491C4907490F8A4238
:104A500001D0816002E082680D2181540020FEF7C0
:104A6000F9FAF8BD004800407004002010B51D4957
:104A70000122C86886B0D20203239B0298431043E8
:104A8000C86018484038816BD2011143816300F03F
:104A90002DF8002202211D20FCF748F81D20FCF70C
:104AA0002DF8E1204002002100900C200E4C0191D5
:104AB000029103910591049069462046FEF7E4F8BF
:104AC00020680221084320602068012108432060FB
:104AD000E0698002C00FFBD0E0694002C00FFBD04C
:104AE00006B010BD401002400048004030B585B00F
:104AF00002200190002002900120052506242D07A8
:104B000003906A46042104942846FDF749FC6A464E
:104B1000082128460494FDF743FC05B030BD000091
:104B2000F8B5EFF3108672B60D4C2069012187B2FB
:104B3000A08A85B22020FEF719F920468038AF42BE
:104B400001D9791B01E08021491BA161A1694019AC
:104B500089B2103000F086F886F31088F8BD0000A6
:104B6000F00400200FB4F0B53B4CA1B0E26827ABD5
:104B700000261D46002A13D021466846FBF7FEFAA0
:104B8000E168684608182B468021269AFFF724FE24
:104B9000E1680D180A212046FBF709FBE66005E0F5
:104BA00080216846269AFFF717FE05462A4C1C3CD2
:104BB000206961698027401A8030C117490E0918A1
:104BC000C909C901401A3E1A16E00120FBF75DFE33
:104BD00020696169401A8030C117490E0918C90956
:104BE000C901401A3E1A72B60B20FBF791FF01284B
:104BF00001D1FFF79FFE62B6B542E6DC2069164E92
:104C000040198C3E8028206908DA80192A466946B6
:104C1000FBF7B4FA2069401920610FE0381AC7B2D7
:104C200020693A4680196946FBF7A8FA6846ED1BE9
:104C3000C1192A463046FBF7A1FA25610848074901
:104C400080790858C007C00F01D1FFF769FF21B074
:104C5000F0BC08BC04B018470C050020000002405E
:104C6000784E000870B51F4A8CB0146B01231C43AA
:104C70001463126B80251A400B92102202921A4A7A
:104C8000009200220692049203920190059505205D
:104C9000164C079208910A9209906A46072120460D
:104CA000FDF794FF124EB079215802221143215092
:104CB000002202210B20193EFBF738FF0B20FBF7E7
:104CC0001DFF09482838816829438160F17F6258B7
:104CD00001231A43625001684022114301600CB065
:104CE00070BD000000100240284800400000024053
:104CF000784E00080A4610B501460248FDF7A0FAB2
:104D000010BD00001C050020000C23000D1E000E2D
:104D1000D2001A01001FAA0024070027120028C190
:104D2000002994002AC10030D800358F003B0200D2
:104D30004000004130012340280A00001700000015
:104D40001C0C00000F0000003C0F000007000000DA
:104D500050140000160000009C1800000E00000017
:104D6000781E000006000000A028000015000000CA
:104D7000D43000000D000000F03C000005000000F1
:104D80004051000014000000A86100000C00000069
:104D9000447A000004000000E4A2000013000000B8
:104DA00050C300000B00000024F4000003000000CA
:104DB0008545010012000000A08601000A000000E5
:104DC00048E80100020000002C8B020011000000E6
:104DD000400D03000900000090D003000100000016
:104DE000E093040000000000060004002000200002
:104DF00040008000000000000000000001020304E9
:104E000006070809030406080C10182030000000EB
:104E10000001020304081C3044586C801F1C1F1E34
:104E20001F1E1F1F1E1F1E1F1F1D1F1E1F1E1F1F99
:104E30001E1F1E1F01000000D09CBE3308E6D333A6
:104E400000EE02000104000000000000000000006D
:104E50000000000001000000000000000000000051
:104E600003000000881300000000000000000000A4
:104E70000000004000000000081C3044586C800016
:104E80000000AA0E01000000D09CBE3308E6D33318
:104E900000EE02000104000000000000000000001D
:104EA0000000000000000000010000000000000001
:104EB0000000000003000000881300000000000054
:104EC000000000000000004000000000FF00000F94
:104ED000FF00000000000000303132333435363737
:104EE00038394142434445464748494A4B4C4D4E68
:104EF0004F505152535455565758595A00000000BC
:104F0000303132333435363738396162636465663F
:104F10006768696A6B6C6D6E6F70717273747576A9
:104F20007778797A00000000584F000800000020D0
:104F3000B0000000CC45000808500008B000002078
:104F4000A8160000DC45000800000808000008085A
:104F50005C000000DC4500080000000000000000CC
:104F600065330008A5350008793600083137000898
:104F700085370008000000000004005000040050C5
:104F8000000000500004005000040050BB3B00082B
:104F90001132000821330008153B00085D39000874
:104FA0001939000880841E00000000000000000085
:104FB00000000000000000000100000000000000F0
:104FC000FFFFFFFF000000000000000000000000E5
:104FD000004F0008D84E000802000000E700100053
:104FE000200300000000000000000000000000009E
:104FF0004D4F44554C4154494F4E204C494220524C
:0850000045563A31323300003D
:04000005080000C12E
:00000001FF
