:020000040800F2
:10000000F8260020D5000008F178000821530008E8
:1000100000000000000000000000000000000000E0
:1000200000000000000000000000000015A0000813
:100030000000000000000000BB7A0008F9C00008C2
:10004000E7000008E7000008938C0008E7000008BC
:10005000E7000008C91F0008D91F0008E91F0008B1
:10006000E7000008E7000008D11D0008DD1D0008BA
:10007000E7000008E7000008E7000008E7000008C4
:10008000E7000008E7000008E700000800000000A3
:10009000E7000008E7000008E7000008E7000008A4
:1000A000E7000008E7000008E7000008E700000894
:1000B000E70000082D8C000800000000E7000008A1
:1000C0000348854600F05EFD0048004719DA000845
:1000D000F82600200448804704480047FEE7FEE772
:1000E000FEE7FEE7FEE7FEE781C20008C100000868
:1000F00030B50B46014600202022012409E00D46C0
:10010000D5409D4205D31D469540491B2546954047
:1001100040191546521E002DF1DC30BD70B500248B
:100120002546002801DA01244042002901DA012590
:100130004942FFF7DDFFAC4200D04042002C00D026
:10014000494270BDF0B51FB40646002082B0054696
:100150004024019100901BE0019922460F46304651
:1001600000F0DAFB049A059B801A994110D31046DF
:100170001946224600F0C0FB361A8F4101972246ED
:1001800001200021009F00F0B7FB38184D4100907E
:100190002046641E0028DFDC019B00982946324679
:1001A00007B0F0BD0549064A08685043054A801863
:1001B00008604008704701490860704750010020FE
:1001C0006D4EC6413930000003460B439B0703D0F8
:1001D00009E008C9121F08C0042AFAD203E00B780C
:1001E0000370401C491C521EF9D27047D2B201E084
:1001F0000270401C491EFBD270470022F6E710B582
:1002000013460A4604461946FFF7F0FF204610BD84
:10021000421C0178401C0029FBD1801A704703461C
:100220000A780270401C491C002AF9D11846704710
:100230000321001D401E037812021A43491EF9D5FE
:1002400010467047F8B502464A40D40F42004B00B2
:1002500052085B089A4202D20246084611464A00FA
:1002600023D0C30D4A00DDB2120EAD1A202D35DAAF
:1002700049020126490AF6058A19002C00D052428B
:1002800020214F1B1146B9402A411018C20D9A4235
:1002900021D0002C17D0012D08DCDA05801AD20FEE
:1002A0008019D207DBB200F063FBF8BDDA05801AD3
:1002B000012340001B06C01880185A428018CA0F3C
:1002C0001043490007E04908C2071143DA05801AC4
:1002D00080194008801800F043FBF8BD610001223E
:1002E000511A001BF7E70122D2075140AAE7012269
:1002F000D2075040A6E7024670B54A40D30FDB074D
:1003000040002DD04A002AD0010E140E0002120225
:100310000919400A520A8418E50104465443000AA8
:10032000120A2E045043A4194219200CC543AA18DE
:10033000120C0125AD03521C521912047F392404FA
:1003400000D0521C104301D44000491EC2B20C061A
:10035000C0092018401C4008802A02D003E0002079
:1003600070BD40084000002900DA0020184370BD2D
:1003700070B502464A40D50F40004A00ED074008DC
:100380005208002814D0002A12D0C40DD30D410207
:100390000120C0055202490A520AE41A091812182B
:1003A0007D34914201D3641C00E04900002C01DA45
:1003B000002070BD0023914201D3891A03434008F5
:1003C00049000028F7D100290AD0914202D1012129
:1003D000C90705E0914201D2012101E00121C94391
:1003E000E005C018401900F0BBFA70BDF0B5074633
:1003F0000846584087B0C00F049048000E46590088
:1004000040084908BC1A884105D2384631461E4684
:1004100017460B4602465800400810434CD0300D9A
:10042000039040055900400D490D0590401A029077
:10043000402872DA18030121000B090508430190D6
:1004400004980092002805D001995242002088416A
:1004500000920190029840210A1A0199009800F038
:100460004BFA05460C466B4607CB00F066FAC019FE
:100470007141039A0E0D0023D71756401A467A4051
:10048000164344D0049A002A2DD0029A012A039AD6
:1004900015DC1205C01A914101263605001C714178
:1004A000D20F059ED2070093019202962A46234658
:1004B00000F0A4FA07B0F0BD38463146FAE7160559
:1004C000224A0F46B218C01AB74101210905001C83
:1004D0004F4100187F41114618187941E20F10432F
:1004E0006D19644113E0E2076D0815436408C20703
:1004F0001443039A01261205C01A91413605001CC7
:100500007141CE07400830434908C01851412A467E
:10051000234600F066FACDE7FFE704980122400089
:10052000C117121A00238B4104983146C417381A98
:10053000A141EEE730B40124E407634030BC55E745
:1005400030B40124E407614030BC4FE70000E0FF15
:10055000F0B51FB488B00B99099800244840099958
:10056000C00F490049080991C0070B990090490044
:1005700049080B9109990898A64608431CD00B9985
:100580000A98084318D0099801244000420D4800F9
:10059000410D099824050003000B204309900B9896
:1005A0000003000B20430B9050181C4940180022F8
:1005B00001901446104605E0002001460DB0F0BD44
:1005C000032801DA034600E003239C46C11A0AAE61
:1005D0000AE05F0008ADED5B4F00F75B7D4300274D
:1005E000AA187C41491C5B1E6145F2DD410004AB49
:1005F0005A522104120C0A43240C401C0828DFDB49
:10060000019802900099704601910090059B049A10
:100610000799069800F0F2F9D0E700000DFCFFFF03
:10062000F0B50C465C4085B0E40FE40703944C0041
:10063000002664085900944649080246029622435F
:1006400021D062460A431ED06200570D4A000E03B5
:100650002303550D012402462C492405781B1B0B4E
:10066000360B401823432643614600901C46501A1F
:10067000B44103D30098401C009002E09218009807
:100680005B41002803DA0020014605B0F0BD0020E0
:10069000012109050746864611E064461D46141BE4
:1006A000B54106D36546521BB341744607430C431C
:1006B000A646CD0740084908284392185B410546E5
:1006C0000D43EAD11046184313D0604619465040F6
:1006D0007140084306D06046101AB34106D2012289
:1006E000002306E000220123DB0702E00122D243BF
:1006F0005310009874460105381C6141029C039D0B
:100700000019694100F06DF9BFE70000FD0300002A
:1007100070B54B005B0803430BD04B005C0D00260B
:1007200033466542B341D417AD1AA34102DB002022
:10073000014670BD12053018514170BD10B5002240
:100740009623114600F014F910BD00000EB5C21733
:10075000C10F5040CA0740180021054B0293019277
:1007600000910A460B4600F049F903B000BD0000B5
:10077000330400000EB505490291002100910A469C
:100780000B46019100F03AF903B000BD33040000BC
:10079000C20F410040020123400ADB05D207090EC7
:1007A000C0187F2901DA00207047962903DC9623C0
:1007B000591AC84001E096398840002AF4D04042D6
:1007C0007047410040020122400AD205090E8018FC
:1007D0007F2901DA00207047962903DC9622511AFE
:1007E000C8407047963988407047000070B5CD0FFB
:1007F0004A0009030123090B1B0519430B4BED07A5
:100800000024520D9A4201DA002070BD074B3433A8
:100810009A4203DC9A1A00F07FF802E0044951186A
:1008200088402C43F1D0404270BD0000FF0300001F
:10083000CDFBFFFF4A0009030123090B1B051943E8
:10084000094B10B5520D9A4201DA002010BD064B3B
:1008500034339A4203DC9A1A00F05EF810BD034963
:100860005118884010BD0000FF030000CDFBFFFFC2
:10087000C20FD207400040080BD0C10D0723DB0197
:10088000C91840020905400A1143C2084007114334
:10089000704700200146704710B5002904DB012491
:1008A000E40740428C412146002B04DB1C46012317
:1008B000DB075242A341994200D1904210BD000093
:1008C000CB0FDB07490010B5490802460A4307D0A1
:1008D0000A0D07240903E401090B121B002A01DC9D
:1008E000002010BDC900440F0C43C100E018D20520
:1008F000801800F035F810BD10B5202A04DB014641
:10090000203A9140002010BD914020239C1A0346BC
:10091000E3401943904010BD10B5202A04DB08467F
:10092000203AD040002110BD0B46D340D0402024B7
:10093000A21A91400843194610BD10B5202A06DBC3
:10094000CB170846203A1041C1170B4306E00B466F
:100950001341D0402024A21A91400843194610BDEB
:10096000002904DA401C490001D1400840007047CA
:1009700070B40024050C05D11024000402D1002914
:1009800021D01124050E01D100020834050F01D138
:100990000001241D850F01D18000A41C002801DB6B
:1009A0004000641C002908D020252E1B0D46F54070
:1009B000A14000D001212943084301061B1B000A66
:1009C000DB1D02D5002070BC7047DB0518188018AD
:1009D0000029F8DA401C4900F5D170BC40084000FD
:1009E000704710B5002B08DA0024401C61419218B2
:1009F0005B411A4301D14008400010BDF0B51FB45F
:100A000082B005460C0003D008460CF001F902E064
:100A10000CF0FEF820300246009021462846FFF7F1
:100A20006BFF049B059A04460F4618431143084385
:100A300014D0184610431BD0009840210A1A1846BB
:100A40000599FFF769FF05460E46009A0599049837
:100A5000FFF752FF084305D0012004E02046394645
:100A600007B0F0BD0020C11705430E432C433743A8
:100A700000990E986305401A7905E40A00220C4398
:100A8000FD0A0A3002D500200146E9E701051019E8
:100A900069410C9C0D9D00196941FFF7A2FFDFE73A
:100AA000F8B50546480040080C46284304D06000CD
:100AB000184A400D904201DD2846F8BD15493539E8
:100AC000884210DC88420BDB290D200308432903F0
:100AD000014305D0E00F1049C00741180020F8BDC0
:100AE00000200146F8BD161A4020821B28462146E8
:100AF000FFF702FF07460091284621463246FFF7DE
:100B00000BFF3A46009BFFF76CFF3246FFF7F4FEFF
:100B1000F8BD0000330400000000F03F4A00090364
:100B20000123090B1B0519430A4B10B5520D9A42BC
:100B300002DA0020014610BD064B34339A4203DC32
:100B40009A1AFFF7E9FE10BD034BD218FFF7D4FE47
:100B500010BD0000FF030000CDFBFFFF10B5002912
:100B600004DB0124E40740428C412146002B04DBD6
:100B70001C460123DB075242A3418B4200D1824233
:100B800010BD0000064C0125064E05E0E36807CCC9
:100B90002B430C3C98471034B442F7D3FFF794FA38
:100BA0006CE900089CE9000870B58C180578401CB9
:100BB0006B075B0F01D10378401C2A1106D1027824
:100BC000401C03E006780E70401C491C5B1EF9D1E6
:100BD0002B0705D40023521E0DD40B70491CFAE7D5
:100BE0000378401CCB1A921C03E01D780D70491C41
:100BF0005B1C521EF9D5A142D8D3002070BD000065
:100C000038B50446064805490068FFF771FA6043A5
:100C100000E0401E00900028FBD138BD40420F008C
:100C20004C000020F8B50446006881688907890FE8
:100C3000012902D10168C90722D18168114A102611
:100C40001140012500290ED18168294381600120CE
:100C5000FFF7D6FF01F04CFF07460CE001F048FF1C
:100C6000C01B0A2807D9A06D3043A065E06D28435A
:100C7000E0650120F8BD20680068C043C007EDD1E1
:100C80000020F8BD17000080F0B589B00C4607467B
:100C90001022002168460CF04BFF694622460846A8
:100CA0000CF05DFC6846007887260106684600293E
:100CB0000FDA00214318425C5B785200DB091A43CB
:100CC0004254491C0F29F5DBC17B024649007140A3
:100CD0000DE000214318425C5B785200DB091A43A7
:100CE0004254491C0F29F5DBC17B02464900D173F0
:100CF000E21DF9325169102912D0017809061BD57D
:100D000000214518435C6D785B00ED092B4343548B
:100D1000491C0F29F5DBC17B03464900714019E0EE
:100D200000216218FF3201325378455C491C6B4048
:100D300053701029F5DB26E000214518435C6D78DF
:100D40005B00ED092B434354491C0F29F5DBC17BA4
:100D500003464900D973E11D55698023FA316B546C
:100D6000002500E05D5453695B1C5361102BF9D3DF
:100D700000216218FF3201325378455C491C6B40F8
:100D800053701029F5DB002162181046FF32E03065
:100D90000132437C5278491C534043741029F3DBE1
:100DA00021461022F13104A80CF0AAFE2246394651
:100DB00004A80CF0D4FB1022002168460CF0B8FE09
:100DC00009B0F0BD10B5044610220021F1300CF03E
:100DD000AFFEFF20002115300151F02220460CF01B
:100DE000A7FE10BD0B4610B50246102118460CF0A8
:100DF000E1FB10BDF0B50446FF308BB00F4601306B
:100E00000890E11D4069FA310091103915460791AB
:100E1000002843D010210E1AAE4200D31646009986
:100E2000B2B2401839460CF06BFE08980899406938
:100E30008019486110283AD3B54238D00021621891
:100E40001046FF32E0300132437C5278491C534057
:100E500043741029F3DB0799224608460CF07FFB08
:100E6000BF19AD1B1AE000202118E0314A7C3B5C21
:100E7000401C5A404A741028F6DB102202A8079939
:100E80000CF03EFE02A9224608460CF068FB102238
:100E900002A907980CF034FE103D1037102DE2D84F
:100EA000AAB2394600980CF02BFE089845610BB0A9
:100EB000F0BD000038B50F49887C4A7C904218D2BA
:100EC000401C8874C00714D022206946094C087061
:100ED0008034FF2160682D310A5C69468A70F921EF
:100EE0000A5C69464A70007808F0D0FD6168E0311C
:100EF000487638BD4407002000B5074885B08278A1
:100F000006A168460BF070FEFF222D3207A168464D
:100F100000F02CFB05B000BD1801002041542B51FE
:100F2000494143543D25640D0A0000004F4B000029
:100F300010B5FF2201462D3201A000F05FFB10BD6D
:100F400041542B4350494E3F0D0A0000F8B5064668
:100F500003F0B6FE044603F0B3FE0125FF272D374C
:100F600017E0FFF71FF9C821FFF7D8F808466430EB
:100F700001F0BCFC3A460CA10EA000F0F7FA0546C1
:100F80003A460FA10FA000F0F1FA03F099FE002DF0
:100F900002D0011BB142E4D3001BB04201D30220B6
:100FA000F8BD2846F8BD00002B43474154543A2071
:100FB0003100000041542B43474154543F0D0A0077
:100FC0004F4B00000000000000B5074885B0827854
:100FD00006A168460BF008FEFF222D3207A16846E5
:100FE00000F0C4FA05B000BD1801002041542B5197
:100FF0004944454143543D25640D0A004F4B0000D0
:1010000070B5164801688901CA0F1549002A1DD01C
:10101000144B9A7984580225AC43845042680402E8
:10102000224342608C694A691219D417640EA418CD
:10103000E409E401121B4A619A7983585B085B005A
:1010400083500948826880239A438260486909690D
:10105000884201D000F076F970BD00000000024027
:10106000CC140020CCE8000800480040EFF31081C9
:1010700072B6054AD368D05C5B1C5B075B0F81F3DB
:101080001088D360704700004C140020F8B5304C35
:10109000E0694006C00F09D020684006C00F05D0A7
:1010A000402020620021202004F066FE00200090F5
:1010B000E0690125C002C00F09D0A0684002C00F3E
:1010C00005D0280520620121102004F055FEE069BA
:1010D00001268006C00F00280AD020688006C00FB5
:1010E00006D0606A0021C5B21020009604F044FECC
:1010F000E069C007C00F0BD1E0698007C00F07D1BE
:10110000E0690007C00F03D1E0694007C00F09D0B4
:10111000266202202062082020620420206201252D
:10112000009602E00098012811D10A4881684554D0
:1011300081688268491C4907490F8A4201D0816051
:1011400002E082680D218154002008F093FEF8BD72
:10115000004800404C140020F0B53D4E91B0B06BFB
:101160000127BF043843B06378110090022001903A
:101170000620049001250024052069460395029469
:10118000000701F0EDFBA803009005206946000769
:1011900001F0E6FB2E49EA024031C86803239B02B6
:1011A00098431043C860B06B3843B06300220221FB
:1011B0001D2001F0BDFE1D2001F0A2FE4B20C0014C
:1011C0000A900C20234E0E900B940C940D940AA9B7
:1011D0000F94304604F0B6FA3068022108433060BC
:1011E000306828433060F0698002C00FFBD0F0699E
:1011F0004002C00FFBD03068202108433060B06847
:1012000009040322120590430843B060B068490006
:101210000843B06030688F1338433060B0682843AB
:10122000B0600D49002008F0CDFD78010590032045
:1012300008900695079405A9084801F091FB052040
:1012400005A90007059701F08BFB11B0F0BD000068
:1012500000100240004800408913000800040050BC
:10126000EFF3108172B605488268C068824201D0EF
:10127000012000E0002081F3108870474C1400200A
:1012800010B5044A01211170014664220248FEF79C
:101290009BFF10BD18010020F814002070B50A2033
:1012A00001F024FB01221E4E54032146304601F07A
:1012B00019FCFF25F535284601F018FB00222146D0
:1012C000304601F00FFC0A2001F010FB0122052638
:1012D000140236072146304601F004FC284601F08E
:1012E00005FB00222146304601F0FCFB0D4A0EA111
:1012F0000EA000F03BF9002810D16C0022460CA192
:101300000CA000F033F9002808D100F077F800288D
:1013100004D1224606A109A000F028F970BD000002
:101320000004005010270000524459000000000043
:101330004F4B000041540D0A00000000415445305D
:101340000D0A0000F8B5EFF3108672B60D4C206957
:10135000012187B2A08A85B2202004F00DFD20462D
:101360008038AF4201D9791B01E08021491BA1617E
:10137000A169401989B2103000F074FA86F3108820
:10138000F8BD0000CC140020F8B51A4F00261A4C06
:101390000FE0FFF76BFE6168012878540ED00D282E
:1013A00012D00A2810D03E2811D063291CD0491C25
:1013B0006160FFF755FF0128EBD0F8BD0D4861686B
:1013C000FEF71BFF6660F8BD0029F2D07E54666010
:1013D00060780D46002802D00648FFF751FF2946E5
:1013E0000448FEF70AFFE4E70248FEF706FF6660DE
:1013F000DFE70000E81300201801002010B5FF22ED
:101400002D3202A102A000F0B1F810BD4F4B000038
:1014100041542646300D0A0000B58DB00B460246F9
:1014200005A168460BF0E0FB094A0AA1684600F0F6
:101430009DF80DB000BD000041542B434F50533D6B
:10144000312C322C222564222C25640D0A00000048
:1014500020BF00004F4B00000FB4F0B53B4CA1B0D3
:10146000E26827AB00261D46002A13D021466846B5
:10147000FEF7AAFEE168684608182B468021269AE6
:101480000CF0A6FDE1680D180A212046FEF7B5FE16
:10149000E66005E080216846269A0CF099FD054635
:1014A0002A4C1C3C206961698027401A8030C11792
:1014B000490E0918C909C901401A3E1A16E001204F
:1014C00001F014FA20696169401A8030C117490E91
:1014D0000918C909C901401A3E1A72B60B2001F059
:1014E00019FD012801D1FFF78BFD62B6B542E6DC9C
:1014F0002069164E40198C3E8028206908DA801930
:101500002A466946FEF760FE2069401920610FE017
:10151000381AC7B220693A4680196946FEF754FE68
:101520006846ED1BC1192A463046FEF74DFE25617F
:101530000848074980790858C007C00F01D1FFF754
:1015400001FF21B0F0BC08BC04B01847E81400202B
:1015500000000240CCE8000810B50446FEF758FE33
:10156000002802D02046FFF777FF10BDF7B51746D9
:10157000FFF7F2FF184C0120607003F0A1FB064654
:1015800001E008F02BFC03F09BFB054620780028C7
:1015900002D1A81BB842F4D30020207060700F481D
:1015A00001990AF013FD002801D00020FEBDA81B00
:1015B000B84207D30AA00CF0F3FD0BA00CF0F0FD2D
:1015C0000220FEBD054909A0019A0CF0E9FD06A024
:1015D0000CF0E6FD0120FEBD18010020F8140020EB
:1015E00054494D454F5554000D0A00004552524F85
:1015F00052205F25735F257300000000F8B5164682
:101600000F46FFF7A9FF114C0120607003F058FB53
:10161000054601E008F0E2FB03F052FB21780029C7
:1016200002D1411BB142F5D300212170401B6170F2
:10163000B04204D306A00CF0B3FD0220F8BD064969
:101640003846FEF7ECFD0020F8BD00001801002030
:1016500054494D454F555400F814002000B589B049
:10166000024606A168460BF0BFFAFF222D3207A101
:101670006846FFF77BFF09B000BD000041542B43D3
:101680004D45453D25640D0A000000004F4B00000C
:1016900010B51F4C010013D001291AD0022928D0FF
:1016A000032825D122461BA11BA0FFF75FFF22467E
:1016B00018A120A0FFF75AFF224616A124A015E08A
:1016C000224614A129A0FFF751FF224611A12EA006
:1016D00007E022460FA133A0FFF748FF22460DA1E5
:1016E00037A0FFF743FF22460AA13CA0FFF73EFFC9
:1016F00010BD224607A140A0FFF738FF224605A1F2
:101700000CA0FFF733FF224602A142A0EEE7000043
:101710002C0100004F4B000041542B514346473DE4
:10172000226E777363616E736571222C30332C31B6
:101730000D0A000041542B514346473D226E7773FA
:1017400063616E6D6F6465222C332C310D0A0000CD
:1017500041542B514346473D22696F746F706D6F42
:101760006465222C312C310D0A00000041542B51AC
:101770004346473D226E777363616E736571222C19
:1017800030302C310D0A000041542B514346473D67
:10179000226E777363616E6D6F6465222C302C311D
:1017A0000D0A000041542B514346473D226E77738A
:1017B00063616E736571222C30312C310D0A00008B
:1017C00041542B514346473D226E777363616E6DE2
:1017D0006F6465222C312C310D0A000041542B51CD
:1017E0004346473D22696F746F706D6F6465222CAC
:1017F000322C310D0A00000041542B514346473D25
:10180000226E777363616E736571222C30322C31D6
:101810000000000041542B514346473D22696F743C
:101820006F706D6F6465222C302C310D0A00000042
:1018300000B589B0024606A168460BF0D5F9FF2233
:101840002D3207A16846FFF791FE09B000BD0000E8
:1018500041542B435245473D25640D0A00000000CA
:101860004F4B000070B51F4A8CB0146B01231C4312
:101870001463126B80251A400B92102202921A4AAE
:101880000092002206920492039201900595052091
:10189000164C079208910A9209906A460721204641
:1018A00003F0F2FE124EB07921580222114321506A
:1018B000002202210B20193E01F03AFB0B2001F01F
:1018C0001FFB09482838816829438160F17F6258ED
:1018D00001231A43625001684022114301600CB099
:1018E00070BD000000100240284800400000024087
:1018F000CCE8000830B505460F488FB0C2780FA17C
:1019000068460BF071F9FF242D3422460FA168467A
:10191000FFF72CFE00280DD12846FFF71DFE7D2283
:10192000D2000BA10BA0FFF721FE22460AA108A0BE
:10193000FFF71CFE0FB030BD1801002041542B51A1
:101940004953454E443D25640D0A00003E00000009
:10195000000000001A00000053454E44204F4B0089
:1019600010B592B0009001910B480CA1C378827819
:1019700002A80BF039F9FF242D3422460FA102A84A
:10198000FFF7F4FD002804D122460DA10EA0FFF7B9
:10199000EDFD12B010BD00001801002041542B5184
:1019A000494F50454E3D25642C25642C225544500A
:1019B000222C222573222C25640D0A004F4B000097
:1019C0002B51494F50454E000000000000B507481C
:1019D0008FB0C27806A168460BF006F9FF222D32BF
:1019E00007A16846FFF7C2FD0FB000BD1801002037
:1019F00041542B5149434C4F53453D25640D0A003A
:101A00004F4B000010B502221449012386B0002874
:101A10001ED0012804D002281AD0032807D117E0CD
:101A2000CA6A1A43CA62C96AC907C90F0591410047
:101A30000B4A8000515A0091002102910321039129
:101A4000084901930858694600F08AFF06B010BDA6
:101A5000CC6A1443CC62C96A1140E7E70010024027
:101A600074E300082400002010B5054A4100515AD3
:101A7000044A80001058002201F034F810BD000024
:101A800074E300082400002010B5054A4100515AB3
:101A9000044A80001058012201F024F810BD000013
:101AA00074E30008240000207047000000231A4659
:101AB00019460EC0024901600249416070470000AA
:101AC0000D093E00AB030500FFB510250446455740
:101AD000112087B0205606900A98A16801606079AD
:101AE0000027012840D1022168460173A17C81733F
:101AF000E07C03A907F0CAFF46B2B54200DC3546D8
:101B0000B54203D10A98002101602DE0A089A168A7
:101B1000814200D30127E2898018884224D8082016
:101B200069460873E07C03A907F0B0FF40B2069055
:101B3000E189A068FEF7DCFA012915D12221684667
:101B400001734573A17C8173E07C03A907F09EFFBC
:101B500045B2B54208D120790027012804D1694651
:101B60000871E07C07F09CFF0898057009990698B9
:101B7000087038460BB0F0BDFEB51C4CFF22616802
:101B8000D532525C00250126002A6A462CD01670F8
:101B9000FF223E32535C6A469370FF31D070813130
:101BA000C86C0AF097FC114F0190803FB8696A46F3
:101BB000029055706078400706D5002004F038FB8D
:101BC000002801D06846467060686946007807F0D2
:101BD00083F8FF226168C332B869525AFF31424329
:101BE000101A81318864FEBD1570D1E7C40700204A
:101BF0000449896C002903D08968002900D008476E
:101C00007047000044060020FFB587B0109E1C46B8
:101C10000F0005460CD0002E0AD017480490FFF79D
:101C2000D1F805A9204600F023FB040003D020E0F2
:101C300002200BB0F0BD05990498491CFFF7D2F8BB
:101C4000002D04D0102229460498FFF7D3F8394616
:101C5000099A0498FFF7CEF868460499FFF714F83C
:101C600000A80130FEF7E4FA69460978000208434B
:101C700030602046DDE70000900D0020F0B587B011
:101C80009C460C4605000F9F0C9B0D990E9816461E
:101C900008D0002F06D0FF220132944204D90E2032
:101CA00007B0F0BD0A20FBE703AA02920091019061
:101CB00062463146204605F001FF3346224629465A
:101CC00003A8009709F07EFE0028E9D00F20E7E77F
:101CD000FFB5002085B0009005460646019000241F
:101CE000770007980121C05BA14008422FD0281936
:101CF0000C2203905043089A1258002A27D0059AC4
:101D0000002A01D1490722D00899411808200291E0
:101D10000856021100070117069840B207F0CFF9E4
:101D2000002814D00298407A01010E980818C06863
:101D3000002804D00198401CC0B2019007E0009A2E
:101D40000F99039888540098401CC0B20090641CFE
:101D5000E4B2102CC5D31035761CEDB2F6B2102DBE
:101D6000BDD3109901980870009809B0F0BD00002B
:101D700030B587B014216846FEF73FFA0320019082
:101D80000020029003204003104C0090E06A0121E3
:101D90000843E062E06A08400590052069460007B4
:101DA00000F0DEFDE06A40084000E062606B012563
:101DB000AD052843606300F0D7FC00F0E5FC00F0BF
:101DC000DBFC606BA843606307B030BD00100240CD
:101DD00010B503F0B3F808F0D1F810BD10B5FFF757
:101DE0000FF910BD7FB5044600290BD000200090EC
:101DF000019002900390032C06D0042C06D00B20F7
:101E000004B070BD0A20FBE7062000E005206A460A
:101E1000107000A8082201300BF07DFE0B4823460D
:101E200040680222044625786946284665782D02D6
:101E30002843A578E4782D0428432406204309F09C
:101E4000CBFD0028DCD00F20DAE70000180B0020C3
:101E5000F0B585B01E4617460546002913D0002F61
:101E600011D0002E0FD0002000900190029003901E
:101E7000052D0AD0062D08D0072D06D0082D06D036
:101E80000B2005B0F0BD0A20FBE7012000E0022096
:101E90006A4610706C460322601C0BF031FE032270
:101EA0003946201D0BF02CFE02223146E01D0BF0BE
:101EB00027FE0B482B4640680222044625786946D7
:101EC000284665782D022843A578E4782D04284318
:101ED0002406204309F080FD0028D2D00F20D0E74F
:101EE000180B0020FFB585B017460546002915D010
:101EF000002F13D00898002810D000200224009052
:101F0000019002900390052D0AD0062D0AD0072DCE
:101F100031D0082D31D00B2009B0F0BD0A20FBE7ED
:101F2000012000E003206A4610706E460322701CF8
:101F30000BF0E6FD08223946301D0BF0ECFD0222C5
:101F400003A808990BF0DCFD0D48224640682B469B
:101F5000044625786946284665782D022843A578E9
:101F6000E4782D0428432406204309F035FD002899
:101F7000D2D00F20D0E70420D5E700240220D2E7FA
:101F8000180B002000280BD0002909D0027B20303C
:101F90001307002B06D00378002B03D000200EE09F
:101FA00003207047037A002B03D0120703D01720B9
:101FB0007047012003E00078002803D00320087058
:101FC000002070470220FAE710B5012000F0BCFCA9
:101FD000022000F0B9FC10BD10B5042000F0B4FCE4
:101FE000082000F0B1FC10BD10B5102000F0ACFCD2
:101FF000202000F0A9FC402000F0A6FC802000F08A
:10200000A3FCFF20013000F09FFC0120400200F003
:102010009BFC0120800200F097FC0120C00200F030
:1020200093FC0120000300F08FFC0120400300F02E
:102030008BFC0120800300F087FC0120C00300F02E
:1020400083FC10BDFEE70000F0B58BB0119D109C25
:102050009C4696460646002D1CD000200490069013
:102060000790089009900090019002900390012041
:102070006A461070244A5768244A3B68934211D933
:102080006246002A08D0012A06D0022A07D0092079
:102090000BB0F0BD0A20FBE76A46107102E0022394
:1020A0006A46137173466A46537191710B0AD37174
:1020B0000B0C1372090E51729472210AD172210C09
:1020C0001173210E517311493A688A4201D9694648
:1020D000C873002E16D006AB07221021684609F0FF
:1020E0003BFC002801D00F20D2E7002006AB07E020
:1020F00004991C5C09186A5C6240401C6A54C0B2B6
:10210000B042F5D30020C3E7180B00200000010106
:102110000649800009580648091803D0C14203D077
:1021200000207047012070470220704750E40008EB
:10213000702FFCFF38B5174C15482060FF20DD30AC
:1021400060602046143004F075F920610020009092
:102150000F48694608384068007807F08EFCA06098
:102160000098E06020461C3009F064FCA061204625
:10217000243003F035FF206220462C3003F0C2FEED
:10218000A0622046343004F011F82063204638BDA8
:10219000CC070020A809002070B505461446084663
:1021A00004E00178A94204D003F058FAA042F8D123
:1021B000002070BD7FB50A9E089D099C002A0AD0A8
:1021C000002C08D0002E06D003000AF050FD0515A3
:1021D00017191B0724000A2004B070BD6846807BD5
:1021E000012801D003200EE0002903D0032901D0EB
:1021F000012008E0022006E0042004E0052002E0BF
:10220000062000E007202070D289C0B2334629465C
:1022100004F0C8F8E0E70520DEE7000010B5094A41
:102220000021CB00D458844207D89B189B68834276
:1022300003D9C8008018007910BD491CC9B21529FE
:10224000EFD3FEE7C0E2000810B5084B002294006F
:102250001C5D844204D19000C0180860002010BDAD
:10226000521CD2B2052AF2D30C2010BD80000020EF
:1022700030B500220C4B1124640115015519ED18DD
:102280002D192D7B854208D1100110188B22C01802
:10229000920080180860002030BD521CD2B2182A6B
:1022A000EBD3032030BD00007C0C002010B50029CA
:1022B00009D0154C030062680AF0D9FC0824070D08
:1022C000141A1C2022240A2010BD106908606068BE
:1022D0000146103104E0506908606068014614311D
:1022E000016309E090690860606801461831F7E70A
:1022F000D06900E0106A0860002010BD506AFAE75B
:10230000906AF8E7052010BD180B002038B50B497E
:102310006B464A681146FF3121310C7B9C70587026
:102320000D201870C87F012801D10E201870107878
:10233000194607F0ABFBC0B238BD0000C40700204F
:10234000F8B5054604464035287D0026012808D00A
:1023500001202875206881688907890F01290ED11D
:1023600001E00220F8BD0168C90708D0A06D202156
:102370000843A0650126002028753046F8BDA16DF0
:10238000FF220132914302221143A165C1688907EE
:10239000890F0091C16889088900C160206881683F
:1023A00092071143816000F0A3FB07460EE000F0A6
:1023B0009FFBC01B0A2809D9A06D02218843102168
:1023C0000843A065002028750120F8BD20688068BA
:1023D0000028ECDB2068C168009A1143C160A06D41
:1023E00080088000401CA065C5E70000F8B50646DF
:1023F0000D464036317D01290DD00121317501682E
:102400008A68520709D5816D202211438165002019
:1024100030750120F8BD0220F8BD174B6A68D80559
:1024200047109A42154C8A6A2B6812D05B035B0BEB
:102430001A438A622968490305D5A1680143A1604E
:102440000A20FEF7DDFB2868800312D5A068384318
:102450000EE05B035B0B9A438A622968490302D54D
:10246000A1688143A1602868800302D5A068B843B1
:10247000A06000203075F8BD011000000027014069
:102480000068006C7047000070B5040006D0A06DB5
:10249000264600254036002802D006E0012070BD07
:1024A000E5653575204600F0D1F8A06DC00603D46F
:1024B00021688868400705D5A06D10210843A065F4
:1024C0003575EBE7A06DFF220132904302221043E5
:1024D000A06588688207920F5A48012A02D10A68CB
:1024E000D2072BD1032362689B079A4205D05B4237
:1024F0009A4202D05B009A4209D10A69920092087E
:102500000A6121680A6963681A430A610CE00A6972
:10251000920092080A6181680F22920491438160BF
:1025200081686268114381602168CA6818239A43F0
:10253000CA602168CA68A3681A43CA608168012218
:102540005206914381608168228F52061143816057
:1025500020688168C90004D48168012212071143F0
:1025600081602068C168384A1140C1602169E06813
:10257000022923D000210843216A226B490352001B
:1025800011430843616B0843A16989030843E1696A
:10259000C90308432168CA681043C860A06A01469D
:1025A000FF39C23905D0E16A08432168CA6810437F
:1025B000C860606A0121012802D00BE00421DAE73B
:1025C000206A002823D0A06D20221043A065E06D72
:1025D0000843E065206C012820681FD00169C90705
:1025E00003D0016949084900016120684169C908AF
:1025F000C900416120684169E26B11434161E565B1
:10260000A06D80088000401CA065002070BD20687F
:10261000C26801231B041A43C260DBE70269FF237F
:102620009B009A43026120680269636CE66C1A435E
:10263000A36C33431A430261206802690A430261B2
:10264000D3E70000002701401902FEFF7047F8B5EC
:1026500004464069254640350E4608280BD02068C0
:10266000C068C00709D0A06D20210843A0650020E4
:1026700028750120F8BD082700E00C2700F038FA83
:10268000009011E0701C0FD0002E05D000F030FA41
:102690000099401AB04207D9A06D04210843A065F3
:1026A000002028750320F8BD206800683842E9D072
:1026B000A06D012149020843A0652068C168090591
:1026C0008A0F0C21002A1AD1226A002A17D1026827
:1026D000120714D5826853070122002B08DB4368D8
:1026E0008B434360A06D130298431043A06506E03E
:1026F000A06D20231843A065E06D1043E065A0693C
:10270000002801D1206801600020F8BD70B50446A2
:10271000216800208968490721D425464035297D54
:1027200001291CD001212975E169012904D0204625
:10273000FEF778FA002811D1A16D0A4A1140FF2254
:1027400001321143A1650021E165297522681C2130
:10275000116021688A6804231A438A6070BD0220D0
:1027600070BD0000FEF1FFFF0248416849084900C2
:10277000416070470058014002484168042291437B
:10278000416070470058014002484168022291436D
:102790004160704700580140F8B504460068016880
:1027A00049084900016000F0A3F9002725460646C4
:1027B00020350EE000F09CF9811B7D20C000814295
:1027C00007D9E06B20210843E0632F710320687173
:1027D000F8BD20680068C007ECD12F710120687136
:1027E0000020F8BD70B5002805D003462033597984
:1027F000002902D003E0012070BD002119710221DF
:102800005971046822683749C5680A408168466979
:10281000294305693543294385692943C569294306
:10282000056A2943114321602F492F4C02687831F2
:10283000A24206D18A6A120912018A628A6A406833
:1028400049E0294C1434A24207D18A6AF024A243F9
:102850008A628A6A406800013DE0234C2834A24223
:1028600008D18A6A0F242402A2438A628A6A4068D5
:10287000000230E01C4C3C34A24208D18A6A0F248A
:102880002403A2438A628A6A4068000323E0164C4C
:102890005034A24208D18A6A0F242404A2438A62D7
:1028A0008A6A8088000416E00F4C6434A24208D182
:1028B0008A6A0F242405A2438A628A6A80880005F6
:1028C00009E08A4209D18A6A0F242406A2438A6257
:1028D0008A6A0079000602438A620120587100204A
:1028E00070BD00000FC0FFFF0800024001B5009856
:1028F00002F05AF908BD00000248416882151143F0
:1029000041607047002002400348416801221143A2
:1029100041600020704700000020024005484168E7
:10292000C90705D00449C1600449C160002070474F
:102930000120704700200240EFCDAB89050403025F
:1029400010B501F097FF10BD10B504494A69024265
:1029500002D04861FFF7F4FF10BD00000004014001
:10296000F8B500230124A7E027469F403A4070D0E5
:102970004D68022D01D0122D14D1DD08AD002D18A7
:1029800000952D6A5E07AC46F50E0F26AE46AE40AA
:102990006546B543AC460E697546AE4065462E4366
:1029A000009D2E624D68012D05D0022D03D0112D02
:1029B00001D0122D16D185680326AC465D00AE46C7
:1029C000AE406546B543AC46CE687546AE406546FA
:1029D0002E43866046680D79BE43ED06ED0F9D409F
:1029E0003543456006685F000325BD40AE46AE43F3
:1029F0000D79B446AE07B60FBE4065462E4306605D
:102A0000C6687546AE438D68BD403543C5604D68A8
:102A1000ED0050D52B4D6E6B26436E639E082A4DFC
:102A2000B6007519AC46AD689E07360F0F27B74044
:102A3000BD4305273F07B84201D100271AE0234FC5
:102A4000B84201D1012715E0214FB84202D1022737
:102A500010E030E01F4FB84201D103270AE01E4FBB
:102A6000B84201D1042705E01C4FB84201D1052727
:102A700000E00627B7402F436546AF60184D2E682B
:102A80004F689643FF0300D516432E606E684F686B
:102A90009643BF0300D516436E60AE684F689643F9
:102AA000FF0200D51643AE60EE684F689643BF0242
:102AB00000D51643EE605B1C0A681546DD4000D069
:102AC00052E7F8BD00100240000001400004005031
:102AD00000080050000C005000100050001C005076
:102AE00000040140002A01D0816170478162704773
:102AF00001480068704700005000002070B50400D5
:102B000014D02421204640300546417020680168D9
:102B1000490849000160204600F0BEF900216164C7
:102B200069702163A9702970084670BD012070BDCD
:102B3000403040787047000070B5040006D025464C
:102B4000403568780026002802D005E0012070BDDD
:102B50002E70204600F0A1F92420687020680168DA
:102B60004908490001600F2160680906884321680F
:102B7000086121688A680120C00382438A60E16895
:102B80000129A16808D02122920211432268916094
:102B9000E168022902D005E00143F7E7012122683C
:102BA000C902516021684A680F4B1A434A60216884
:102BB000CA688243CA60616920690843A169090241
:102BC00008432168C860216AE069084321680860F9
:102BD000206801680122114301606664202068704A
:102BE0002663AE70002070BD00800002FFB5054670
:102BF00004464035687883B0202873D10C980028AB
:102C000071D00D9800286ED0287801286AD0012054
:102C10002870FFF76DFF0746012200901923D103AA
:102C2000204602F0A7FC002876D1222068704020C0
:102C3000A870002666640C9860620D9860856663D3
:102C40000E980090019704A90EC9204602F016FCC8
:102C5000002804D0606C2E70042860D05CE0618D88
:102C600009208002FF2905D9FF22228501231B06A6
:102C7000009006E0618D21850090208D0123C2B275
:102C80005B062046049902F063FC009700220421B1
:102C900020460E9B02F06EFC00283DD12068416A60
:102CA000606A421C62620170208D401E81B22185E3
:102CB000608D401E6085002921D1608D00281ED0C6
:102CC00000970022802120460E9B02F053FC002832
:102CD00022D1608DFF2807D9FF22228501231B0600
:102CE000009608E02AE01AE0608D20850096208D8D
:102CF0000123C2B25B062046049902F029FC608DD4
:102D00000028C2D13A4620460E9902F057FC00280E
:102D100007D0606C042802D0032007B0F0BD01206A
:102D2000FBE721682020C86121684A68044B1A40EB
:102D30004A606870AE702E700020EEE70220ECE76B
:102D400000E800FEFFB5054604464035687883B0CC
:102D5000202876D10C98002874D00D98002871D0C6
:102D6000287801286DD001202870FFF7C1FE0746A2
:102D7000012200901923D103204602F0FBFB00281A
:102D800053D1212068704020A870002666640C98FA
:102D900060620D98608566630E980090019704A9A3
:102DA0000EC9204602F09FFB002804D0606C2E70F4
:102DB00004286AD039E0608DFF2805D9FF222285DA
:102DC00001231B06009606E0608D20850096208D6D
:102DD0000123C2B25B062046049902F0B9FB3A46D1
:102DE00020460E9902F011FC002803D0606C0428E4
:102DF0004BD01AE0606A411C6162216800788862E9
:102E0000608D401E6085208D401E0004000C2085D2
:102E100024D1608D002821D00097002280212046F7
:102E20000E9B02F0A7FB002802D0032007B0F0BDE4
:102E3000608DFF2807D9FF22228501231B060096FB
:102E400008E024E021E0608D20850096208D01239C
:102E5000C2B25B062046049902F07AFB608D00281E
:102E6000BDD13A4620460E9902F0A8FB0028BDD1FC
:102E700020682021C16120684268064B1A404260E8
:102E80006970AE702E700020D0E70120CEE70220DE
:102E9000CCE7000000E800FE704770470248016878
:102EA000491C0160704700005000002010B5064822
:102EB0000168022211430160032000F007F800F0CE
:102EC00007F8002010BD00000020024000207047DD
:102ED00010B50948816B02041143816300F03CF88E
:102EE00000F032F80548016808221143016000F043
:102EF00023F801F05DFD10BD0010024000200240EB
:102F0000C106C90E012088400149086070470000D1
:102F100000E100E005490968C206D20E0120904098
:102F2000014201D0012070470020704700E200E01C
:102F300010B504F0DFFC10BD024801680215114312
:102F4000016070470070004002480168421511435B
:102F500001607047007000400248016810229143F0
:102F60000160704700700040094B1A689208920097
:102F700002431A600748026904239A430261012947
:102F800003D040BF20BF20BF704730BF7047000054
:102F90000070004000ED00E0054801680222114386
:102FA00001600448016904221143016130BF704788
:102FB0000070004000ED00E00A4B1A689208920091
:102FC00002431A600848036904221343036101297C
:102FD00006D040BF20BF20BF016991430161704707
:102FE00030BFF9E70070004000ED00E0F8B5664939
:102FF000074601250020ED03624B634A4031102F44
:103000006FD011DC012F77D0022F6CD0042F6BD042
:10301000082F24D1C9680324240321407BD0BD029A
:103020006C10A9427CD0A0E00326584C3604202F17
:103030000BD0402F35D0FF3F012F10D1C968314050
:1030400069D07C04A1426BD096E00B690969012725
:1030500031403F04B94203D1990559E02846F8BDF3
:1030600001256D04A94203D19907F8D54848F8BD58
:10307000B142FCD111688903F9D51168032000051C
:10308000014001200005091A09D0091A05D0814222
:1030900001D14048F8BD2046F8BD3F48F8BD3F4843
:1030A000F8BDC9680125AD06294006D0A942F7D16F
:1030B00091688907F4D53A48F8BD11688901FBD5B4
:1030C000D068D1688002374D000F2D5C0802810F57
:1030D000D068491CC0030AD41068C00605D5204634
:1030E00006E045E008E023E030E0184600E02E4826
:1030F0006843FCF7FDFFF8BDCC68A407A40F0CD013
:10310000022C0DD0012C10D0032CF4D109698905B3
:103110000029A3DBF8BD16E002E000F0D1F9F9E7E1
:1031200011684907F6D51846F4E700F0D9F9F1E738
:10313000CC680C26344006D0082CF1D0042CF4D0F6
:103140000C2CE3D0E6E700F0ABF9E3E7CC6803260C
:10315000B6023440F7D00127FF02BC42E0D07A101B
:103160009442E2D0B442D1D0D4E7A142DDD0D1E73D
:10317000916B4902E7D4CDE7012212049142D4D0E9
:10318000C8E700000024F4000010024000093D00E0
:103190008890000020A1070040420F0080841E009C
:1031A000006CDC0200E4000800127A00F8B5044666
:1031B00000785E4D800672D55C4E0027403EB06BB5
:1031C000C00004D4B06BA9050843B0630127584878
:1031D0000168C90511D40168821511430160FFF728
:1031E00087FC009005E0FFF783FC0099401A6428F3
:1031F00037D84F480068C005F5D532680321090566
:1032000060680A400140914208D08103890F032978
:1032100004D13168890301D50120F8BD2A69032151
:1032200009040A4022D0084090421FD0207880062E
:103230001CD528692A6988430121C9040A432A61E7
:103240002A698A432A612861C0050FD5FFF750FC1F
:10325000009008E0FFF74CFC0099411A3548814284
:1032600001D90320F8BD28698005F3D5616888037A
:10327000800F032805D132680005824301400A43CC
:1032800032602869032261681204114008432861F2
:10329000002F04D0B06B012109078843B063207868
:1032A000C00705D0E868A168800880000843E8608E
:1032B0002078800705D5E8680C218843E168084339
:1032C000E8602078400706D5E86803218902884332
:1032D00021690843E8602078000706D5E8680321E3
:1032E0000903884361690843E8602088C00506D562
:1032F000E868032109048843A1690843E86020784D
:10330000400606D5E868012189068843216A0843FA
:10331000E8602078000606D5E86803218904884320
:10332000E1690843E8600020F8BD00004010024059
:103330000070004088130000F8B5054653480E465B
:103340000068C007C00FB0420AD25048016849085F
:103350004900314301600068C007C00FB0426FD11F
:1033600028784B4C800705D5E068F0218843A96890
:103370000843E0602878C00752D06868022817D058
:10338000032818D02168012818D08905002957DAA8
:10339000E168890889000143E160FFF7A9FB6968DA
:1033A0000746022912D003291CD0012926D033E078
:1033B00021688903EAE721688901E7E74907E5E72A
:1033C000FFF796FBC11B3348814223D8E068000712
:1033D000800F0228F4D123E0FFF78AFBC11B2D48A0
:1033E000814217D8E0680007800F0328F4D117E066
:1033F000FFF77EFBC11B274881420BD8E06800071E
:10340000800F0128F4D10BE0FFF772FBC11B2148AC
:10341000814201D90320F8BDE0680007800FF3D195
:103420001A480168C907C90FB1420BD90168490898
:103430004900314301600068C007C00FB04201D0AD
:103440000120F8BD2878400706D5E0680721090269
:103450008843E9680843E0602878000707D5E068FA
:103460000721C90288432969C9000843E06000F0C8
:1034700037F8E168084A0906090F515CC840074956
:1034800008600320FFF722FD0020F8BD0020024065
:103490000010024088130000F0E300084C000020F8
:1034A000044805490068C968044A4905490F515C48
:1034B000C84070474C0000200010024009E400089A
:1034C000044805490068C968044A8904490F515CE9
:1034D000C84070474C0000200010024009E400087A
:1034E00010B5184AD1680C20084004280BD00828D1
:1034F00010D00C2810D050680004410F0120C003E8
:10350000491C884010BD1068C00601D50E4810BD8A
:103510000E4810BD0E4810BD88020E4B000F185CFF
:103520000902D368890F491CDB0301D5084A05E06D
:103530001268D20601D5044A00E0044A5043FCF761
:10354000D7FD10BD0010024000093D000024F4002A
:1035500000127A0000E40008F8B504460078FF4D38
:10356000C0074CD0E8680007800F022807D0E86841
:103570000007800F032809D1E868C00306D5286832
:1035800080033CD56068002875D038E0012062686F
:103590000004824203D129680143296011E0052318
:1035A00001211B0489049A422A6802D10A432A6035
:1035B000F1E782432A602A68024000922868884323
:1035C0002860606800280DD0FFF792FA0646E44FA5
:1035D00004E0FFF78DFA801BB8427DD8286880038D
:1035E000F7D50CE0FFF784FA0646DD4F04E0FFF75D
:1035F0007FFA801BB842F0D828688003F7D420787F
:10360000800741D5E8681F270007800F3F02012887
:1036100007D0E8680007800F032809D1E868C003D5
:1036200006D42868400717D5E068012823D113E0A5
:10363000E068002817D029680922914301432960D6
:10364000FFF756FA064604E0FFF752FA801B0228FD
:10365000C3D828684007F7D568682169B8430902CC
:103660000843686010E02868400840002860FFF7C1
:103670003FFA064605E090E0FFF73AFA801B022881
:10368000ABD828684007F7D42078C00676D5E8681C
:10369000B44E0007800F0BD0E06900285DD0286889
:1036A000FF21013108432860FFF722FA074644E072
:1036B0002868800502D5E06900286ED0606A6968D4
:1036C0003140884212D905F079FA0028AED16868F5
:1036D000616AB043084300E0E4E068606868218CF8
:1036E0000002000A0906084368600FE06968B143F8
:1036F000014369606868218C0002000A09060843DA
:103700006860606A05F05AFA00288FD1606A410B40
:103710000120C003491C8840E968934A0906090F43
:10372000515CC840914908600320FFF7CFFB25E0BA
:10373000FFF7DEF9C01B02288AD828688005F7D574
:103740006868616AB043084368606868218C000259
:10375000000A09060843686010E02968FF2001306C
:1037600081432960FFF7C4F9064604E0FFF7C0F97A
:10377000801B022884D828688005F7D420787C4EE6
:10378000000723D560690028306910D00121084363
:103790003061FFF7ADF9074605E009E1FFF7A8F949
:1037A000C01B02287ED830698007F7D50EE040089C
:1037B00040003061FFF79CF9074604E0FFF798F9F5
:1037C000C01B02286ED830698007F7D420784007E4
:1037D00061D5A86B0027C00005D4A86B012109079B
:1037E0000843A863012763480168C90511D401682B
:1037F000821511430160FFF77BF9009005E0FFF7A8
:1038000077F90099401A64284CD85A480068C005D6
:10381000F5D5FF20A2680130824203D1316901430E
:10382000316111E001218902002A07D005231B0222
:103830009A4203D132690A433261EFE73269824327
:103840003261306988433061A06800280ED0FFF7EC
:103850004FF9009006E0FFF74BF90099411A4048F4
:1038600081421FD830698005F5D50DE0FFF740F99A
:10387000009006E0FFF73CF90099411A3848814270
:1038800010D830698005F5D4002F04D0A96B012031
:1038900000078143A9632078800630D53649A069A6
:1038A0004A1400E07DE0002816D0AB6801200343F5
:1038B000AB606B6B03436B63086A10430862FFF7EE
:1038C00017F9064604E0FFF713F9801B022868D8B1
:1038D000A8688007F7D512E0A86840084000A860F3
:1038E000086A90430862FFF703F9064604E0FFF711
:1038F000FFF8801B022854D8A8688007F7D4A06A74
:10390000002853D0E9680907890F032950D0012600
:1039100036060228286805D0B0432860FFF7E8F88B
:10392000044640E0B0432860FFF7E2F8074604E0B1
:10393000FFF7DEF8C01B022833D828688001F7D4CF
:10394000216BE06AEA680843616BFD231B049A431C
:1039500011430843E860286830430FE0001002403C
:103960008813000000E00000F0E300084C00002095
:103970004010024000700040000001402860FFF746
:10398000B7F8044604E0FFF7B3F8001B022808D894
:1039900028688001F7D509E0FFF7AAF8001B022884
:1039A00001D90320F8BD28688001F5D40020F8BDB6
:1039B0000120F8BD00688900503008180068704781
:1039C00000688900503008180260704730B5014621
:1039D00020310A78012A15D001220A7002234B7087
:1039E0000468CA23636204685323636203689C68A3
:1039F00020252C439C600068FF2343624A7000200E
:103A0000087030BD022030BD10B508F089FD10BD32
:103A1000F8B5044602202646203670702168CA2078
:103A20004862216853204862204605F016F9FF27B6
:103A3000002842D121680860216827484860206832
:103A400081684907490F8160FFF752F805460BE08E
:103A5000FFF74EF8411B7D20C000814204D9206849
:103A6000476203207070F8BD2068C0684007EFD53A
:103A700020688168002585602168184848612168B0
:103A8000174808612068C561206805622068C56222
:103A90002068C56320684564206885642068C56027
:103AA000206805642068C5642068806880060AD4A0
:103AB000204600F0FBFA002805D020684762042069
:103AC00070700120F8BD20684762204600F008F9B8
:103AD000757035700020F8BD01210000FFFF000067
:103AE000FF007F00F8B505460446203528780128F8
:103AF0001DD001202870022068702268CA20506200
:103B0000226853205062FF2001300026FF278142A7
:103B10001CD121688A6882438A60206881680122FA
:103B2000120391438160FEF7E3FF009009E0022059
:103B3000F8BDFEF7DDFF0099411A7D20C0008142EB
:103B40001BD82068C068C007F3D020E020688168D7
:103B500001225202914381602068816812019143E1
:103B60008160FEF7C5FF00900DE0FEF7C1FF0099F0
:103B7000411A7D20C000814205D920684762032098
:103B800068702E70F8BD2068C0688007EDD5206889
:103B90004762012068702E700020F8BD10B50068E3
:103BA0000B464068C021C94301400002000ECC040E
:103BB000D870E40E5C708C06A40E0904490F9C704A
:103BC0001970002A0AD105F035F8D870587805F038
:103BD00031F85870987805F02DF89870002010BDD5
:103BE00030B50B460168896A596001680969490462
:103BF000490C9960006804680F482146014088021A
:103C00004D04800E18706D0E49065D70490E997056
:103C10006102490E40242140D970002A0AD105F0E2
:103C200009F81870587805F005F85870987805F07C
:103C300001F89870002030BD7F7F7F0070B50400D0
:103C400005D0254620356878002802D006E00120FE
:103C500070BD00202870204600F04CF802206870EB
:103C60002168CA204862216853204862204604F037
:103C7000F4FFFF210028206803D04162042068700F
:103C8000E5E78268154B1A40826022689068636895
:103C9000A669184323693343184390602268E0689B
:103CA00010612068026923891B041A43026120689D
:103CB000C26880239A43C2602068C26C9208920056
:103CC000C264E269606902432068C36C1A43C2643B
:103CD0002068416201206870002070BDBFFF8FFF27
:103CE0000348016901229204914301617047000079
:103CF0004010024000B597B00420009000200A90C8
:103D0000FF20013002906846FFF726FC002801D012
:103D1000FEF798F920200E90C0020F900EA8FFF732
:103D200045FA002801D0FEF78DF908480169012203
:103D3000920411430161002201210220FFF7F8F8EB
:103D40000220FFF7DDF817B000BD00004010024070
:103D5000FEB506460446203630780B46012842D090
:103D6000012030700220707020681D460027203529
:103D70008068002A39D0400655D5187804F05AFFDB
:103D8000287804F057FF197898780904084359787F
:103D9000DA78090212041143084329780906084316
:103DA000D969084359690843054699695868084321
:103DB00000902168CA204862216853204862FF2091
:103DC0005A6A0130802182424AD122689368834333
:103DD00093602268D0680840FF388238D060FEF7D0
:103DE00087FE019029E00220FEBD400600D4DF706E
:103DF000187804F027FF0204587804F023FF00022B
:103E00000243987804F01EFF0243D878000402436E
:103E1000287804F017FF00060243D8690243586966
:103E200002431546C1E7DF70AAE7FEF761FE01997C
:103E3000411A7D20C00081422AD82068C068C0078E
:103E4000F3D02068C56121680098486420688168C3
:103E5000FF2201321143816020688168120130E045
:103E60002068826801235B029A4382602068C268EE
:103E70000A401D495118C160FEF73AFE01900EE05C
:103E8000FEF736FE0199411A7D20C000814206D915
:103E90002168FF204862032070703770FEBD2068E3
:103EA000C0688007ECD520680562216800988864A6
:103EB0002068816801225202114381602068816874
:103EC00012011143816009480268012149040A4333
:103ED000026082680A4382602168FF2048620120F4
:103EE000707037700020FEBD7FFDFFFF00040140B1
:103EF000F8B505460446203528780B46012815D02C
:103F000001202870022068705878002A10D004F030
:103F100091FE987804F08EFED8789E7800040643CF
:103F20005878197800024903084316E00220F8BDCA
:103F3000C10603D5EF2108400A305870D87804F044
:103F400081FE0604587804F07DFE0002064398784E
:103F500004F078FE06431878400306432168CA201F
:103F60004862216853204862204604F076FE00270C
:103F7000002811D110480640206846602068C168BA
:103F800080229143C1602068806880060CD420465E
:103F900000F08CF8002807D02168FF204862042038
:103FA00068702F700120F8BD2168FF204862012051
:103FB00068702F700020F8BD3FFFFF00F8B506467F
:103FC0000446203630780D4601280ED0012030708E
:103FD00002207070206800278068002A07D0400601
:103FE0001AD5287804F026FE17E00220F8BD400616
:103FF00000D4EF70287804F025FE0204687804F0FD
:1040000021FE00020243A87804F01CFE0243E87877
:104010000004024300920BE0EF702978A8780904AD
:1040200008436978EA7809021204114308430090B2
:104030002168CA204862216853204862204604F063
:104040000CFE00281FD1184900980840216808601C
:104050002068816801229204914381602969E8689F
:10406000084321688A68104388602068C1688022FC
:104070009143C1602068806880060CD4204600F01F
:1040800015F8002807D02168FF20486204207070CE
:1040900037700120F8BD2168FF2048620120707050
:1040A00037700020F8BD00007F7F7F0070B50446A8
:1040B0000068C168A0229143C160FEF719FD7D260A
:1040C0000546F60006E0FEF713FD401BB04201D99D
:1040D000032070BD2068C0688006F4D5002070BD44
:1040E00010B50446006C002801D0FEF755FB606C4B
:1040F000002801D0FEF750FB20684168022291435E
:10410000416020684168490849004160012040340D
:104110006074002010BD70B5040006D025464035FF
:10412000687C0026002802D005E0012070BD2E74B6
:10413000204600F033F802206874206801684022AD
:1041400091430160A168606822690843E1681143F6
:104150000843616901220843A169520211400843E2
:10416000E1690843216A0843A16A0843216808609D
:10417000A0690421000C0840616A08432168486076
:104180002168E06A08612068C16992009143C161B9
:10419000666501206874002070BD000038B51C49B8
:1041A0000546486B8A1410434863086B012210438C
:1041B0000863086B1040009000F058FF154C082071
:1041C00060601020A0600020E0608020206140003E
:1041D00060618000A0612020E061000220620E4842
:1041E00020602046FEF7FEFA2C64002211460A20C9
:1041F000A562FEF79DFE0A20FEF782FE0022114610
:104200001920FEF795FE1920FEF77AFE38BD000052
:1042100000100240C412002030000240F8B50446ED
:1042200000276846078026464036707C012802D069
:10423000707C22287ED100290CD0002A0AD0002BC5
:1042400008D0307C012875D001203074707C0128A2
:1042500002D003E00120F8BD322070746765A263CC
:10426000A387E3872163A386E386A764E764012528
:10427000A06A6D03A84207D120680168A9430160C4
:10428000206801682943016020680168490603D459
:1042900001684022114301600121FF20E268C90248
:1042A00005308A42616866D1002904D081420CD170
:1042B000E08E012809D1206B21680088C860206B3E
:1042C000801C2063E08E401EE086E08E002843D1F3
:1042D000A06AA84246D12068016801221203114356
:1042E00001603FE02068C068A16B0880A06B801C63
:1042F000A063B0E0002202212046069B05F0C8FD25
:1043000000287DD1206B21680088C860206B801C4C
:104310002063E08E401EE086E08E002808D1A06A6F
:10432000A84205D1206801680122120311430160EF
:10433000002200E0CCE001212046069B05F0A8FD0C
:1043400000287FD12068C068A16B0880A06B801C0A
:10435000A063E08F401EE087E08E0028CAD160682D
:1043600000287BD1002201212046069B05F090FD0C
:10437000002867D1B6E7002904D081420BD1E08E36
:10438000012808D1206B411C216321680078C86096
:10439000E08E401EE086E08E002845D1A06AA8424B
:1043A00005D1206801680122120311430160002237
:1043B00001212046069B05F06BFD002842D12068B4
:1043C000C068A16B087046E0002202212046069BCF
:1043D00005F05EFD002835D1206B411C216321686A
:1043E0000078C860E08E401EE086E08E00280AD18A
:1043F000A06AA84207D1206802680121090300E0F1
:1044000020E00A430260002201212046069B05F0BD
:104410003FFD002816D12068C268A06B411CA16333
:104420000270E08F401EE087E08E0028CCD16068EB
:10443000002813D1002201212046069B05F028FD0B
:10444000002802D00320F8BD08E02068C168A06BF6
:10445000421CA2630170E08F401EE087A06AA84260
:104460000FD1002201212046069B05F011FD0028F6
:1044700002D0606D02210EE02068C06869460880A5
:104480000888012280212046069B05F001FD0028B6
:1044900004D0606D202108436065D3E7012070746B
:1044A000A06AA84211D120688168C943C9060CD40A
:1044B000616D0222114361650168A94301602068B2
:1044C0000168294301603774C4E637740020BAE7F5
:1044D0000220B8E770B504462034237D012B0CD0B0
:1044E0000125257502236375002A08D0042A0AD005
:1044F000082A0CD00C2A11D10DE0022070BD0068F2
:1045000007F023FF0AE0006807F037FF06E00068C5
:1045100007F04CFF02E0006807F063FF65750020BC
:10452000207570BD70B5040005D025462035687D26
:10453000002802D006E0012070BD0020287520462A
:1045400000F00AF802206875211D206807F0C2FEFD
:1045500001206875002070BD0248816B0122114363
:10456000816370470010024010B5044600680022C5
:1045700007F0E0FE2068016A044A114203D1016895
:10458000490849000160002010BD00001111000021
:1045900070B5040005D025466035687A002802D041
:1045A00006E0012070BD00202872204600F026F8A9
:1045B0002420687220680168490849000160606A27
:1045C000002802D0204608F07FF8204608F012F9B3
:1045D0000128E7D0206841680922D2029143416056
:1045E000206881682A229143816020680168012245
:1045F00011430160204608F0CDF870BD7047FFB54B
:10460000064604466036707A83B00D46202858D19D
:10461000002D0CD00598002809D00120A1680003C6
:10462000814207D12069002804D1E80702D0012087
:1046300007B0F0BD307A012843D00120307200204D
:10464000E06621207072FEF753FA0190274640374A
:10465000059838820598788218E0788A401E78821A
:1046600006980090002280212046019B08F0DAF98C
:10467000002818D10120A1680003814202D12069DD
:10468000002812D02168287888626D1C788A00285A
:10469000E3D106980090002240212046019B08F0BB
:1046A000C1F9002808D00320C2E728882168C00586
:1046B000C00D8862AD1CE9E72020707200203072C6
:1046C000B6E70220B4E7000010B5124801780029CF
:1046D0001ED10122027011480F49016000210164BE
:1046E000C161D3078161436082638160C1600162FF
:1046F00007234162C3630261C16204224261016314
:104700000748416B4215114341630448FDF7BCFE65
:1047100010BD00000401002000240140041300200B
:10472000001002407CB51E49064609780020002989
:1047300034D01C484168C9430907FBD41A4C606B4C
:1047400065152843606300211848FDF7F9FD1848F6
:1047500000901848019069461448FDF747FEA014E0
:104760000190694600961148FDF740FE0F48FDF79D
:10477000CDFF0021C9430D48FDF769FF0B48FDF748
:104780007FFE0A4980B20A68936802263343936029
:10479000096803220A60616BA94361637CBD000064
:1047A00004010020007000400010024004130020AB
:1047B000FFFF07000110000010B5094C2078AA285F
:1047C0000CD0FEF7ABF8FEF797F8AA20207058221D
:1047D0000449201DFBF7F8FCFEF796F810BD000019
:1047E0000000080874E80008014600200A0A00D00A
:1047F0000820084A114201D004221043064A1142FF
:1048000001D002221043054A114201D00121084380
:1048100070470000F0F00000CCCC0000AAAA000015
:1048200038B50B231B07C518114B0FD01C152D1BBA
:1048300018D02D1B19D0A542DD6A05D108242543C7
:10484000DD62DB6A234007E08024F8E7DC6A0125AB
:104850002C43DC62DB6A2B40009311601146FEF7AB
:104860007FF838BDDD6A0224E9E7DD6A0424E6E763
:104870000010024010B5FFF7B7FF81000348415810
:10488000002901D00020884710BD000054110020ED
:1048900070B51C4615460E460846FFF7A5FF0A49A7
:1048A000002C0DD080000C50304603F009F804466F
:1048B00000222946FEF73CFB2046FEF721FB70BD97
:1048C000002280000A5070BD5411002010B5D2B2F1
:1048D000FEF708F910BD000010B50648FFF722FFEB
:1048E000011E05D00448054A008B5043FBF700FC2D
:1048F00080B210BD000002446000F81FB80B000039
:1049000003494A690869496A5040484070470000B5
:104910004000F81F70B51148FFF704FF104C01006C
:104920001AD0208B0F4A5043FBF7E2FB05460E4896
:10493000FFF7F8FE68430B49FBF7DAFB618B0522B2
:10494000401A12035043E28B511AFBF7E7FB0F2189
:104950004902401880B270BD0025E8E7000002441B
:104960006000F81FB80B0000000004480F494B6AB4
:104970000A69D218120EC2714B6A0A69D218120C57
:1049800082710A8A8B8CD218120A42710A7C8B8C33
:10499000D21802714A69120EC2704A69120C8270F2
:1049A0008A8A120A4270097D017070474000F81F20
:1049B000F0B587B014216846FBF71FFC224CE06A73
:1049C00001210843E062E06A08400590E06A0225A0
:1049D0002843E062E06A28400590E06A04263043FC
:1049E000E062E06A30400590E06A80273843E06288
:1049F000E06A69463840059003200190002002904B
:104A00001248009005200007FDF7AAFF104800900B
:104A100069461048FDF7A4FF69460F48FDF7A0FF5F
:104A200069460E48FDF79CFFE06A40084000E062DE
:104A3000E06AA843E062E06AB043E062E06AB8433B
:104A4000E06207B0F0BD000000100240FF9F0000D0
:104A5000FFFF00000004005000080050001C005040
:104A600010B5104C88B06078002818D11C21684619
:104A7000FBF7C3FBFFF728FE00F0C8FA00F028F9A7
:104A800000F0A2FBFDF710F805F04CFC684605F0BD
:104A9000D5FB0121402006F043FE0120607008B0E4
:104AA00010BD000004010020F0B587B01421684655
:104AB000FBF7A3FB214CE06A01210843E062E06AB6
:104AC00008400590E06A02252843E062E06A284039
:104AD0000590E06A04263043E062E06A30400590C9
:104AE000E06A80273843E062E06A69463840059012
:104AF000032001900020029011480090052000073B
:104B0000FDF72EFF69460F48FDF72AFF69460E485C
:104B1000FDF726FF69460D48FDF722FFE06A4008D1
:104B20004000E062E06AA843E062E06AB043E0620D
:104B3000E06AB843E06207B0F0BD00000010024038
:104B4000FFFF00000004005000080050001C00504F
:104B500070B50C46054600210448FEF72BFF28607F
:104B600001210248FEF726FF206070BD941100204D
:104B700010B50C46024600210448FEF721FF2246EC
:104B800001210248FEF71CFF10BD00009411002017
:104B900010B50349012008700248FEF739FF10BD27
:104BA000C40000209411002070B5410EC0017D2288
:104BB0000023FBF7C7FA054600F082F8044600E040
:104BC00000BF00F07DF8001BA842F9D370BD30B5DE
:104BD00087B00546694605A800F00AF8840A8005F2
:104BE000800D00F09BF92880204607B030BD000002
:104BF00070B505460C4600222048FEF7F1FF002262
:104C000029461E486668FEF7C9FF002221461B4858
:104C1000FEF7E6FF6068B042F1D1E878184A014635
:104C20005043C01C8308880726D0164968783D2267
:104C30000646504302463C3A7000801EC140880739
:104C4000D10F8918800F4910081AC018A978401E82
:104C500008180D493C2248436178E12351432278EA
:104C60001B015A438918A27810180818074A61686E
:104C70008002511A401870BD0549D7E794110020F1
:104C8000B5050000A0AA990080510100FF030000B3
:104C900050554400032070470148006870470000E9
:104CA000E011002000B587B0694605A8FFF7A0FF16
:104CB0000249096807B0401A00BD0000E011002059
:104CC00000B587B0694605A8FFF792FF07B000BDA1
:104CD00010B5084C207800280AD100F041F8FF21D7
:104CE00001310548FEF7FEFE00F06AF80120207051
:104CF00010BD0000C40000209411002010B50D4C20
:104D00000021042001F038F801200B4940044861DB
:104D100021688868C0040BD5C868C00508D5C86874
:104D200080221040FF388238C8602046FEF76CFEB3
:104D300010BD0000941100200004014010B504468D
:104D4000FFF7B0FF201A032801D9002100E001215C
:104D5000042001F011F8204600F03EF810BD0000DC
:104D600010B51449144886B0002412C01F210160F8
:104D7000846004611149446141600838FEF75EFFB8
:104D80006946CC750120487588750875002205A90B
:104D90000948FFF7ADF80094019404940022694695
:104DA00005480394FFF70AF90348FEF70FFE06B023
:104DB00010BD00000028004094110020FF030000F7
:104DC00010B5044C2046211D1830FFF711FF20605C
:104DD00010BD0000E0110020F0B587B00446142299
:104DE0003F4901A8FBF7F0F93D485038406E00906C
:104DF00000F07EF83B4802993B4A401AA105890D14
:104E0000081887B2A10A68468078534202E08918E0
:104E1000401C80B29942FAD26A461579E122120109
:104E200002E0891A6D1CADB29142FAD26A465479F9
:104E300002E0641CA4B23C393C29FAD292795118A0
:104E40008EB20121890203E07A1A761C97B2B6B2BB
:104E50008F42F9D203E03C3E641CB6B2A4B23C2EB1
:104E6000F9D203E03C3C6D1CA4B2ADB23C2CF9D2AB
:104E700003E0183D401CADB280B2182DF9D269464E
:104E8000C978890769464A7827D01849491E515C74
:104E9000814202D2FBF72CF908461249CA1B10497D
:104EA0002C394A60052252068A618E704C700A467F
:104EB0000D70203210706846C079C8700020C8613B
:104EC000FF2248610132C8604A6208610246084612
:104ED0002438FEF73DFF07B0F0BD04490C31D5E79B
:104EE000E4110020FF03000080AEFEFF18E8000878
:104EF00010B5FF2101310748FEF7F4FD05480168B0
:104F0000C86880221040FF388238C8600249900289
:104F1000486110BD941100200004014010B57D21AE
:104F200007F08DFE4906C009084310BD10B5410EBB
:104F3000C0017D220023FBF705F910BDF0B529481B
:104F4000294B016C284C284D274E274A08681433FA
:104F500028343C355036904201D102201BE0984263
:104F600001D1202017E0A04202D10120400212E02E
:104F7000A84202D1012040030DE0B04202D101203D
:104F8000400408E0184F6437B84202D101204005C0
:104F900001E001204006144F083F78600868904205
:104FA00001D104201BE0984201D1402017E0A0422B
:104FB00002D10120800212E0A84202D10120800328
:104FC0000DE0B04202D10120800408E006496431BE
:104FD000884202D10120800501E00120800678602E
:104FE000F0BD0000FC1100200800024001B582B0B5
:104FF0000020C0430090012301AA02A90248FFF744
:105000000DF9684680880EBDFC11002010B51448CB
:1050100012490160144A134B0021126803E0520840
:10502000491C072901D29A42F9D8C900C16100215F
:10503000816001614161FF22C1600532816242608D
:10504000012201625202826141620548FFF763F862
:10505000002801D0FCF7F6FF10BD00000030014031
:10506000FC1100200024F4004C00002030B585B075
:1050700014216846FBF7C1F802200190029003203A
:105080000390002004906A4608210F48FFF7C8FBF0
:10509000052424076A4640212046FFF7C1FB6A46E3
:1050A00080212046FFF7BCFB01210191CD03029135
:1050B0006A4629462046FFF7B3FB012229462046CF
:1050C000FFF704FC05B030BD0004005038B51248AD
:1050D000006801680122D202914301600F48C16A51
:1050E00001221143C162C06A05241040D503240780
:1050F00000902946204600F007FB6068A8436060E6
:1051000002222946204600F013FB002229462046B1
:1051100000F004FBA56138BDFC1100200010024026
:1051200010B50848046CFEF7DBFF20680168042214
:105130009143016020680168022291430160FFF7FA
:10514000C5FF10BDFC1100200948016801221204AE
:105150001143016001688903FCD5C1688908890091
:10516000891CC160C1680907890F0229FAD17047FB
:105170000010024008B51348016801221143016084
:1051800001684907FCD5016801221206114301603C
:1051900001688901FCD5C16803221143C160C1685F
:1051A0000907890F0329FAD10268012109048A43FA
:1051B000026002680A400092016801229204914351
:1051C000016008BD001002407FB50120134C80072C
:1051D000206000256560FF2025619030A560E060BB
:1051E0002046FFF79FF96020009002200190029571
:1051F000002269462046FFF76DF9102000904520F7
:1052000001900295042269462046FFF763F9206861
:10521000C168012292021143C1607FBD6413002066
:1052200010B50C4C01202168C04308612068016959
:10523000C943C907FBD10748FFF796F90421054880
:10524000FFF792F92168002048622168C01E0861BA
:1052500010BD000064130020F8B52E4C07466068AE
:105260000025E030007C0E46022802D02A48406B20
:10527000804700F04EFE002806D0022000F060FEBD
:10528000002000F03CFE01256068E030007C012831
:1052900019D100F044FE00280AD0002000F053FE8F
:1052A000002000F046FE00F038FE002804D12EE079
:1052B00000F033FE002806D0002000F042FE00205F
:1052C00000F033FE23E0002D21D10120134980029C
:1052D0000818212322785B01C918007D002A02D01A
:1052E000012807D007E0012800D14F77384600F0A9
:1052F000E9FF0CE04E77304600F0E4FF6068E030F4
:10530000007C022803D0607820210843607007F0F9
:10531000D9FBF8BDC40700207CE30008440300204B
:1053200000BFFDE710B50348FDF7E8FB00F016F8F5
:1053300010BD00009C13002001688A69D2439207C7
:1053400001D400228A6200688169C943C90703D079
:1053500081690122114381617047000010B50E4838
:10536000FDF7E6FB00280DD10B480C4941603321C5
:1053700081600121C1600A49016000F04DF80648D2
:10538000FDF7DAFB0448FDF7D3FB202801D001200C
:1053900010BD002010BD00009C1300202E11B10094
:1053A00000540040F7B5044600680E468069C043CB
:1053B000C0062CD420272546403520688069C0438C
:1053C00080060FD5701CF8D0002E05D0FDF790FB9D
:1053D0000299401AB042F0D96F700020A87028706E
:1053E0000320FEBD21681020C8612068C7612046E7
:1053F000FFF7A2FF20684168064A1140416004207F
:1054000060646F700020A87028700120FEBD00202D
:10541000FEBD000000E800FE10B5164C86B0E16A43
:1054200002200143E162E16A0390014005910321FA
:1054300009020020009102901221042001910490A1
:1054400069460D48FDF78CFAA16B01204005014328
:10545000A163A16A0143A162A16A8143A162002202
:1054600011461720FDF764FD1720FDF749FD06B032
:1054700010BD00000010024000040050F8B50446C2
:105480000120164640031D46DAB20090079F002314
:10549000204600F05DF83A462046069900F0B5F83F
:1054A000002803D0606C04281BD018E02846F5B211
:1054B000012809D02168300A88623A4620460699B8
:1054C00000F0A3F80028EDD1206885620097002243
:1054D00040212046069B00F04DF8002800D0032014
:1054E000F8BD0120F8BDF8B504460120164640037A
:1054F0001D46DAB2C3020090079F204600F028F84C
:105500003A462046069900F080F8002803D0606CE7
:1055100004281BD018E02846F5B2012809D02168DC
:10552000300A88623A462046069900F06EF8002854
:10553000EDD1206885620097002280212046069BDD
:1055400000F018F8002800D00320F8BD0120F8BDB5
:1055500070B50568049C68688905890D1204044EBD
:1055600011431943304021430143696070BD00007D
:10557000009800FCF8B51C4617460E46054611E09B
:10558000601C0FD0002C05D0FDF7B2FA0699401A26
:10559000A04207D92020403568700020A8702870EC
:1055A0000320F8BD286881693046884304D0002074
:1055B000B842E5D00020F8BD0120F9E770B51646E5
:1055C0000D4604461AE0324629462046FFF7EAFE19
:1055D000002801D0012070BD002D04D0FDF788FA0D
:1055E000801BA8420AD9616C2020014361644034C9
:1055F00060700020A0702070032070BD206880695A
:10560000C0438006DFD4002070BD70B516460D463D
:1056100004461CE0324629462046FFF7C3FE002818
:1056200001D0012070BD681C11D0002D04D0FDF701
:105630005FFA801BA8420AD9616C20200143616493
:10564000403460700020A0702070032070BD20687E
:105650008069C0438007DDD4002070BD044909691A
:105660000A461032824201D108467047001D704739
:10567000040B0020052805D0082803D00A2801D0F3
:105680000020704701207047F8B5D46893685569C9
:10569000234314692C43234394692343D46923434C
:1056A000946A2343104C6418203CE67F85590F4FC1
:1056B0003D401D438551E57F03460C33EF58566846
:1056C000EE50E67F1B1FF7581568F550E47F031D69
:1056D000E658156A360C36042E43E650526A00F03E
:1056E00007F80120F8BD000011E400080F80FFFF5B
:1056F00010B589000F24091F8C408030836A8A40CE
:10570000A3431343836210BD10B5036849434C00A3
:105710000C19A34351430B43036010BD10B5C3687C
:1057200049434C000C19A34351430B43C36010BDC4
:1057300010B5836849434C000C19A34351430B43F4
:10574000836010BD70B5044600680E460025C00792
:10575000C00F2AD1F1687068226808433169144B80
:105760001A40114308432060B168606803221203A5
:105770009043084360607169A06812119043084328
:10578000A060900000F016F800280ED03268002AC1
:105790000BD0010E06025008002330180125594194
:1057A000FAF7D0FC0003000BE060284670BD000053
:1057B000F3E9FFEF10B512490024C9680140012048
:1057C0008002091A12D0091A14D0814207D100F0C0
:1057D00023F8002801D00124E403204610BD03F083
:1057E000ADF903F091F903F09DF901E003F0A6F99A
:1057F0000446F2E700F008F80028EED0014CECE790
:10580000401002400024F400024800684007C00F26
:105810007047000000100240024800698005C00F78
:10582000704700004010024010B507A1095C07A0B6
:1058300008F0B6FC0C4800210171022141710021E1
:1058400000F086F910BD000041424300737769748F
:10585000636820746F20636C617373202563206418
:105860006F6E650A0D000000D400002070B5114D68
:10587000A888FAF763FF044600F0A6FA0E49FAF783
:105880003AFD2146FAF72FFDFAF79BFF84B2AC8070
:105890002046FAF753FF0949FAF72DFDFAF791FF71
:1058A00082B2214606A008F07BFC012000F0D6FA67
:1058B00070BD0000C800002000401C463333534038
:1058C0000D0A7C7C4C6F526120656E657267792091
:1058D000757365643A202564207541682F31302046
:1058E000282564207557682F3130297C7C0D0A00EB
:1058F00010B50024FEF7F0FF0949884201D9FE24C3
:105900000BE0E121C900884207D3401AFE21484339
:105910004B210901FAF7ECFBC4B2204610BD000090
:10592000B80B000070B515A008F03AFC002000F09C
:105930006BF8154C0120A070A088FAF7FFFE054611
:1059400000F042FA1149FAF7D6FC2946FAF7CBFCE7
:10595000FAF737FF85B2A5802846FAF7EFFE0C4923
:10596000FAF7C9FCFAF72DFF82B2294609A008F020
:1059700017FC012000F072FA70BD00004A4F494E3A
:1059800045440A0D00000000C800002000401C46ED
:10599000333353400D0A7C7C4C6F5261206A6F692F
:1059A0006E20656E6572677920757365643A20258F
:1059B00064207541682F3130202825642075576890
:1059C0002F3130297C7C0D0A000000001FB500201B
:1059D0006A46107004484168497811710170684640
:1059E00001F0ACFC1FBD00009800002000B589B09C
:1059F00001216846017001F027FA68460079002805
:105A000000D0012009B000BDF0B589B006460024E1
:105A100068462746047001F017FA68460079B042DC
:105A200027D03100144E154D04D001290ED0022983
:105A30001FD10FE06846077101F090FA002803D1EA
:105A4000B0688169002013E02C4612E00C4808F091
:105A5000A7FB0EE0002800D02C4602206946087102
:105A6000684601F07BFA0028EED1B0688169022017
:105A70008847204609B0F0BD98000020FFFFFFFFD7
:105A8000D4E8000810B5044641791CA008F088FB52
:105A900061792248022920D0032910D063290DD131
:105AA00021688978642927D00021C17000291CD081
:105AB0001BA008F075FB0220FBF7E6FF10BD207964
:105AC0000128FBD120680078002803D0012801D0EC
:105AD0000228F3D1FFF798FF10BD21790129FBD1EE
