:020000040800F2
:1000000010280020D50000089D770008A9470008A7
:1000100000000000000000000000000000000000E0
:100020000000000000000000000000000DB5000806
:100030000000000000000000CB7B00082DD7000866
:10004000E7000008E7000008038F0008E700000849
:10005000E7000008A1140008B1140008C11400084A
:10006000E7000008E7000008511200085D120008D0
:10007000E7000008E7000008E7000008E7000008C4
:10008000E7000008E7000008E700000800000000A3
:10009000E7000008E7000008E7000008E7000008A4
:1000A000E7000008E7000008E7000008E700000894
:1000B000E70000089D8E000800000000E70000082F
:1000C0000348854600F024FD0048004741E9000848
:1000D000102800200448804704480047FEE7FEE758
:1000E000FEE7FEE7FEE7FEE7B5D80008C10000081E
:1000F00030B50B46014600202022012409E00D46C0
:10010000D5409D4205D31D469540491B2546954047
:1001100040191546521E002DF1DC30BD70B500248B
:100120002546002801DA01244042002901DA012590
:100130004942FFF7DDFFAC4200D04042002C00D026
:10014000494270BDF0B51FB40646002082B0054696
:100150004024019100901BE0019922460F46304651
:1001600000F0C0FB049A059B801A994110D31046F9
:100170001946224600F0A6FB361A8F410197224607
:1001800001200021009F00F09DFB38184D41009098
:100190002046641E0028DFDC019B00982946324679
:1001A00007B0F0BD03460B439B0703D009E008C925
:1001B000121F08C0042AFAD203E00B780370401C17
:1001C000491C521EF9D27047D2B201E00270401CA5
:1001D000491EFBD270470022F6E710B513460A46C7
:1001E00004461946FFF7F0FF204610BD421C017877
:1001F000401C0029FBD1801A70470321001D401EBE
:10020000037812021A43491EF9D510467047F8B513
:1002100002464A40D40F42004B0052085B089A4203
:1002200002D20246084611464A0023D0C30D4A00B6
:10023000DDB2120EAD1A202D35DA49020126490A27
:10024000F6058A19002C00D0524220214F1B11467E
:10025000B9402A411018C20D9A4221D0002C17D063
:10026000012D08DCDA05801AD20F8019D207DBB223
:1002700000F064FBF8BDDA05801A012340001B067C
:10028000C01880185A428018CA0F1043490007E06E
:100290004908C2071143DA05801A801940088018FE
:1002A00000F044FBF8BD61000122511A001BF7E782
:1002B0000122D2075140AAE70122D2075040A6E707
:1002C000024670B54A40D30FDB0740002DD04A00EC
:1002D0002AD0010E140E000212020919400A520A15
:1002E0008418E50104465443000A120A2E045043C0
:1002F000A4194219200CC543AA18120C0125AD03FC
:10030000521C521912047F39240400D0521C10438D
:1003100001D44000491EC2B20C06C0092018401C7E
:100320004008802A02D003E0002070BD4008400051
:10033000002900DA0020184370BD70B502464A401B
:10034000D50F40004A00ED0740085208002814D09D
:10035000002A12D0C40DD30D41020120C005520263
:10036000490A520AE41A091812187D34914201D33D
:10037000641C00E04900002C01DA002070BD00235D
:10038000914201D3891A0343400849000028F7D15C
:1003900000290AD0914202D10121C90705E091420A
:1003A00001D2012101E00121C943E005C018401933
:1003B00000F0BCFA70BD0000F0B507460846584092
:1003C00087B0C00F049048000E4659004008490805
:1003D000BC1A884105D2384631461E4617460B46A0
:1003E00002465800400810434CD0300D03904005A1
:1003F0005900400D490D0590401A0290402872DACC
:1004000018030121000B090508430190049800928C
:10041000002805D0019952420020884100920190A5
:10042000029840210A1A0199009800F04BFA0546FB
:100430000C466B4607CB00F066FAC0197141039A6F
:100440000E0D0023D71756401A467A40164344D063
:10045000049A002A2DD0029A012A039A15DC12056B
:10046000C01A914101263605001C7141D20F059E2C
:10047000D2070093019202962A46234600F0A4FA7E
:1004800007B0F0BD38463146FAE71605224A0F4656
:10049000B218C01AB74101210905001C4F410018CC
:1004A0007F41114618187941E20F10436D196441DC
:1004B00013E0E2076D0815436408C2071443039A6A
:1004C00001261205C01A91413605001C7141CE0764
:1004D000400830434908C01851412A46234600F0DD
:1004E00066FACDE7FFE7049801224000C117121A0F
:1004F00000238B4104983146C417381AA141EEE716
:1005000030B40124E407634030BC55E730B4012423
:10051000E407614030BC4FE70000E0FFF0B51FB4D6
:1005200088B00B990998002448400999C00F4900E8
:1005300049080991C0070B990090490049080B919F
:1005400009990898A64608431CD00B990A980843B5
:1005500018D0099801244000420D4800410D099827
:1005600024050003000B204309900B980003000BA7
:1005700020430B9050181C4940180022019014464B
:10058000104605E0002001460DB0F0BD032801DA59
:10059000034600E003239C46C11A0AAE0AE05F004E
:1005A00008ADED5B4F00F75B7D430027AA187C4147
:1005B000491C5B1E6145F2DD410004AB5A52210427
:1005C000120C0A43240C401C0828DFDB019802901F
:1005D0000099704601910090059B049A079906982E
:1005E00000F0F2F9D0E700000DFCFFFFF0B50C467B
:1005F0005C4085B0E40FE40703944C0000266408D7
:1006000059009446490802460296224321D0624688
:100610000A431ED06200570D4A000E032303550DF6
:10062000012402462C492405781B1B0B360B40186D
:1006300023432643614600901C46501AB44103D31D
:100640000098401C009002E0921800985B4100283E
:1006500003DA0020014605B0F0BD002001210905A4
:100660000746864611E064461D46141BB54106D375
:100670006546521BB341744607430C43A646CD075B
:1006800040084908284392185B4105460D43EAD1CA
:100690001046184313D06046194650407140084335
:1006A00006D06046101AB34106D20122002306E0AC
:1006B00000220123DB0702E00122D24353100098FD
:1006C00074460105381C6141029C039D0019694173
:1006D00000F06DF9BFE70000FD03000070B54B00AE
:1006E0005B0803430BD04B005C0D0026334665428C
:1006F000B341D417AD1AA34102DB0020014670BDFF
:1007000012053018514170BD10B5002296231146D4
:1007100000F014F910BD00000EB5C217C10F504013
:10072000CA0740180021054B0293019200910A4626
:100730000B4600F049F903B000BD0000330400008F
:100740000EB505490291002100910A460B46019120
:1007500000F03AF903B000BD33040000C20F4100BD
:1007600040020123400ADB05D207090EC0187F2989
:1007700001DA00207047962903DC9623591AC840F5
:1007800001E096398840002AF4D040427047410089
:1007900040020122400AD205090E80187F2901DAA1
:1007A00000207047962903DC9622511AC8407047F2
:1007B000963988407047000070B5CD0F4A00090394
:1007C0000123090B1B0519430B4BED070024520DA8
:1007D0009A4201DA002070BD074B34339A4203DCA1
:1007E0009A1A00F07FF802E00449511888402C431F
:1007F000F1D0404270BD0000FF030000CDFBFFFFC1
:100800004A0009030123090B1B051943094B10B5C5
:10081000520D9A4201DA002010BD064B34339A4241
:1008200003DC9A1A00F05EF810BD034951188840A5
:1008300010BD0000FF030000CDFBFFFFC20FD20779
:10084000400040080BD0C10D0723DB01C91840024E
:100850000905400A1143C2084007114370470020B0
:100860000146704710B5002904DB0124E40740422B
:100870008C412146002B04DB1C460123DB0752423E
:10088000A341994200D1904210BD0000CB0FDB077D
:10089000490010B5490802460A4307D00A0D07244B
:1008A0000903E401090B121B002A01DC002010BD22
:1008B000C900440F0C43C100E018D205801800F0B5
:1008C00035F810BD10B5202A04DB0146203A9140CE
:1008D000002010BD914020239C1A0346E340194399
:1008E000904010BD10B5202A04DB0846203AD040C5
:1008F000002110BD0B46D340D0402024A21A9140C5
:100900000843194610BD10B5202A06DBCB17084650
:10091000203A1041C1170B4306E00B461341D0406B
:100920002024A21A91400843194610BD002904DA78
:10093000401C490001D140084000704770B40024B9
:10094000050C05D11024000402D1002921D0112466
:10095000050E01D100020834050F01D10001241D4C
:10096000850F01D18000A41C002801DB4000641C1D
:10097000002908D020252E1B0D46F540A14000D0AF
:1009800001212943084301061B1B000ADB1D02D578
:10099000002070BC7047DB05181880180029F8DAB1
:1009A000401C4900F5D170BC40084000704710B5AC
:1009B000002B08DA0024401C614192185B411A4365
:1009C00001D14008400010BDF0B51FB482B005460B
:1009D0000C0003D008460DF07FFB02E00DF07CFB1D
:1009E00020300246009021462846FFF76BFF049B0B
:1009F000059A04460F4618431143084314D018467D
:100A000010431BD0009840210A1A18460599FFF799
:100A100069FF05460E46009A05990498FFF752FFB4
:100A2000084305D0012004E02046394607B0F0BD58
:100A30000020C11705430E432C43374300990E98FD
:100A40006305401A7905E40A00220C43FD0A0A30C6
:100A500002D500200146E9E70105101969410C9C07
:100A60000D9D00196941FFF7A2FFDFE7F8B50546C4
:100A7000480040080C46284304D06000184A400D46
:100A8000904201DD2846F8BD15493539884210DC11
:100A900088420BDB290D200308432903014305D0BD
:100AA000E00F1049C00741180020F8BD00200146A2
:100AB000F8BD161A4020821B28462146FFF702FF88
:100AC00007460091284621463246FFF70BFF3A467B
:100AD000009BFFF76CFF3246FFF7F4FEF8BD000005
:100AE000330400000000F03F10B5002904DB0124AE
:100AF000E40740428C412146002B04DB1C460123C5
:100B0000DB075242A3418B4200D1824210BD00005C
:100B1000064C0125064E05E0E36807CC2B430C3C50
:100B200098471034B442F7D3FFF7CEFAECFF000831
:100B30001C00010870B58C180578401C6B075B0F12
:100B400001D10378401C2A1106D10278401C03E031
:100B500006780E70401C491C5B1EF9D12B0705D48A
:100B60000023521E0DD40B70491CFAE70378401C79
:100B7000CB1A921C03E01D780D70491C5B1C521EA1
:100B8000F9D5A142D8D3002070BD000038B5044685
:100B9000064805490068FFF7ABFA604300E0401ED5
:100BA00000900028FBD138BD40420F004C000020CF
:100BB000F8B50446006881688907890F012902D1C8
:100BC0000168C90722D18168114A10261140012508
:100BD00000290ED18168294381600120FFF7D6FFEB
:100BE00001F030FA07460CE001F02CFAC01B0A288D
:100BF00007D9A06D3043A065E06D2843E065012072
:100C0000F8BD20680068C043C007EDD10020F8BDE2
:100C100017000080F0B589B00C460746102200216D
:100C200068460DF0BBFF6946224608460DF09FFA64
:100C30006846007887260106684600290FDA0021F9
:100C40004318425C5B785200DB091A434254491C4A
:100C50000F29F5DBC17B0246490071400DE0002100
:100C60004318425C5B785200DB091A434254491C2A
:100C70000F29F5DBC17B02464900D173E21DF93231
:100C80005169102912D0017809061BD50021451899
:100C9000435C6D785B00ED092B434354491C0F29DD
:100CA000F5DBC17B03464900714019E00021621861
:100CB000FF3201325378455C491C6B405370102958
:100CC000F5DB26E000214518435C6D785B00ED09FB
:100CD0002B434354491C0F29F5DBC17B03464900D4
:100CE000D973E11D55698023FA316B54002500E06A
:100CF0005D5453695B1C5361102BF9D300216218BA
:100D0000FF3201325378455C491C6B405370102907
:100D1000F5DB002162181046FF32E0300132437CDF
:100D20005278491C534043741029F3DB21461022AA
:100D3000F13104A80DF01AFF2246394604A80DF03F
:100D400016FA1022002168460DF028FF09B0F0BD08
:100D500010B5044610220021F1300DF01FFFFF20D6
:100D6000002115300151F02220460DF017FF10BD73
:100D70000B4610B50246102118460DF023FA10BD9F
:100D8000F0B50446FF308BB00F4601300890E11DEE
:100D90004069FA310091103915460791002843D077
:100DA00010210E1AAE4200D316460099B2B2401876
:100DB00039460DF0DBFE08980899406980194861B2
:100DC00010283AD3B54238D0002162181046FF32BD
:100DD000E0300132437C5278491C5340437410295F
:100DE000F3DB0799224608460DF0C1F9BF19AD1B88
:100DF0001AE000202118E0314A7C3B5C401C5A403C
:100E00004A741028F6DB102202A807990DF0AEFEF6
:100E100002A9224608460DF0AAF9102202A9079855
:100E20000DF0A4FE103D1037102DE2D8AAB23946BD
:100E300000980DF09BFE089845610BB0F0BD0000D6
:100E400038B50F49887C4A7C904218D2401C88747F
:100E5000C00714D022206946094C08708034FF2155
:100E600060682D310A5C69468A70F9210A5C69461E
:100E70004A70007808F042FF6168E031487638BD7A
:100E80006808002010B502221449012386B000280A
:100E90001ED0012804D002281AD0032807D117E059
:100EA000CA6A1A43CA62C96AC907C90F05914100D3
:100EB0000B4A8000515A00910021029103210391B5
:100EC000084901930858694600F0F4FF06B010BDC8
:100ED000CC6A1443CC62C96A1140E7E700100240B3
:100EE00014F900082400002010B5054A4100515AA9
:100EF000044A80001058002201F09EF810BD000046
:100F000014F900082400002010B5054A4100515A88
:100F1000044A80001058012201F08EF810BD000034
:100F200014F90008240000207047000000231A462E
:100F300019460EC002490160024941607047000035
:100F40000D093E00AB030500FFB5102504464557CB
:100F5000112087B0205606900A98A1680160607938
:100F60000027012840D1022168460173A17C8173CA
:100F7000E07C03A908F0C2FE46B2B54200DC35466B
:100F8000B54203D10A98002101602DE0A089A16833
:100F9000814200D30127E2898018884224D80820A2
:100FA00069460873E07C03A908F0A8FE40B20690E9
:100FB000E189A068FFF79CF8012915D12221684634
:100FC00001734573A17C8173E07C03A908F096FE50
:100FD00045B2B54208D120790027012804D16946DD
:100FE0000871E07C08F094FE08980570099906984D
:100FF000087038460BB0F0BDFEB51C4CFF2261688E
:10100000D532525C00250126002A6A462CD0167083
:10101000FF223E32535C6A469370FF31D0708131BB
:10102000C86C0CF01DFE114F0190803FB8696A46F4
:10103000029055706078400706D5002004F056FCF9
:10104000002801D06846467060686946007807F05D
:101050007BFFFF226168C332B869525AFF314243B5
:10106000101A81318864FEBD1570D1E7E8080020B0
:101070000449896C002903D08968002900D00847F9
:101080007047000068070020FFB587B0109E1C461F
:101090000F0005460CD0002E0AD017480490FFF729
:1010A00057FE05A9204600F067FB040003D020E0AE
:1010B00002200BB0F0BD05990498491CFFF758FEBB
:1010C000002D04D0102229460498FFF759FE394616
:1010D000099A0498FFF754FE68460499FFF79AFDB1
:1010E00000A80130FFF789F8694609780002084333
:1010F00030602046DDE70000B40E0020F0B587B078
:101100009C460C4605000F9F0C9B0D990E981646A9
:1011100008D0002F06D0FF220132944204D90E20BD
:1011200007B0F0BD0A20FBE703AA029200910190EC
:1011300062463146204606F049FD3346224629469E
:1011400003A800970BF0C8FE0028E9D00F20E7E7BE
:10115000FFB5002085B000900546064601900024AA
:10116000770007980121C05BA14008422FD02819C1
:101170000C2203905043089A1258002A27D0059A4F
:10118000002A01D1490722D008994118082002916C
:101190000856021100070117069840B208F0C7F878
:1011A000002814D00298407A01010E980818C068EF
:1011B000002804D00198401CC0B2019007E0009ABA
:1011C0000F99039888540098401CC0B20090641C8A
:1011D000E4B2102CC5D31035761CEDB2F6B2102D4A
:1011E000BDD3109901980870009809B0F0BD0000B7
:1011F00030B587B014216846FEF7EDFF032001905B
:101200000020029003204003104C0090E06A01216E
:101210000843E062E06A084005900520694600073F
:1012200000F048FEE06A40084000E062606B012583
:10123000AD052843606300F01BFD00F029FD00F0C0
:101240001FFD606BA843606307B030BD0010024013
:1012500010B503F057F80AF0F5F810BD10B50EF010
:10126000BBF810BD10B5046863608368102B036879
:1012700003D099600068C26010BD9A600068C160C8
:1012800010BD000010B5044605280ED908490948CC
:101290000CF0F5FC214607480CF05EFD05480CF00B
:1012A0006DFD012008F076FF10BD00F0CAFD10BDF5
:1012B0007D7A0008E81600207FB5044600290BD08F
:1012C00000200090019002900390032C06D0042C83
:1012D00006D00B2004B070BD0A20FBE7062000E01A
:1012E00005206A46107000A8082201300DF049FC64
:1012F0000B48234640680222044625786946284662
:1013000065782D022843A578E4782D042843240627
:1013100020430BF0EBFD0028DCD00F20DAE70000C3
:101320003C0C0020F0B585B01E4617460546002946
:1013300013D0002F11D0002E0FD00020009001906C
:1013400002900390052D0AD0062D08D0072D06D057
:10135000082D06D00B2005B0F0BD0A20FBE70120C8
:1013600000E002206A4610706C460322601C0DF0FB
:10137000FDFB03223946201D0DF0F8FB0222314609
:10138000E01D0DF0F3FB0B482B464068022204469B
:1013900025786946284665782D022843A578E478A3
:1013A0002D042843240620430BF0A0FD0028D2D0B2
:1013B0000F20D0E73C0C0020FFB585B0174605464E
:1013C000002915D0002F13D00898002810D0002035
:1013D00002240090019002900390052D0AD0062D62
:1013E0000AD0072D31D0082D31D00B2009B0F0BD27
:1013F0000A20FBE7012000E003206A4610706E46D9
:101400000322701C0DF0B2FB08223946301D0DF08E
:10141000B8FB022203A808990DF0A8FB0D4822464C
:1014200040682B46044625786946284665782D0293
:101430002843A578E4782D042843240620430BF0A4
:1014400055FD0028D2D00F20D0E70420D5E7002496
:101450000220D2E73C0C002000280BD0002909D044
:10146000027B20301307002B06D00378002B03D01B
:1014700000200EE003207047037A002B03D01207F0
:1014800003D017207047012003E00078002803D024
:1014900003200870002070470220FAE77047704769
:1014A00010B5012000F0FAFC022000F0F7FC10BD9E
:1014B00010B5042000F0F2FC082000F0EFFC10BD95
:1014C00010B5102000F0EAFC202000F0E7FC4020DE
:1014D00000F0E4FC802000F0E1FCFF20013000F08F
:1014E000DDFC0120400200F0D9FC0120800200F068
:1014F000D5FC0120C00200F0D1FC0120000300F067
:10150000CDFC0120400300F0C9FC0120800300F065
:10151000C5FC0120C00300F0C1FC10BDFEE710B502
:101520000520FFF7A5FD10BD10B50420FFF7A0FDB5
:1015300010BD10B50620FFF79BFD10BD10B50220B1
:10154000FFF796FD10BD10B50320FFF791FD10BD0C
:10155000F0B58BB0119D109C9C4696460646002D1A
:101560001CD00020049006900790089009900090ED
:1015700001900290039001206A461070244A576837
:10158000244A3B68934211D96246002A08D0012AB6
:1015900006D0022A07D009200BB0F0BD0A20FBE7D5
:1015A0006A46107102E002236A46137173466A4666
:1015B000537191710B0AD3710B0C1372090E517296
:1015C0009472210AD172210C1173210E51731149A9
:1015D0003A688A4201D96946C873002E16D006AB14
:1015E0000722102168460BF041FC002801D00F2093
:1015F000D2E7002006AB07E004991C5C09186A5C7E
:101600006240401C6A54C0B2B042F5D30020C3E728
:101610003C0C0020000001010649800009580648E2
:10162000091803D0C14203D0002070470120704741
:1016300002207047F0F90008702FFCFF38B5174CF6
:1016400015482060FF20DD3060602046143004F033
:101650004FFA2061002000900F4869460838406822
:10166000007808F042FBA0600098E06020461C3043
:101670000BF06AFCA0612046243003F0E5FF2062F5
:1016800020462C3003F072FFA0622046343004F074
:10169000D5F82063204638BDF0080020CC0A002091
:1016A00070B505461446084604E00178A94204D006
:1016B00003F018FAA042F8D1002070BD7FB50A9E51
:1016C000089D099C002A0AD0002C08D0002E06D0C4
:1016D00003000CF030FD051517191B0724000A2024
:1016E00004B070BD6846807B012801D003200EE065
:1016F000002903D0032901D0012008E0022006E0E0
:10170000042004E0052002E0062000E0072020700D
:10171000D289C0B23346294604F0A2F9E0E7052099
:10172000DEE7000010B5094A0021CB00D4588442FE
:1017300007D89B189B68834203D9C800801800799A
:1017400010BD491CC9B21529EFD3FEE760F80008A7
:1017500010B5084B002294001C5D844204D1900017
:10176000C0180860002010BD521CD2B2052AF2D366
:101770000C2010BD8400002030B500220C4B112439
:10178000640115015519ED182D192D7B854208D1DD
:10179000100110188B22C0189200801808600020D9
:1017A00030BD521CD2B2182AEBD3032030BD00004A
:1017B000A00D002010B5002909D0154C0300626867
:1017C0000CF0B9FC0824070D141A1C2022240A204E
:1017D00010BD1069086060680146103104E050696E
:1017E0000860606801461431016309E0906908608F
:1017F000606801461831F7E7D06900E0106A0860B8
:10180000002010BD506AFAE7906AF8E7052010BD85
:101810003C0C002038B50B496B464A681146FF3135
:1018200021310C7B9C7058700D201870C87F0128E6
:1018300001D10E2018701078194608F05FFAC0B276
:1018400038BD0000E8080020F8B5054604464035DC
:10185000287D0026012808D001202875206881688D
:101860008907890F01290ED101E00220F8BD016826
:10187000C90708D0A06D20210843A06501260020DB
:1018800028753046F8BDA16DFF2201329143022236
:101890001143A165C1688907890F0091C168890852
:1018A0008900C1602068816892071143816000F05F
:1018B000C9FB07460EE000F0C5FBC01B0A2809D98A
:1018C000A06D0221884310210843A06500202875DF
:1018D0000120F8BD206880680028ECDB2068C16822
:1018E000009A1143C160A06D80088000401CA06573
:1018F000C5E70000F8B506460D464036317D0129A2
:101900000DD00121317501688A68520709D5816DB2
:10191000202211438165002030750120F8BD02208E
:10192000F8BD174B6A68D80547109A42154C8A6A69
:101930002B6812D05B035B0B1A438A622968490348
:1019400005D5A1680143A1600A20FFF71FF92868A7
:10195000800312D5A06838430EE05B035B0B9A430B
:101960008A622968490302D5A1688143A160286879
:10197000800302D5A068B843A06000203075F8BD90
:1019800001100000002701400068006C7047000053
:1019900070B5040006D0A06D26460025403600280C
:1019A00002D006E0012070BDE5653575204600F0E7
:1019B000D1F8A06DC00603D421688868400705D51A
:1019C000A06D10210843A0653575EBE7A06DFF22DF
:1019D0000132904302221043A06588688207920F6B
:1019E0005A48012A02D10A68D2072BD10323626820
:1019F0009B079A4205D05B429A4202D05B009A4212
:101A000009D10A69920092080A6121680A6963682B
:101A10001A430A610CE00A69920092080A6181681F
:101A20000F22920491438160816862681143816052
:101A30002168CA6818239A43CA602168CA68A368E3
:101A40001A43CA608168012252069143816081680D
:101A5000228F52061143816020688168C90004D436
:101A6000816801221207114381602068C168384AE9
:101A70001140C1602169E068022923D00021084398
:101A8000216A226B4903520011430843616B0843EA
:101A9000A16989030843E169C90308432168CA6849
:101AA0001043C860A06A0146FF39C23905D0E16A17
:101AB00008432168CA681043C860606A0121012890
:101AC00002D00BE00421DAE7206A002823D0A06DC1
:101AD00020221043A065E06D0843E065206C0128DA
:101AE00020681FD00169C90703D00169490849006E
:101AF000016120684169C908C900416120684169E4
:101B0000E26B11434161E565A06D80088000401CD7
:101B1000A065002070BD2068C26801231B041A4321
:101B2000C260DBE70269FF239B009A4302612068E1
:101B30000269636CE66C1A43A36C33431A43026177
:101B4000206802690A430261D3E7000000270140D0
:101B50001902FEFF7047F8B5044640692546403536
:101B60000E4608280BD02068C068C00709D0A06DB9
:101B700020210843A065002028750120F8BD082712
:101B800000E00C2700F05EFA009011E0701C0FD00E
:101B9000002E05D000F056FA0099401AB04207D93D
:101BA000A06D04210843A065002028750320F8BD1E
:101BB000206800683842E9D0A06D0121490208433D
:101BC000A0652068C16809058A0F0C21002A1AD176
:101BD000226A002A17D10268120714D582685307B7
:101BE0000122002B08DB43688B434360A06D130286
:101BF00098431043A06506E0A06D20231843A0651C
:101C0000E06D1043E065A069002801D12068016003
:101C10000020F8BD70B50446216800208968490796
:101C200021D425464035297D01291CD00121297563
:101C3000E169012904D02046FEF7BAFF002811D13E
:101C4000A16D0A4A1140FF2201321143A165002112
:101C5000E165297522681C21116021688A680423C6
:101C60001A438A6070BD022070BD0000FEF1FFFFC4
:101C700002484168490849004160704700580140E6
:101C80000248416804229143416070470058014076
:101C90000248416802229143416070470058014068
:101CA000F8B504460068016849084900016000F081
:101CB000C9F900272546064620350EE000F0C2F996
:101CC000811B7D20C000814207D9E06B20210843A1
:101CD000E0632F7103206871F8BD20680068C007B9
:101CE000ECD12F71012068710020F8BD70B500287B
:101CF00005D0034620335979002902D003E00120A2
:101D000070BD002119710221597104682268374998
:101D1000C5680A40816846692943056935432943F6
:101D200085692943C5692943056A2943114321600F
:101D30002F492F4C02687831A24206D18A6A1209D3
:101D400012018A628A6A406849E0294C1434A2422E
:101D500007D18A6AF024A2438A628A6A4068000135
:101D60003DE0234C2834A24208D18A6A0F24240281
:101D7000A2438A628A6A4068000230E01C4C3C340C
:101D8000A24208D18A6A0F242403A2438A628A6A83
:101D90004068000323E0164C5034A24208D18A6AFE
:101DA0000F242404A2438A628A6A8088000416E011
:101DB0000F4C6434A24208D18A6A0F242405A2433E
:101DC0008A628A6A8088000509E08A4209D18A6AA3
:101DD0000F242406A2438A628A6A0079000602431D
:101DE0008A6201205871002070BD00000FC0FFFF03
:101DF00008000240F8B5044620300579012D1ED0B8
:101E0000012505710226467120680768AF43076007
:101E10002046FFF727FA20680168314301602068F7
:101E200001680422114301602068016808221143FF
:101E3000016020680168294301600020F8BD02208C
:101E4000F8BD01B5009802F093F808BD024841685A
:101E500082151143416070470020024003484168E9
:101E60000122114341600020704700000020024021
:101E700005484168C90705D00449C1600449C160EB
:101E8000002070470120704700200240EFCDAB8951
:101E90000504030210B501F0CDFE10BD10B50449D4
:101EA0004A69024202D04861FFF7F4FF10BD00000A
:101EB00000040140F8B500230124A7E027469F4015
:101EC0003A4070D04D68022D01D0122D14D1DD089A
:101ED000AD002D1800952D6A5E07AC46F50E0F2655
:101EE000AE46AE406546B543AC460E697546AE405B
:101EF00065462E43009D2E624D68012D05D0022DB2
:101F000003D0112D01D0122D16D185680326AC46C1
:101F10005D00AE46AE406546B543AC46CE687546FC
:101F2000AE4065462E43866046680D79BE43ED0699
:101F3000ED0F9D403543456006685F000325BD40B9
:101F4000AE46AE430D79B446AE07B60FBE40654609
:101F50002E430660C6687546AE438D68BD40354366
:101F6000C5604D68ED0050D52B4D6E6B26436E63FA
:101F70009E082A4DB6007519AC46AD689E07360F0F
:101F80000F27B740BD4305273F07B84201D10027BF
:101F90001AE0234FB84201D1012715E0214FB84282
:101FA00002D1022710E030E01F4FB84201D10327D1
:101FB0000AE01E4FB84201D1042705E01C4FB84289
:101FC00001D1052700E00627B7402F436546AF60E3
:101FD000184D2E684F689643FF0300D516432E60B8
:101FE0006E684F689643BF0300D516436E60AE68B7
:101FF0004F689643FF0200D51643AE60EE684F6807
:102000009643BF0200D51643EE605B1C0A68154676
:10201000DD4000D052E7F8BD001002400000014052
:102020000004005000080050000C00500010005048
:10203000001C005000040140002A01D0816170475B
:10204000816270470148006870470000500000201E
:1020500070B5040014D0242120464030054641705C
:1020600020680168490849000160204600F0BEF977
:102070000021616469702163A9702970084670BDF0
:10208000012070BD403040787047000070B50400FA
:1020900006D02546403568780026002802D005E0A5
:1020A000012070BD2E70204600F0A1F92420687038
:1020B000206801684908490001600F21606809062D
:1020C00088432168086121688A680120C00382432F
:1020D0008A60E1680129A16808D021229202114397
:1020E00022689160E168022902D005E00143F7E728
:1020F00001212268C902516021684A680F4B1A43C6
:102100004A602168CA688243CA60616920690843DD
:10211000A169090208432168C860216AE06908438F
:10212000216808602068016801221143016066642B
:10213000202068702663AE70002070BD0080000211
:10214000FFB5054604464035687883B0202873D132
:102150000C98002871D00D9800286ED0287801289E
:102160006AD001202870FFF76DFF0746012200901A
:102170001923D103204602F041FC002876D1222009
:1021800068704020A870002666640C9860620D9804
:10219000608566630E980090019704A90EC92046D9
:1021A00002F0B0FB002804D0606C2E70042860D0D0
:1021B0005CE0618D09208002FF2905D9FF2222857C
:1021C00001231B06009006E0618D21850090208D83
:1021D0000123C2B25B062046049902F0FDFB009782
:1021E0000022042120460E9B02F008FC00283DD16D
:1021F0002068416A606A421C62620170208D401E44
:1022000081B22185608D401E6085002921D1608DBD
:1022100000281ED000970022802120460E9B02F04D
:10222000EDFB002822D1608DFF2807D9FF222285EF
:1022300001231B06009608E02AE01AE0608D208545
:102240000096208D0123C2B25B062046049902F05D
:10225000C3FB608D0028C2D13A4620460E9902F099
:10226000F1FB002807D0606C042802D0032007B0DF
:10227000F0BD0120FBE721682020C86121684A6881
:10228000044B1A404A606870AE702E700020EEE772
:102290000220ECE700E800FEFFB5054604464035A5
:1022A000687883B0202876D10C98002874D00D98D7
:1022B000002871D0287801286DD001202870FFF700
:1022C000C1FE0746012200901923D103204602F0E7
:1022D00095FB002853D1212068704020A87000266B
:1022E00066640C9860620D98608566630E98009035
:1022F000019704A90EC9204602F039FB002804D03A
:10230000606C2E7004286AD039E0608DFF2805D9F2
:10231000FF22228501231B06009606E0608D2085A2
:102320000096208D0123C2B25B062046049902F07C
:1023300053FB3A4620460E9902F0ABFB002803D02F
:10234000606C04284BD01AE0606A411C616221680D
:1023500000788862608D401E6085208D401E0004DC
:10236000000C208524D1608D002821D00097002208
:10237000802120460E9B02F041FB002802D0032062
:1023800007B0F0BD608DFF2807D9FF222285012309
:102390001B06009608E024E021E0608D2085009671
:1023A000208D0123C2B25B062046049902F014FB83
:1023B000608D0028BDD13A4620460E9902F042FBBE
:1023C0000028BDD120682021C16120684268064BE9
:1023D0001A4042606970AE702E700020D0E7012074
:1023E000CEE70220CCE7000000E800FE704770470F
:1023F00002480168491C016070470000500000203D
:1024000010B506480168022211430160032000F064
:1024100007F800F007F8002010BD0000002002407F
:102420000020704710B50948816B02041143816395
:1024300000F03CF800F032F805480168082211432A
:10244000016000F023F801F093FC10BD0010024081
:1024500000200240C106C90E0120884001490860E1
:102460007047000000E100E005490968C206D20E8D
:1024700001209040014201D00120704700207047A8
:1024800000E200E010B505F08BF910BD02480168CC
:102490000215114301607047007000400248016856
:1024A0004215114301607047007000400248016806
:1024B000102291430160704700700040094B1A6878
:1024C0009208920002431A600748026904239A4363
:1024D0000261012903D040BF20BF20BF704730BF39
:1024E000704700000070004000ED00E00548016802
:1024F0000222114301600448016904221143016171
:1025000030BF70470070004000ED00E00A4B1A68D1
:102510009208920002431A60084803690422134398
:102520000361012906D040BF20BF20BF016991434C
:102530000161704730BFF9E70070004000ED00E036
:10254000F8B5044600785E4D800672D55C4E0027D3
:10255000403EB06BC00004D4B06BA9050843B06323
:10256000012758480168C90511D401688215114333
:102570000160FFF767FD009005E0FFF763FD00993C
:10258000401A642837D84F480068C005F5D532682E
:102590000321090560680A400140914208D0810387
:1025A000890F032904D13168890301D50120F8BDC1
:1025B0002A69032109040A4022D0084090421FD012
:1025C000207880061CD528692A6988430121C9041E
:1025D0000A432A612A698A432A612861C0050FD506
:1025E000FFF730FD009008E0FFF72CFD0099411A3D
:1025F0003548814201D90320F8BD28698005F3D50B
:1026000061688803800F032805D132680005824382
:1026100001400A43326028690322616812041140B4
:1026200008432861002F04D0B06B012109078843BB
:10263000B0632078C00705D0E868A16880088000F2
:102640000843E8602078800705D5E8680C218843B6
:10265000E1680843E8602078400706D5E868032170
:102660008902884321690843E8602078000706D57D
:10267000E86803210903884361690843E86020880A
:10268000C00506D5E868032109048843A169084309
:10269000E8602078400606D5E8680121890688436D
:1026A000216A0843E8602078000606D5E86803211F
:1026B00089048843E1690843E8600020F8BD000010
:1026C000401002400070004088130000F8B5054635
:1026D00053480E460068C007C00FB0420AD25048A7
:1026E000016849084900314301600068C007C00F14
:1026F000B0426FD128784B4C800705D5E068F021B7
:102700008843A9680843E0602878C00752D0686809
:10271000022817D0032818D02168012818D089056D
:10272000002957DAE168890889000143E160FFF771
:1027300089FC69680746022912D003291CD00129A7
:1027400026D033E021688903EAE721688901E7E7B9
:102750004907E5E7FFF776FCC11B3348814223D8E0
:10276000E0680007800F0228F4D123E0FFF76AFC3D
:10277000C11B2D48814217D8E0680007800F03284D
:10278000F4D117E0FFF75EFCC11B274881420BD84C
:10279000E0680007800F0128F4D10BE0FFF752FC3E
:1027A000C11B2148814201D90320F8BDE068000720
:1027B000800FF3D11A480168C907C90FB1420BD97C
:1027C000016849084900314301600068C007C00F33
:1027D000B04201D00120F8BD2878400706D5E06856
:1027E000072109028843E9680843E0602878000768
:1027F00007D5E0680721C90288432969C900084351
:10280000E06000F017F8E168084A0906090F515C1A
:10281000C840074908600320FFF702FE0020F8BD0A
:1028200000200240001002408813000090F90008C8
:102830004C00002010B5184AD1680C20084004282C
:102840000BD0082810D00C2810D050680004410F7D
:102850000120C003491C884010BD1068C00601D586
:102860000E4810BD0E4810BD0E4810BD88020E4B1C
:10287000000F185C0902D368890F491CDB0301D5DE
:10288000084A05E01268D20601D5044A00E0044A6D
:102890005043FDF72DFC10BD0010024000093D0023
:1028A0000024F40000127A00A0F90008F8B50446EC
:1028B0000078FF4DC0074CD0E8680007800F022861
:1028C00007D0E8680007800F032809D1E868C00333
:1028D00006D5286880033CD56068002875D038E0AC
:1028E000012062680004824203D129680143296003
:1028F00011E0052301211B0489049A422A6802D1B0
:102900000A432A60F1E782432A602A680240009263
:10291000286888432860606800280DD0FFF792FB84
:102920000646E44F04E0FFF78DFB801BB8427DD8DC
:1029300028688003F7D50CE0FFF784FB0646DD4FDF
:1029400004E0FFF77FFB801BB842F0D828688003C3
:10295000F7D42078800741D5E8681F270007800F4B
:102960003F02012807D0E8680007800F032809D13B
:10297000E868C00306D42868400717D5E068012836
:1029800023D113E0E068002817D029680922914379
:1029900001432960FFF756FB064604E0FFF752FBB0
:1029A000801B0228C3D828684007F7D568682169CA
:1029B000B84309020843686010E0286840084000F6
:1029C0002860FFF73FFB064605E090E0FFF73AFB83
:1029D000801B0228ABD828684007F7D42078C006AF
:1029E00076D5E868B44E0007800F0BD0E069002868
:1029F0005DD02868FF21013108432860FFF722FBE2
:102A0000074644E02868800502D5E06900286ED0BA
:102A1000606A69683140884212D906F061F900287D
:102A2000AED16868616AB043084300E0E4E06860E2
:102A30006868218C0002000A0906084368600FE0FC
:102A40006968B143014369606868218C0002000A2B
:102A5000090608436860606A06F042F900288FD1D1
:102A6000606A410B0120C003491C8840E968934A11
:102A70000906090F515CC840914908600320FFF71F
:102A8000CFFC25E0FFF7DEFAC01B02288AD82868B1
:102A90008005F7D56868616AB04308436860686874
:102AA000218C0002000A09060843686010E02968CA
:102AB000FF20013081432960FFF7C4FA064604E095
:102AC000FFF7C0FA801B022884D828688005F7D455
:102AD00020787C4E000723D560690028306910D02B
:102AE000012108433061FFF7ADFA074605E009E12F
:102AF000FFF7A8FAC01B02287ED830698007F7D5F7
:102B00000EE0400840003061FFF79CFA074604E001
:102B1000FFF798FAC01B02286ED830698007F7D4F7
:102B20002078400761D5A86B0027C00005D4A86BAA
:102B3000012109070843A863012763480168C90503
:102B400011D40168821511430160FFF77BFA0090F0
:102B500005E0FFF777FA0099401A64284CD85A48E4
:102B60000068C005F5D5FF20A2680130824203D17C
:102B700031690143316111E001218902002A07D046
:102B800005231B029A4203D132690A433261EFE7FF
:102B9000326982433261306988433061A06800281D
:102BA0000ED0FFF74FFA009006E0FFF74BFA0099BE
:102BB000411A404881421FD830698005F5D50DE0A3
:102BC000FFF740FA009006E0FFF73CFA0099411A3F
:102BD0003848814210D830698005F5D4002F04D0E0
:102BE000A96B012000078143A9632078800630D5B6
:102BF0003649A0694A1400E07DE0002816D0AB6891
:102C000001200343AB606B6B03436B63086A1043A3
:102C10000862FFF717FA064604E0FFF713FA801B75
:102C2000022868D8A8688007F7D512E0A86840088D
:102C30004000A860086A90430862FFF703FA06465E
:102C400004E0FFF7FFF9801B022854D8A86880072A
:102C5000F7D4A06A002853D0E9680907890F03292F
:102C600050D0012636060228286805D0B0432860D7
:102C7000FFF7E8F9044640E0B0432860FFF7E2F9C7
:102C8000074604E0FFF7DEF9C01B022833D82868A6
:102C90008001F7D4216BE06AEA680843616BFD2389
:102CA0001B049A4311430843E860286830430FE04F
:102CB000001002408813000000E0000090F90008B6
:102CC0004C00002040100240007000400000014015
:102CD0002860FFF7B7F9044604E0FFF7B3F9001BDB
:102CE000022808D828688001F7D509E0FFF7AAF97B
:102CF000001B022801D90320F8BD28688001F5D403
:102D00000020F8BD0120F8BD006889005030081887
:102D100000687047006889005030081802607047EA
:102D200030B5014620310A78012A15D001220A70F7
:102D300002234B700468CA236362046853236362EE
:102D400003689C6820252C439C600068FF23436235
:102D50004A700020087030BD022030BD10B50AF066
:102D6000A5FF10BDF8B50446022026462036707037
:102D70002168CA204862216853204862204606F034
:102D8000A4F8FF27002842D121680860216827485D
:102D90004860206881684907490F8160FFF752F950
:102DA00005460BE0FFF74EF9411B7D20C000814234
:102DB00004D92068476203207070F8BD2068C0689D
:102DC0004007EFD520688168002585602168184894
:102DD00048612168174808612068C561206805625C
:102DE0002068C5622068C5632068456420688564E2
:102DF0002068C560206805642068C5642068806814
:102E000080060AD4204600F0FBFA002805D020688E
:102E10004762042070700120F8BD20684762204698
:102E200000F008F9757035700020F8BD0121000030
:102E3000FFFF0000FF007F00F8B50546044620357F
:102E4000287801281DD0012028700220687022688F
:102E5000CA205062226853205062FF2001300026B1
:102E6000FF2781421CD121688A6882438A602068DA
:102E700081680122120391438160FFF7E3F800901B
:102E800009E00220F8BDFFF7DDF80099411A7D2026
:102E9000C00081421BD82068C068C007F3D020E082
:102EA0002068816801225202914381602068816814
:102EB000120191438160FFF7C5F800900DE0FFF724
:102EC000C1F80099411A7D20C000814205D92068CF
:102ED0004762032068702E70F8BD2068C0688007C4
:102EE000EDD520684762012068702E700020F8BD83
:102EF00010B500680B464068C021C943014000027C
:102F0000000ECC04D870E40E5C708C06A40E09048C
:102F1000490F9C701970002A0AD105F0C3FFD870C0
:102F2000587805F0BFFF5870987805F0BBFF98708F
:102F3000002010BD30B50B460168896A59600168F0
:102F400009694904490C9960006804680F482146E2
:102F5000014088024D04800E18706D0E49065D70A8
:102F6000490E99706102490E40242140D970002A0F
:102F70000AD105F097FF1870587805F093FF587044
:102F8000987805F08FFF9870002030BD7F7F7F001C
:102F900070B5040005D0254620356878002802D099
:102FA00006E0012070BD00202870204600F04CF89B
:102FB000022068702168CA20486221685320486254
:102FC000204605F082FFFF210028206803D04162DF
:102FD00004206870E5E78268154B1A408260226819
:102FE00090686368A6691843236933431843906067
:102FF0002268E06810612068026923891B041A4373
:1030000002612068C26880239A43C2602068C26C53
:1030100092089200C264E269606902432068C36C4E
:103020001A43C2642068416201206870002070BDAC
:10303000BFFF8FFF034801690122920491430161A0
:10304000704700004010024000B597B00420009087
:1030500000200A90FF20013002906846FFF726FC0E
:10306000002801D0FEF75AFA20200E90C0020F90DF
:103070000EA8FFF765FA002801D0FEF74FFA0848BE
:103080000169012292041143016100220121022001
:10309000FFF7F8F90220FFF7DDF917B000BD0000D7
:1030A00040100240FEB506460446203630780B46F6
:1030B000012842D0012030700220707020681D4627
:1030C000002720358068002A39D0400655D5187869
:1030D00005F0E8FE287805F0E5FE197898780904EF
:1030E00008435978DA780902120411430843297811
:1030F00009060843D969084359690843054699698F
:103100005868084300902168CA204862216853200B
:103110004862FF205A6A0130802182424AD12268E7
:103120009368834393602268D0680840FF388238F0
:10313000D060FEF787FF019029E00220FEBD400627
:1031400000D4DF70187805F0B5FE0204587805F059
:10315000B1FE00020243987805F0ACFE0243D87835
:1031600000040243287805F0A5FE00060243D86952
:103170000243586902431546C1E7DF70AAE7FEF72C
:1031800061FF0199411A7D20C00081422AD8206840
:10319000C068C007F3D02068C56121680098486402
:1031A00020688168FF2201321143816020688168B4
:1031B000120130E02068826801235B029A4382603A
:1031C0002068C2680A401D495118C160FEF73AFFE5
:1031D00001900EE0FEF736FF0199411A7D20C000F4
:1031E000814206D92168FF20486203207070377041
:1031F000FEBD2068C0688007ECD5206805622168A4
:10320000009888642068816801225202114381601D
:103210002068816812011143816009480268012118
:1032200049040A43026082680A4382602168FF20E1
:1032300048620120707037700020FEBD7FFDFFFFE7
:1032400000040140F8B505460446203528780B46B1
:10325000012815D001202870022068705878002AB3
:1032600010D005F01FFE987805F01CFED8789E78E7
:10327000000406435878197800024903084316E011
:103280000220F8BDC10603D5EF2108400A3058706E
:10329000D87805F00FFE0604587805F00BFE000202
:1032A0000643987805F006FE064318784003064367
:1032B0002168CA204862216853204862204605F0F0
:1032C00004FE0027002811D11048064020684660FF
:1032D0002068C16880229143C160206880688006B0
:1032E0000CD4204600F08CF8002807D02168FF207D
:1032F0004862042068702F700120F8BD2168FF200B
:103300004862012068702F700020F8BD3FFFFF0069
:10331000F8B506460446203630780D4601280ED012
:103320000120307002207070206800278068002A19
:1033300007D040061AD5287805F0B4FD17E0022022
:10334000F8BD400600D4EF70287805F0B3FD020404
:10335000687805F0AFFD00020243A87805F0AAFDE9
:103360000243E8780004024300920BE0EF702978F2
:10337000A878090408436978EA780902120411431D
:10338000084300902168CA2048622168532048629F
:10339000204605F09AFD00281FD1184900980840E2
:1033A000216808602068816801229204914381604D
:1033B0002969E868084321688A68104388602068A2
:1033C000C16880229143C1602068806880060CD467
:1033D000204600F015F8002807D02168FF20486239
:1033E0000420707037700120F8BD2168FF2048620A
:1033F0000120707037700020F8BD00007F7F7F00D3
:1034000070B504460068C168A0229143C160FEF710
:1034100019FE7D260546F60006E0FEF713FE401B6A
:10342000B04201D9032070BD2068C0688006F4D581
:10343000002070BD10B50446006C002801D0FEF7D6
:103440002FFC606C002801D0FEF72AFC2068416840
:103450000222914341602068416849084900416067
:10346000012040346074002010BD704770B5040026
:1034700006D025464035687C0026002802D005E0AD
:10348000012070BD2E74204600F032F802206874CE
:1034900020680168402291430160A1686068226948
:1034A0000843E16811430843616901220843A169A7
:1034B000520211400843E1690843216A0843A16AA6
:1034C000084321680860A0690421000C0840616A73
:1034D0000843216848602168E06A08612068C16982
:1034E00092009143C161666501206874002070BD3F
:1034F00038B51C490546486B8A1410434863086B6D
:10350000012210430863086B1040009000F092FF06
:10351000154C082060601020A0600020E060802032
:103520002061400060618000A0612020E061000215
:1035300020620E4820602046FEF7D8FB2C64002253
:1035400011460A20A562FEF79DFF0A20FEF782FFC2
:10355000002211461920FEF795FF1920FEF77AFF89
:1035600038BD000000100240481500203000024025
:10357000F8B5044600276846078026464036707C2A
:10358000012802D0707C22287ED100290CD0002A8C
:103590000AD0002B08D0307C012875D0012030746F
:1035A000707C012802D003E00120F8BD3220707445
:1035B0006765A263A387E3872163A386E386A76485
:1035C000E7640125A06A6D03A84207D1206801685D
:1035D000A9430160206801682943016020680168EF
:1035E000490603D401684022114301600121FF20F4
:1035F000E268C90205308A42616866D1002904D0B8
:1036000081420CD1E08E012809D1206B216800880D
:10361000C860206B801C2063E08E401EE086E08E38
:10362000002843D1A06AA84246D12068016801223F
:103630001203114301603FE02068C068A16B08805D
:10364000A06B801CA063B0E0002202212046069BF4
:1036500007F0C4FD00287DD1206B21680088C86078
:10366000206B801C2063E08E401EE086E08E0028E8
:1036700008D1A06AA84205D120680168012212037E
:1036800011430160002200E0CCE001212046069BAE
:1036900007F0A4FD00287FD12068C068A16B0880D6
:1036A000A06B801CA063E08F401EE087E08E0028A6
:1036B000CAD1606800287BD1002201212046069BE8
:1036C00007F08CFD002867D1B6E7002904D08142BD
:1036D0000BD1E08E012808D1206B411C21632168A9
:1036E0000078C860E08E401EE086E08E002845D15C
:1036F000A06AA84205D12068016801221203114383
:103700000160002201212046069B07F067FD00288A
:1037100042D12068C068A16B087046E000220221F7
:103720002046069B07F05AFD002835D1206B411C2E
:10373000216321680078C860E08E401EE086E08E3C
:1037400000280AD1A06AA84207D120680268012196
:10375000090300E020E00A43026000220121204624
:10376000069B07F03BFD002816D12068C268A06BBD
:10377000411CA1630270E08F401EE087E08E0028AC
:10378000CCD16068002813D1002201212046069B7D
:1037900007F024FD002802D00320F8BD08E02068CF
:1037A000C168A06B421CA2630170E08F401EE087DD
:1037B000A06AA8420FD1002201212046069B07F0F3
:1037C0000DFD002802D0606D02210EE02068C06867
:1037D000694608800888012280212046069B07F060
:1037E000FDFC002804D0606D202108436065D3E70C
:1037F00001207074A06AA84211D120688168C94371
:10380000C9060CD4616D0222114361650168A943A8
:10381000016020680168294301603774C4E6377489
:103820000020BAE70220B8E770B5064604464036E5
:10383000707C0025012801D0357454E000294FD058
:10384000002A4DD0307C01284DD001203074122048
:10385000707465652163A286E286E564A564A5634C
:10386000A587E5870121A068C903884205D12068A2
:10387000016801229203114301600120A16A400303
:10388000814207D121680A6882430A6021680A6878
:1038900002430A60216C15480863216C1448C86211
:1038A000216C14484863606C0563606CC562606C91
:1038B0004563E38E2268216B0C32206CFEF79AFA86
:1038C0002068416802221143416035742068016814
:1038D000490603D40168402211430160002070BDF5
:1038E0003574012070BD022070BD000063B1000876
:1038F0006DB1000845B100087047704770B50446C7
:103900002034237D012B0CD00125257502236375FE
:10391000002A08D0042A0AD0082A0CD00C2A11D177
:103920000DE0022070BD00680AF029F80AE0006886
:103930000AF03DF806E000680AF052F802E000687C
:103940000AF069F865750020207570BD70B5040037
:1039500005D025462035687D002802D006E00120EC
:1039600070BD00202875204600F00AF80220687516
:10397000211D206809F0C8FF01206875002070BD76
:103980000248816B0122114381637047001002409D
:1039900010B504460068012209F0E6FF20680168BE
:1039A000012211430160002010BD000010B5044643
:1039B0000068002209F0D8FF2068016A044A114219
:1039C00003D10168490849000160002010BD0000D2
:1039D0001111000070470000F8B505460446603537
:1039E000687A20283BD100290BD0002A09D0012376
:1039F000A0681B03984206D12069002803D1C8079C
:103A000001D00120F8BD287A012828D00120287291
:103A100020464030E164028242820026E666212090
:103A20006872216E0F48C862216E0F480863216ECC
:103A30000E484863206E134686632768E16C3A4659
:103A40002832206EFEF7D6F92168402008622E72D7
:103A5000206881688022114381600020F8BD022027
:103A6000F8BD00000FDF00083FDF0008C5DE0008DA
:103A70007047704710B51248017800291ED1012205
:103A8000027011480F49016000210164C161D30730
:103A90008161436082638160C1600162072341628A
:103AA000C3630261C1620422426101630748416B42
:103AB0004215114341630448FDF76AFF10BD000041
:103AC0000801002000240140881500200010024059
:103AD0007CB51E49064609780020002934D01C48D0
:103AE0004168C9430907FBD41A4C606B651528432C
:103AF000606300211848FDF7A7FE18480090184899
:103B0000019069461448FDF7F5FEA014019069463E
:103B100000961148FDF7EEFE0F48FEF77BF80021F6
:103B2000C9430D48FEF717F80B48FDF72DFF0A496A
:103B300080B20A68936802263343936009680322BF
:103B40000A60616BA94361637CBD0000080100202D
:103B5000007000400010024088150020FFFF0700A1
:103B60000110000010B5094C2078AA280CD0FEF7EF
:103B70007FF9FEF76BF9AA20207058220449201D16
:103B8000FCF710FBFEF76AF910BD00000000080802
:103B900030FE000810B5FEF761F910BD10B5FEF754
:103BA00067F9FEF753F910BD014600200A0A00D05C
:103BB0000820084A114201D004221043064A11424B
:103BC00001D002221043054A114201D001210843CD
:103BD00070470000F0F00000CCCC0000AAAA000062
:103BE00038B50B231B07C518114B0FD01C152D1B07
:103BF00018D02D1B19D0A542DD6A05D10824254314
:103C0000DD62DB6A234007E08024F8E7DC6A0125F7
:103C10002C43DC62DB6A2B40009311601146FEF7F7
:103C200049F938BDDD6A0224E9E7DD6A0424E6E7E4
:103C30000010024010B5FFF7B7FF8100034841585C
:103C4000002901D00020884710BD0000BC120020D0
:103C500070B51C4615460E460846FFF7A5FF0A49F3
:103C6000002C0DD080000C50304603F00DFD0446B2
:103C700000222946FEF706FC2046FEF7EBFB70BD4E
:103C8000002280000A5070BDBC12002010B5D2B2D4
:103C9000FEF7D2F910BD000010B50648FFF718FF77
:103CA000011E05D00448054A008B5043FCF720FA5A
:103CB00080B210BD000002446000F81FB80B000085
:103CC00003494A690869496A504048407047000002
:103CD0004000F81F70B51148FFF7FAFE104C0100C4
:103CE0001AD0208B0F4A5043FCF702FA05460E48C3
:103CF000FFF7EEFE68430B49FCF7FAF9618B0522EA
:103D0000401A12035043E28B511AFCF707FA0F21B5
:103D10004902401880B270BD0025E8E70000024467
:103D20006000F81FB80B0000000004480F494B6A00
:103D30000A69D218120EC2714B6A0A69D218120CA3
:103D400082710A8A8B8CD218120A42710A7C8B8C7F
:103D5000D21802714A69120EC2704A69120C82703E
:103D60008A8A120A4270097D017070474000F81F6C
:103D7000F0B587B014216846FCF72DFA224CE06AB2
:103D800001210843E062E06A08400590E06A0225EC
:103D90002843E062E06A28400590E06A0426304348
:103DA000E062E06A30400590E06A80273843E062D4
:103DB000E06A694638400590032001900020029097
:103DC0001248009005200007FEF774F81048009094
:103DD00069461048FEF76EF869460F48FEF76AF824
:103DE00069460E48FEF766F8E06A40084000E06267
:103DF000E06AA843E062E06AB043E062E06AB84388
:103E0000E06207B0F0BD000000100240FF9F00001C
:103E1000FFFF00000004005000080050001C00508C
:103E200010B5124C88B0607800281DD11C2168465E
:103E3000FCF7D1F9FFF71EFE00F0CCFA00F02CF9E8
:103E400000F0E4FB0AF006F800200BF061FBFDF740
:103E50006BF807F0E3FC684607F06CFC012140209A
:103E600008F0E8FE0120607008B010BD08010020D5
:103E7000F0B587B014216846FCF7ADF9214CE06A33
:103E800001210843E062E06A08400590E06A0225EB
:103E90002843E062E06A28400590E06A0426304347
:103EA000E062E06A30400590E06A80273843E062D3
:103EB000E06A694638400590032001900020029096
:103EC0001148009005200007FDF7F4FF69460F48F0
:103ED000FDF7F0FF69460E48FDF7ECFF69460D4817
:103EE000FDF7E8FFE06A40084000E062E06AA843AE
:103EF000E062E06AB043E062E06AB843E06207B0C3
:103F0000F0BD000000100240FFFF00000004005060
:103F100000080050001C005070B50C4605460021FA
:103F20000448FEF7F1FE286001210248FEF7ECFE8E
:103F3000206070BDFC12002010B50C460246002126
:103F40000448FEF7E7FE224601210248FEF7E2FEA2
:103F500010BD0000FC12002010B5034901200870BC
:103F60000248FEF7FFFE10BDCA000020FC12002030
:103F700070B5410EC0017D220023FCF7E3F8054631
:103F800000F082F8044600E000BF00F07DF8001B5E
:103F9000A842F9D370BD30B587B00546694605A87B
:103FA00000F00AF8840A8005800D00F09BF9288053
:103FB000204607B030BD000070B505460C46002213
:103FC0002048FEF7B7FF002229461E486668FEF724
:103FD0008FFF002221461B48FEF7ACFF6068B0420D
:103FE000F1D1E878184A01465043C01C830888077D
:103FF00026D0164968783D220646504302463C3A90
:104000007000801EC1408807D10F8918800F4910A9
:10401000081AC018A978401E08180D493C224843C8
:104020006178E123514322781B015A438918A27811
:1040300010180818074A61688002511A401870BDAC
:104040000549D7E7FC120020B5050000A0AA990099
:1040500080510100FF0300005055440003207047C9
:1040600001480068704700004813002000B587B081
:10407000694605A8FFF7A0FF0249096807B0401A82
:1040800000BD00004813002000B587B0694605A8B0
:10409000FFF792FF07B000BD10B5084C207800284C
:1040A0000AD100F041F8FF2101310548FEF7C4FEB6
:1040B00000F06AF80120207010BD0000CA00002046
:1040C000FC12002010B50D4C0021042001F032F943
:1040D00001200B494004486121688868C0040BD561
:1040E000C868C00508D5C86880221040FF388238EB
:1040F000C8602046FEF732FE10BD0000FC12002012
:104100000004014010B50446FFF7B0FF201A032851
:1041100001D9002100E00121042001F00BF9204623
:1041200000F03EF810BD000010B51449144886B0E8
:10413000002412C01F2101608460046111494461A0
:1041400041600838FEF724FF6946CC7501204875A8
:1041500088750875002205A90948FFF773F80094CF
:10416000019404940022694605480394FFF7D0F8AF
:104170000348FEF7D5FD06B010BD00000028004042
:10418000FC120020FF03000010B5044C2046211D46
:104190001830FFF711FF206010BD00004813002009
:1041A000F0B587B0044614223F4901A8FBF7FAFF97
:1041B0003D485038406E009000F07EF83B48029930
:1041C0003B4A401AA105890D081887B2A10A684622
:1041D0008078534202E08918401C80B29942FAD29A
:1041E0006A461579E122120102E0891A6D1CADB20E
:1041F0009142FAD26A46547902E0641CA4B23C3976
:104200003C29FAD2927951188EB20121890203E039
:104210007A1A761C97B2B6B28F42F9D203E03C3ECE
:10422000641CB6B2A4B23C2EF9D203E03C3C6D1C37
:10423000A4B2ADB23C2CF9D203E0183D401CADB2A3
:1042400080B2182DF9D26946C978890769464A783B
:1042500027D01849491E515C814202D2FBF748FF22
:1042600008461249CA1B10492C394A6005225206D9
:104270008A618E704C700A460D702032107068464C
:10428000C079C8700020C861FF2248610132C8604F
:104290004A620861024608462438FEF703FF07B069
:1042A000F0BD04490C31D5E74C130020FF0300009A
:1042B00080AEFEFFCCFD000810B5FF21013107489C
:1042C000FEF7BAFD05480168C86880221040FF3833
:1042D0008238C86002499002486110BDFC1200207B
:1042E0000004014010B57D2109F00DFF4906C00909
:1042F000084310BD10B5410EC0017D220023FBF71D
:1043000021FF10BDF0B52948294B016C284C284DE0
:10431000274E274A0868143328343C3550369042DB
:1043200001D102201BE0984201D1202017E0A042D9
:1043300002D10120400212E0A84202D10120400334
:104340000DE0B04202D10120400408E0184F64376C
:10435000B84202D10120400501E001204006144F7F
:10436000083F78600868904201D104201BE0984221
:1043700001D1402017E0A04202D10120800212E0CA
:10438000A84202D1012080030DE0B04202D10120F9
:10439000800408E006496431884202D1012080058A
:1043A00001E0012080067860F0BD00006413002069
:1043B0000800024001B582B00020C04300900123F4
:1043C00001AA02A90248FFF7D3F8684680880EBD0B
:1043D0006413002010B5144812490160144A134BAD
:1043E0000021126803E05208491C072901D29A42B1
:1043F000F9D8C900C1610021816001614161FF22DA
:10440000C160053281624260012201625202826112
:1044100041620548FFF72AF8002801D0FDF77EF831
:1044200010BD000000300140641300200024F4009F
:104430004C00002030B585B014216846FBF7CBFE58
:1044400002200190029003200390002004906A460D
:1044500008210F48FFF7C4FB052424076A464021C2
:104460002046FFF7BDFB6A4680212046FFF7B8FBD8
:1044700001210191CD0302916A4629462046FFF7AA
:10448000AFFB012229462046FFF700FC05B030BDF6
:104490000004005038B5154801210068C9020268BF
:1044A0008A430A4302601248C16A01221143C16271
:1044B000C06A052410400222950324070090294673
:1044C000204600F065FB6068A84360600222294630
:1044D000204600F071FB01222946204600F062FBD5
:1044E000606A000100092043606238BD6413002047
:1044F0000010024038B51248006801680122D2025B
:10450000914301600F48C16A01221143C162C06A30
:1045100005241040D503240700902946204600F0CA
:1045200037FB6068A843606002222946204600F0FD
:1045300043FB00222946204600F034FBA56138BD2C
:10454000641300200010024070B50C460546FFF7CA
:10455000A1FF224629460248FFF766F970BD000018
:104560006413002010B50848046CFEF763FF206850
:10457000016804229143016020680168022291438E
:104580000160FFF7B7FF10BD641300200948016800
:10459000012212041143016001688903FCD5C1683E
:1045A00089088900891CC160C1680907890F02292F
:1045B000FAD170470010024008B513480168012283
:1045C0001143016001684907FCD501680122120608
:1045D0001143016001688901FCD5C16803221143C0
:1045E000C160C1680907890F0329FAD10268012156
:1045F00009048A43026002680A40009201680122AD
:1046000092049143016008BD001002407FB5012073
:10461000134C8007206000256560FF2025619030E5
:10462000A560E0602046FFF791F96020009002202D
:1046300001900295002269462046FFF75FF910209D
:104640000090452001900295042269462046FFF71C
:1046500055F92068C168012292021143C1607FBDF3
:10466000E815002010B5012206499207401E0A6095
:10467000C86000204860086188600846FFF766F956
:1046800010BD0000E815002010B50649002009689B
:10469000486201460348FFF77BF904210148FFF710
:1046A00077F910BDE815002010B50C4C01202168E9
:1046B000C043086120680169C943C907FBD10748A5
:1046C000FFF774F904210548FFF770F9216800200D
:1046D00048622168C01E086110BD0000E815002076
:1046E000F8B52E4C074660680025E030007C0E4689
:1046F000022802D02A48406B804700F03FFF002884
:1047000006D0022000F051FF002000F02CFF012510
:104710006068E030007C012819D100F035FF0028E6
:104720000AD0002000F044FF002000F037FF00F026
:1047300029FF002804D12EE000F024FF002806D035
:10474000002000F033FF002000F024FF23E0002DC4
:1047500021D10120134980020818212322785B010E
:10476000C918007D002A02D0012807D007E00128DF
:1047700000D14F77384601F003F90CE04E77304610
:1047800001F0FEF86068E030007C022803D0607819
:1047900020210843607009F00DFCF8BDE8080020F6
:1047A0001CF900086804002000BFFDE710B50348AD
:1047B000FDF74EFC00F016F810BD00003017002089
:1047C00001688A69D243920701D400228A62006894
:1047D0008169C943C90703D08169012211438161FD
:1047E0007047000010B50E48FDF74CFC00280DD1B5
:1047F0000B480C494160332181600121C1600A49A5
:10480000016000F04DF80648FDF740FC0448FDF754
:1048100039FC202801D0012010BD002010BD00006F
:10482000301700202E11B10000540040F7B50446A7
:1048300000680E468069C043C0062CD42027254658
:10484000403520688069C04380060FD5701CF8D0C1
:10485000002E05D0FDF7F6FB0299401AB042F0D9C0
:104860006F700020A87028700320FEBD2168102002
:10487000C8612068C7612046FFF7A2FF2068416831
:10488000064A11404160042060646F700020A870E7
:1048900028700120FEBD0020FEBD000000E800FEE3
:1048A00010B5164C86B0E16A02200143E162E16A6C
:1048B000039001400591032109020020009102901C
:1048C000122104200191049069460D48FDF7F2FA87
:1048D000A16B012040050143A163A16A0143A162CC
:1048E000A16A8143A162002211461720FDF7CAFD8B
:1048F0001720FDF7AFFD06B010BD0000001002400C
:1049000000040050F8B504460120164640031D4639
:10491000DAB20090079F0023204600F05DF83A4687
:104920002046069900F0B5F8002803D0606C0428F2
:104930001BD018E02846F5B2012809D02168300ABA
:1049400088623A462046069900F0A3F80028EDD187
:10495000206885620097002240212046069B00F0D7
:104960004DF8002800D00320F8BD0120F8BDF8B5AF
:1049700004460120164640031D46DAB2C3020090E9
:10498000079F204600F028F83A462046069900F096
:1049900080F8002803D0606C04281BD018E028465B
:1049A000F5B2012809D02168300A88623A462046CB
:1049B000069900F06EF80028EDD120688562009716
:1049C000002280212046069B00F018F8002800D025
:1049D0000320F8BD0120F8BD70B50568049C686827
:1049E0008905890D1204044E1143194330402143B7
:1049F0000143696070BD0000009800FCF8B51C46DA
:104A000017460E46054611E0601C0FD0002C05D05D
:104A1000FDF718FB0699401AA04207D9202040351F
:104A200068700020A87028700320F8BD286881698C
:104A30003046884304D00020B842E5D00020F8BDBD
:104A40000120F9E770B516460D4604461AE03246D5
:104A500029462046FFF7EAFE002801D0012070BD5C
:104A6000002D04D0FDF7EEFA801BA8420AD9616C34
:104A7000202001436164403460700020A0702070E9
:104A8000032070BD20688069C0438006DFD4002009
:104A900070BD70B516460D4604461CE032462946E8
:104AA0002046FFF7C3FE002801D0012070BD681C1E
:104AB00011D0002D04D0FDF7C5FA801BA8420AD9F9
:104AC000616C202001436164403460700020A0705C
:104AD0002070032070BD20688069C0438007DDD44A
:104AE000002070BD044909690A461032824201D192
:104AF00008467047001D7047280C0020052805D087
:104B0000082803D00A2801D00020704701207047F0
:104B1000F8B5D46893685569234314692C4323433B
:104B200094692343D4692343946A2343104C641843
:104B3000203CE67F85590F4F3D401D438551E57F61
:104B400003460C33EF585668EE50E67F1B1FF758AC
:104B50001568F550E47F031DE658156A360C3604D7
:104B60002E43E650526A00F007F80120F8BD00001D
:104B7000B1F900080F80FFFF10B589000F24091F4D
:104B80008C408030836A8A40A3431343836210BD04
:104B900010B5036849434C000C19A34351430B4320
:104BA000036010BD10B5C36849434C000C19A34302
:104BB00051430B43C36010BD10B5836849434C009B
:104BC0000C19A34351430B43836010BD70B50446D9
:104BD00000680E460025C007C00F2AD1F168706832
:104BE000226808433169144B1A401143084320607E
:104BF000B1686068032212039043084360607169E2
:104C0000A068121190430843A060900000F016F8CD
:104C100000280ED03268002A0BD0010E0602500880
:104C20000023301801255941FBF78CFA0003000BD3
:104C3000E060284670BD0000F3E9FFEF10B51249AF
:104C40000024C968014001208002091A12D0091A03
:104C500014D0814207D100F023F8002801D00124AC
:104C6000E403204610BD03F0FBFF03F0DFFF03F079
:104C7000EBFF01E003F0F4FF0446F2E700F008F870
:104C80000028EED0014CECE7401002400024F40074
:104C9000024800684007C00F704700000010024043
:104CA000024800698005C00F7047000040100240B4
:104CB00010B507A1095C07A00AF0A6FC0C4800216A
:104CC000017102214171002100F020FA10BD0000A5
:104CD0004142430073776974636820746F20636C8A
:104CE00061737320256320646F6E650A0D000000F8
:104CF000D800002070B5114DA888FBF705FD0446CB
:104D000000F05AFB0E49FBF7DBFA2146FBF7D0FA1D
:104D1000FBF73DFD84B2AC802046FBF7F5FC09496A
:104D2000FBF7CEFAFBF733FD82B2214606A00AF06C
:104D30006BFC012000F0C6FB70BD0000CC00002021
:104D400000401C46333353400D0A7C7C4C6F52614B
:104D500020656E6572677920757365643A202564F5
:104D6000207541682F313020282564207557682F21
:104D70003130297C7C0D0A0010B50024FEF78CFF31
:104D80000949884201D9FE240BE0E121C90088428B
:104D900007D3401AFE2148434B210901FBF7A8F92C
:104DA000C4B2204610BD0000B80B000070B515A0BD
:104DB0000AF02AFC002000F005F9154C0120A07033
:104DC000A088FBF7A1FC054600F0F6FA1149FBF7B5
:104DD00077FA2946FBF76CFAFBF7D9FC85B2A58078
:104DE0002846FBF791FC0C49FBF76AFAFBF7CFFC6E
:104DF00082B2294609A00AF007FC012000F062FBFC
:104E000070BD00004A4F494E45440A0D00000000A5
:104E1000CC00002000401C46333353400D0A7C7CFC
:104E20004C6F5261206A6F696E20656E657267799A
:104E300020757365643A202564207541682F3130F0
:104E400020282564207557682F3130297C7C0D0A75
:104E5000000000007FB506460C463AA00AF0D4FBDD
:104E60003DA103C9019100903DA103C93E4D0290AF
:104E70000391AE603DA06C600AF0C6FB3BA00AF057
:104E8000C3FB3AA00AF0C0FB38A00AF0BDFB3A48C9
:104E90003849016039494160394981603949C16007
:104EA000A96810300A6802604A6A02614A68426072
:104EB000096AC16001460522103801F0D5F92E4C6F
:104EC00002202434207068466060204601F01CFEF9
:104ED0000320207002A86060204601F015FE042027
:104EE0002070686800782071204601F00DFE1D20BA
:104EF0002070686880782071204601F005FE082047
:104F0000207028460C306060204601F0FDFD09202D
:104F1000207028461C306060204601F0F5FD00201E
:104F200020702071204601F0EFFD012002F09EFA72
:104F30003020207014206060204601F0E5FD02F072
:104F40008FFA7FBD6C6F726120696E697420737413
:104F500061727465640000000018C75184495ABE2C
:104F600070B3D57ED003011D9C0000207070726963
:104F70006E746600B976000864110020E1760008BE
:104F800049770008897700081FB500206A4610702D
:104F900004484168497811710170684601F0A4FF26
:104FA0001FBD00009C00002000B589B001216846AB
:104FB000017001F01FFD68460079002800D0012033
:104FC00009B000BDF0B589B0064600246846274602
:104FD000047001F00FFD68460079B04227D031001F
:104FE000144E154D04D001290ED002291FD10FE017
:104FF0006846077101F088FD002803D1B068816917
:10500000002013E02C4612E00C480AF0FDFA0EE0F6
:10501000002800D02C46022069460871684601F03D
:1050200073FD0028EED1B0688169022088472046D0
:1050300009B0F0BD9C000020FFFFFFFF28FF000823
:1050400010B5044641791CA00AF0DEFA61792248C5
:10505000022920D0032910D063290DD12168897835
:10506000642927D00021C17000291CD01BA00AF0A0
:10507000CBFA0220FBF748FF10BD20790128FBD1B5
:1050800020680078002803D0012801D00228F3D13D
:10509000FFF798FF10BD21790129FBD1216809781C
:1050A000C907C90FDFE710A00AF0AEFA0220FBF72C
:1050B0001BFF10BD0121D6E75041434B4554205200
:1050C00045434549564544204F4E20504F525420A9
:1050D00025640A0D00000000CC0000204C4544204F
:1050E0004F4E0A0D000000004C4544204F46460A32
:1050F0000D00000010B5044800210171022141712A
:10510000002100F003F810BDD800002030B504469F
:1051100085B00D4621A00AF077FA09F047F900287A
:1051200002D0002005B030BD207904A902F0A4F817
:10513000014600201E4A002904D0694608700290EA
:10514000888123E0002D19D0012168460170617922
:105150000171217981812068029008216846C1731C
:105160005068417868468173684601F047FB002823
:1051700010D010A00AF048FA0120D3E76946087061
:1051800060790871207988812068029050684078A1
:105190008873E9E70CA00AF037FAC2E7496E736931
:1051A0006465204C4F52412073656E64000000001E
:1051B0009C0000206C6F72612073656E64206669CC
:1051C0006E697368000000006C6F72612073656E19
:1051D0006420737461747573204F4B0010B50B48D5
:1051E0000168002904D000F02BF800F068F810BD29
:1051F0004068002804D000F029F800F061F810BDE4
:1052000000F006F800F05AF810BD0000540000202D
:1052100010B5EFF3108472B6FEF72AFEFEF79CFE7F
:1052200006480169821591430161016902159143A4
:10523000016184F31088FDF759F910BD4010024058
:1052400010B501210020FDF739F910BD30B585B04A
:10525000EFF3108472B614216846FAF7BCFF0320FE
:105260000190002005252D0702906A4680212846DE
:10527000FEF7B6FC6A4640212846FEF7B1FC6A46B6
:1052800008210C48FEF7ACFC01216A46C9032846F8
:10529000FEF7A6FC06F094FA0748016804221143C1
:1052A000016084F3108801210846FDF72FF905B04D
:1052B00030BD00000004005000700040704770478F
:1052C00010B5EFF3108472B60F4801680122114344
:1052D000016001684907FCD50168012212061143EB
:1052E000016001688901FCD5C16803221143C160D6
:1052F000C1680907890F0329FAD1FFF79BF806F067
:105300008DFA84F3108810BD0010024010B5EFF341
:10531000108272B6064B00295C6803D0012903D1C4
:10532000044300E084435C6082F3108810BD0000F9
:105330005400002010B5EFF3108272B6064B00291E
:105340001C6803D0012903D1044300E084431C609E
:1053500082F3108810BD00005400002008B5002022
:1053600000906B4601220221642000F057F800AB48
:10537000012203216420013300F050F868460088C0
:1053800040BA08BD08B500216846017001226B468D
:105390001146642000F042F86846007808BD08B560
:1053A0000021684601706B460122642000F036F847
:1053B0006846007808BD000070B5FFF7CFFF0546CE
:1053C0000F480078FBF7A0F904462846FBF79CF944
:1053D0000C49FAF775FF2146FAF772FFFBF72EFA30
:1053E000094C0A4B2246FBF799F8FBF74FFAFBF7FB
:1053F00025FA2246064BFBF7F9F8FBF747FA70BD92
:10540000180100207B14AE3D9A9999999999A93F6A
:105410009999294010B5FFF7E5F910BD3EB5400652
:10542000040E094840680192009302900A46012345
:1054300021460648FCF784FE002803D02046FFF7EB
:10544000B5F901203EBD00001801002030170020F2
:1054500008B500210091020A69460A7048706B463F
:1054600001220221642000F051F800AB0122032147
:105470006420013300F04AF808BD08B5012300900C
:10548000F9221946642000F026F808BD08B50090FE
:1054900006233F220121642000F01DF808BD000012
:1054A00008B50649064A095C117000900323C7221B
:1054B0000121642000F00FF808BD000088FE0008FC
:1054C0001801002008B500900023FE22012164206D
:1054D00000F001F808BDFFB581B01E4615460F4625
:1054E0006B4601220A9C0198FFF798FF68460078F6
:1054F000B4402840AC430443684604706B46012224
:105500003946019800F002F805B0F0BD3EB5012A19
:1055100001D9802421434006040E094840680192C5
:10552000009302900A46012321460648FCF7B4FE88
:10553000002803D02046FFF739F901203EBD0000C6
:105540001801002030170020884200DC0846704710
:1055500010B58478002C01D0002010BDFBF7F4FCBE
:1055600010BD0020704770477047704700210160F0
:10557000084670477047704700207047002070470A
:1055800000207047002070470020704700207047BF
:10559000022070477047002070477047704770477F
:1055A0000120704770470020704770477047704770
:1055B0007047704702207047F8B515460646002927
:1055C0000DD0204C002002011319002208339F5CEB
:1055D000002F06D0401CC0B20F28F4D111E00120EA
:1055E000F8BD521C92B2102AF1D3000104190834FC
:1055F00007D014480246224305D00268002A04D08E
:1056000004E00220F8BD0520F8BD04604268002ACD
:1056100000D014600022226044602671AAB2601D8E
:10562000A56009F0A3FA3046FFF768FA2073054831
:105630006D1C8030816F4919816702F0D3F800201A
:10564000F8BD0000140B0020FC21016000487047E9
:10565000140B0020002804D00349896F016000204A
:105660007047012070470000940B002010B50446DD
:10567000FC220021054809F091FA04490020086045
:10568000486003480460002010BD0000140B002097
:105690008000002070B500280BD01C4A0025114660
:1056A0000143002907D0116804460B46884205D102
:1056B0000AE0012070BD032070BD3146002904D0EE
:1056C0000E68A642F9D100E00021834201D10368AF
:1056D00013605468844200D15160002901D00268EF
:1056E0000A600A49056080318A6F8368D21A521EA7
:1056F0008A67002807D01022002109F04FFA02F033
:1057000071F8002070BD052070BD0000140B002052
:1057100010B5084802E0017B002906D00068002887
:10572000F9D102F05FF8002010BD0468FFF7B2FF66
:105730002046F4E7140B002070B50948046809E01E
:1057400020792568FFF7DAF9002802D02046FFF714
:10575000A1FF2C46002CF3D102F044F8002070BDCC
:10576000140B002010B5002806D00146FC22034887
:1057700009F0FCF9002010BD012010BD140B002021
:10578000F8B51500064605D0002903D00E480021C3
:10579000046814E00120F8BDA068721A401C82421F
:1057A0000FD320796854491C2089CFB282B2E819FE
:1057B000611D09F0DBF9207A2468C019C1B2002C00
:1057C000EAD10020F8BD0000140B0020002804D00E
:1057D000084900220968027005E0012070470A7B31
:1057E000012A04D009680029F9D10020704701215D
:1057F0000170FAE7140B002010B50C4C0146226929
:10580000107D052801D3002010BDA0680B7803701F
:105810004B784370C978C17000218170117D491C9B
:105820001175FFF75FF9A060012010BD280C002062
:1058300001480069007D7047280C00201621016096
:1058400000487047100C002010B507490A69127D06
:10585000002A07D08A684968FBF722FF002801D098
:10586000407810BD012010BD280C0020F8B5134D64
:10587000064628690024077D1CE0686801783170BD
:10588000417871708178002906D028688168304697
:10589000884700F043F80BE0027869460A704278C6
:1058A0004A70C078C87000F039F86846FFF7A4FF66
:1058B000641CE4B2BC42E0D3F8BD0000280C002018
:1058C00070B5094C0D462060204618380021206133
:1058D000017560601422FF21A06009F05FF9216961
:1058E00001204875E56070BD280C002010B5044902
:1058F0008A684968FBF7D4FE002800D0012010BD5B
:10590000280C002004480069007D052801D30120EF
:105910007047002070470000280C002010B5064C8E
:105920002169087D002806D0401E08756068FFF7D1
:10593000D9F86060012010BD280C002010B50028A7
:1059400005D001461622024809F010F9012010BDC9
:10595000100C002010B5044608480B460169097D6B
:10596000002909D0826841681846FBF799FE002893
:1059700002D044700121817010BD0000280C00206D
:1059800070B50A4C0546216960684D75097D00298E
:105990000AD001264570C178002900D18670FFF732
:1059A000A1F8A1688142F5D170BD0000280C00204B
:1059B0007FB5092802D00B2004B070BD00210091F2
:1059C0000191029103910B4902464C687F2325788F
:1059D0006946284665782D022843A578E4782D0489
:1059E00028432406204307F081FA0028E4D00F2042
:1059F000E2E700003C0C00207FB5184900284C6805
:105A000002D0012804D006E0A17800290CD002E0E1
:105A1000A178012908D00021009101910291039100
:105A2000A178012903D005E00B2004B070BD20212E
:105A30006A461170257802462846657809232D02AA
:105A40002843A578E4782D0428432406694620439A
:105A500007F04CFA0028E8D00F20E6E73C0C0020C5
:105A6000F8B500241D4616460F460094002B0ED0B4
:105A70006946FBF79FFE00280AD10098411C08D018
:105A800081B2711A00290BDD4018286002E00A205B
:105A9000F8BD2E600E484068807800280BD014E0D6
:105AA000002905D0000C0004801901210904EBE74E
:105AB00028600720F8BD2A6800992046511AA041A5
:105AC000C91BA04101DB0820F8BD0020F8BD000083
:105AD0003C0C0020002806D004494968C968491CCC
