:020000040800F2
:10000000B82F0020D5000008B59200084D61000807
:1000100000000000000000000000000000000000E0
:100020000000000000000000000000000DD00008EB
:100030000000000000000000D796000855F20008FC
:10004000E7000008E7000008DBA90008E700000857
:10005000E7000008D52A0008E52A0008F52A00086C
:10006000E7000008E700000885280008912800083C
:10007000E7000008E7000008E7000008E7000008C4
:10008000E7000008E7000008E700000800000000A3
:10009000E7000008E7000008E7000008E7000008A4
:1000A000E7000008E7000008E7000008E700000894
:1000B000E700000875A9000800000000E70000083C
:1000C0000348854600F01CFD004800477D140108E8
:1000D000B82F00200448804704480047FEE7FEE7A9
:1000E000FEE7FEE7FEE7FEE7DDF30008C1000008DB
:1000F00030B50B46014600202022012409E00D46C0
:10010000D5409D4205D31D469540491B2546954047
:1001100040191546521E002DF1DC30BD70B500248B
:100120002546002801DA01244042002901DA012590
:100130004942FFF7DDFFAC4200D04042002C00D026
:10014000494270BDF0B51FB40646002082B0054696
:100150004024019100901BE0019922460F46304651
:1001600000F098FB049A059B801A994110D3104621
:100170001946224600F07EFB361A8F41019722462F
:1001800001200021009F00F075FB38184D410090C0
:100190002046641E0028DFDC019B00982946324679
:1001A00007B0F0BD0549064A08685043054A801863
:1001B000086040087047014908607047B801002096
:1001C0006D4EC6413930000003460B439B0703D0F8
:1001D00009E008C9121F08C0042AFAD203E00B780C
:1001E0000370401C491C521EF9D27047D2B201E084
:1001F0000270401C491EFBD270470022F6E710B582
:1002000013460A4604461946FFF7F0FF204610BD84
:10021000421E5378521C002BFBD10B781370491CE3
:10022000521C002BF9D17047CAB2401E4178401CC5
:100230008A4202D00029F9D100207047421C01787F
:10024000401C0029FBD1801A704703460A780270CF
:10025000401C491C002AF9D1184670470321001D93
:10026000401E037812021A43491EF9D51046704702
:10027000F8B502464A40D40F42004B0052085B08D2
:100280009A4202D20246084611464A0023D0C30DC4
:100290004A00DDB2120EAD1A202D35DA49020126D0
:1002A000490AF6058A19002C00D0524220214F1B22
:1002B0001146B9402A411018C20D9A4221D0002C93
:1002C00017D0012D08DCDA05801AD20F8019D20769
:1002D000DBB200F00BFBF8BDDA05801A0123400009
:1002E0001B06C01880185A428018CA0F10434900D4
:1002F00007E04908C2071143DA05801A801940084F
:10030000801800F0EBFAF8BD61000122511A001BC1
:10031000F7E70122D2075140AAE70122D207504055
:10032000A6E7024670B54A40D30FDB0740002DD048
:100330004A002AD0010E140E000212020919400AC6
:10034000520A8418E50104465443000A120A2E0496
:100350005043A4194219200CC543AA18120C0125B8
:10036000AD03521C521912047F39240400D0521CD0
:10037000104301D44000491EC2B20C06C009201827
:10038000401C4008802A02D003E0002070BD4008D5
:100390004000002900DA0020184370BDF0B5074680
:1003A0000846584087B0C00F049048000E465900D8
:1003B00040084908BC1A884105D2384631461E46D5
:1003C00017460B4602465800400810434CD0300DEB
:1003D000039040055900400D490D0590401A0290C8
:1003E000402872DA18030121000B09050843019027
:1003F00004980092002805D00199524200208841BB
:1004000000920190029840210A1A0199009800F088
:1004100031FA05460C466B4607CB00F04CFAC01982
:100420007141039A0E0D0023D71756401A467A40A1
:10043000164344D0049A002A2DD0029A012A039A26
:1004400015DC1205C01A914101263605001C7141C8
:10045000D20F059ED2070093019202962A462346A8
:1004600000F08AFA07B0F0BD38463146FAE71605C3
:10047000224A0F46B218C01AB74101210905001CD3
:100480004F4100187F41114618187941E20F10437F
:100490006D19644113E0E2076D0815436408C20753
:1004A0001443039A01261205C01A91413605001C17
:1004B0007141CE07400830434908C01851412A46CF
:1004C000234600F04CFACDE7FFE7049801224000F4
:1004D000C117121A00238B4104983146C417381AE9
:1004E000A141EEE730B40124E407634030BC55E796
:1004F00030B40124E407614030BC4FE70000E0FF66
:10050000F0B51FB488B00B990998002448400999A8
:10051000C00F490049080991C0070B990090490094
:1005200049080B9109990898A64608431CD00B99D5
:100530000A98084318D0099801244000420D480049
:10054000410D099824050003000B204309900B98E6
:100550000003000B20430B9050181C494018002248
:1005600001901446104605E0002001460DB0F0BD94
:10057000032801DA034600E003239C46C11A0AAEB1
:100580000AE05F0008ADED5B4F00F75B7D4300279D
:10059000AA187C41491C5B1E6145F2DD410004AB99
:1005A0005A522104120C0A43240C401C0828DFDB99
:1005B000019802900099704601910090059B049A61
:1005C0000799069800F0D8F9D0E700000DFCFFFF6E
:1005D000F0B50C465C4085B0E40FE40703944C0092
:1005E00000266408590094464908024602962243B0
:1005F00021D062460A431ED06200570D4A000E0306
:100600002303550D012402462C492405781B1B0B9E
:10061000360B401823432643614600901C46501A6F
:10062000B44103D30098401C009002E09218009857
:100630005B41002803DA0020014605B0F0BD002030
:10064000012109050746864611E064461D46141B34
:10065000B54106D36546521BB341744607430C436C
:10066000A646CD0740084908284392185B41054635
:100670000D43EAD11046184313D060461946504046
:100680007140084306D06046101AB34106D20122D9
:10069000002306E000220123DB0702E00122D2430F
:1006A0005310009874460105381C6141029C039D5B
:1006B0000019694100F053F9BFE70000FD03000095
:1006C00070B54B005B0803430BD04B005C0D00265C
:1006D00033466542B341D417AD1AA34102DB002073
:1006E000014670BD12053018514170BD10B5002291
:1006F0009623114600F0FAF810BD00000EB5C2179F
:10070000C10F5040CA0740180021054B02930192C7
:1007100000910A460B4600F02FF903B000BD00001F
:10072000330400000EB505490291002100910A46EC
:100730000B46019100F020F903B000BD3304000026
:10074000410040020122400AD205090E80187F298B
:1007500001DA00207047962903DC9622511AC8401E
:10076000704796398840704770B5CD0F4A0009032D
:100770000123090B1B0519430B4BED070024520DF8
:100780009A4201DA002070BD074B34339A4203DCF1
:100790009A1A00F07FF802E00449511888402C436F
:1007A000F1D0404270BD0000FF030000CDFBFFFF11
:1007B0004A0009030123090B1B051943094B10B516
:1007C000520D9A4201DA002010BD064B34339A4292
:1007D00003DC9A1A00F05EF810BD034951188840F6
:1007E00010BD0000FF030000CDFBFFFFC20FD207CA
:1007F000400040080BD0C10D0723DB01C91840029F
:100800000905400A1143C208400711437047002000
:100810000146704710B5002904DB0124E40740427B
:100820008C412146002B04DB1C460123DB0752428E
:10083000A341994200D1904210BD0000CB0FDB07CD
:10084000490010B5490802460A4307D00A0D07249B
:100850000903E401090B121B002A01DC002010BD72
:10086000C900440F0C43C100E018D205801800F005
:1008700035F810BD10B5202A04DB0146203A91401E
:10088000002010BD914020239C1A0346E3401943E9
:10089000904010BD10B5202A04DB0846203AD04015
:1008A000002110BD0B46D340D0402024A21A914015
:1008B0000843194610BD10B5202A06DBCB170846A1
:1008C000203A1041C1170B4306E00B461341D040BC
:1008D0002024A21A91400843194610BD002904DAC9
:1008E000401C490001D140084000704770B400240A
:1008F000050C05D11024000402D1002921D01124B7
:10090000050E01D100020834050F01D10001241D9C
:10091000850F01D18000A41C002801DB4000641C6D
:10092000002908D020252E1B0D46F540A14000D0FF
:1009300001212943084301061B1B000ADB1D02D5C8
:10094000002070BC7047DB05181880180029F8DA01
:10095000401C4900F5D170BC40084000704710B5FC
:10096000002B08DA0024401C614192185B411A43B5
:1009700001D14008400010BDF0B51FB482B005465B
:100980000C0003D008460FF09DFA02E00FF09AFA2F
:1009900020300246009021462846FFF76BFF049B5B
:1009A000059A04460F4618431143084314D01846CD
:1009B00010431BD0009840210A1A18460599FFF7EA
:1009C00069FF05460E46009A05990498FFF752FF05
:1009D000084305D0012004E02046394607B0F0BDA9
:1009E0000020C11705430E432C43374300990E984E
:1009F0006305401A7905E40A00220C43FD0A0A3017
:100A000002D500200146E9E70105101969410C9C57
:100A10000D9D00196941FFF7A2FFDFE7F8B5054614
:100A2000480040080C46284304D06000184A400D96
:100A3000904201DD2846F8BD15493539884210DC61
:100A400088420BDB290D200308432903014305D00D
:100A5000E00F1049C00741180020F8BD00200146F2
:100A6000F8BD161A4020821B28462146FFF702FFD8
:100A700007460091284621463246FFF70BFF3A46CB
:100A8000009BFFF76CFF3246FFF7F4FEF8BD000055
:100A9000330400000000F03F4A0009030123090B62
:100AA0001B0519430A4B10B5520D9A4202DA002079
:100AB000014610BD064B34339A4203DC9A1AFFF705
:100AC000E9FE10BD034BD218FFF7D4FE10BD0000A5
:100AD000FF030000CDFBFFFF10B5002904DB01245C
:100AE000E40740428C412146002B04DB1C460123D5
:100AF000DB075242A3418B4200D1824210BD00006D
:100B0000064C0125064E05E0E36807CC2B430C3C60
:100B100098471034B442F7D3FFF7D6FA142D0108E2
:100B2000442D010870B58C180578401C6B075B0FCD
:100B300001D10378401C2A1106D10278401C03E041
:100B400006780E70401C491C5B1EF9D12B0705D49A
:100B50000023521E0DD40B70491CFAE70378401C89
:100B6000CB1A921C03E01D780D70491C5B1C521EB1
:100B7000F9D5A142D8D3002070BD000038B5044695
:100B8000064805490068FFF7B3FA604300E0401EDD
:100B900000900028FBD138BD40420F004C000020DF
:100BA000F8B50446006881688907890F012902D1D8
:100BB0000168C90722D18168114A10261140012518
:100BC00000290ED18168294381600120FFF7D6FFFB
:100BD00002F058FD07460CE002F054FDC01B0A2845
:100BE00007D9A06D3043A065E06D2843E065012082
:100BF000F8BD20680068C043C007EDD10020F8BDF3
:100C000017000080F0B589B00C460746102200217D
:100C1000684610F049FD6946224608460FF01FFF5E
:100C20006846007887260106684600290FDA002109
:100C30004318425C5B785200DB091A434254491C5A
:100C40000F29F5DBC17B0246490071400DE0002110
:100C50004318425C5B785200DB091A434254491C3A
:100C60000F29F5DBC17B02464900D173E21DF93241
:100C70005169102912D0017809061BD500214518A9
:100C8000435C6D785B00ED092B434354491C0F29ED
:100C9000F5DBC17B03464900714019E00021621871
:100CA000FF3201325378455C491C6B405370102968
:100CB000F5DB26E000214518435C6D785B00ED090B
:100CC0002B434354491C0F29F5DBC17B03464900E4
:100CD000D973E11D55698023FA316B54002500E07A
:100CE0005D5453695B1C5361102BF9D300216218CA
:100CF000FF3201325378455C491C6B405370102918
:100D0000F5DB002162181046FF32E0300132437CEF
:100D10005278491C534043741029F3DB21461022BA
:100D2000F13104A810F0A8FC2246394604A80FF0BF
:100D300096FE10220021684610F0B6FC09B0F0BD06
:100D400010B5044610220021F13010F0ADFCFF2058
:100D5000002115300151F022204610F0A5FC10BDF5
:100D60000B4610B50246102118460FF0A3FE10BD29
:100D7000F0B50446FF308BB00F4601300890E11DFE
:100D80004069FA310091103915460791002843D087
:100D900010210E1AAE4200D316460099B2B2401886
:100DA000394610F069FC0898089940698019486133
:100DB00010283AD3B54238D0002162181046FF32CD
:100DC000E0300132437C5278491C5340437410296F
:100DD000F3DB0799224608460FF041FEBF19AD1B11
:100DE0001AE000202118E0314A7C3B5C401C5A404C
:100DF0004A741028F6DB102202A8079910F03CFC78
:100E000002A9224608460FF02AFE102202A90798DE
:100E100010F032FC103D1037102DE2D8AAB239463E
:100E2000009810F029FC089845610BB0F0BD000057
:100E300038B50F49887C4A7C904218D2401C88748F
:100E4000C00714D022206946094C08708034FF2165
:100E500060682D310A5C69468A70F9210A5C69462E
:100E60004A7000780AF0B6FC6168E031487638BD17
:100E7000AC070020F0B5174885B0827816A1684607
:100E80000FF00CF87D26F600324617A1684600F0F8
:100E9000A1FD044604F0CAFD054604F0C7FD134F4A
:100EA00010E0FFF77FF9C821FFF738F908466430F2
:100EB00002F0E1FA32460CA1684600F08BFD0446D0
:100EC00004F0B4FD012C02D0401BB842E9D3204607
:100ED00005B0F0BD1C01002041542B514941435441
:100EE0003D25640D0A0000004F4B000030750000E6
:100EF00000B5A1B0FF222D32694609A000F0B6FD71
:100F00000A480BA1827819A80EF0C8FF19A96846F3
:100F10000EF00AF9002800D0012021B000BD000029
:100F200041542B51494143543F0D0A001C010020FC
:100F30002B51494143543A2025642C3100000000D4
:100F400000B507488FB0827806A168460EF0A6FF6C
:100F5000FF222D3210A1684600F03CFD0FB000BD0D
:100F60001C01002041542B5149435347503D2564F7
:100F70002C312C226D326D696E7465726E65742E23
:100F800070726F78696D75732E6265222C22222C27
:100F900022222C310D0A00004F4B000000B589B011
:100FA000024606A168460EF079FFFF222D320AA103
:100FB000684600F00FFD09B000BD000041542B5100
:100FC0005552434346473D22757263706F727422D7
:100FD0002C25730D0A0000004F4B0000F0B50646AB
:100FE00089B01EA011F0F2F924A011F0EFF904F07D
:100FF0001DFD054604F01AFD0024FF272D3721E0D2
:101000003A461FA121A000F0E5FC04463A46694695
:1010100021A000F02BFD1AA168460EF085F80028EB
:1010200001D001240AE0012C08D0FFF7BBF8C82149
:10103000FFF774F80846643002F01DFA04F0F6FC7D
:10104000012C02D0411BB142DAD3401BB04202D383
:10105000022009B0F0BD2046FBE700005374617226
:1010600074656420636F6E6E656374696E67207467
:101070006F206F70657261746F7200000D0A00005E
:101080002B43474154543A203100000041542B4334
:10109000474154543F0D0A000000000010B50248BB
:1010A00005F0E4FA10BD00000048004000B5074814
:1010B00085B0827806A168460EF0F0FEFF222D3240
:1010C00007A1684600F086FC05B000BD1C010020A9
:1010D00041542B514944454143543D25640D0A0078
:1010E0004F4B000070B5154C2068154D8001C00FA6
:1010F00000281CD0134EB079215802229143215070
:101100006068110608436060A96D686D193E40185B
:1011100019218901FFF702F86965F07F2158490814
:101120004900215008488168802291438160296DDF
:10113000686D884201D000F02DFB70BD00000240B8
:10114000601B0020C82A01080048004030B5FF2578
:101150008DB004462D352A4669460BA000F086FC6A
:1011600001280ED10DA168460DF0DEFF002803D145
:101170006846407C303820702A460BA10BA000F056
:1011800029FC0DB030BD000041542B514346473D72
:101190002263656C6576656C220D0A002B434D4514
:1011A000204552524F5200004F4B000000000000FB
:1011B00010B5FF242D340146224605A000F056FC50
:1011C000012804D1224606A106A000F003FC10BDB0
:1011D00041542B43454452585244500D0A000000DC
:1011E0004F4B00000000000070B5FF2405462D3471
:1011F000224609A109A000F0EDFB01280BD12246EF
:1012000029460AA000F032FC012804D1224602A19E
:1012100005A000F0DFFB70BD4F4B000041542B4395
:10122000455245473D340D0A0000000041542B4310
:10123000455245473F0D0A00EFF3108172B6054A4B
:10124000D368D05C5B1C5B075B0F81F31088D360B5
:10125000704700006015002010B5FF242D340146B2
:10126000224605A000F002FC012804D1224605A177
:1012700005A000F0AFFB10BD41542B5150534D530E
:101280003F0D0A004F4B000000000000F8B5304C45
:10129000E0694006C00F09D020684006C00F05D0A5
:1012A000402020620021202005F072FD00200090E7
:1012B000E0690125C002C00F09D0A0684002C00F3C
:1012C00005D0280520620121102005F061FDE069AC
:1012D00001268006C00F00280AD020688006C00FB3
:1012E00006D0606A0021C5B21020009605F050FDBE
:1012F000E069C007C00F0BD1E0698007C00F07D1BC
:10130000E0690007C00F03D1E0694007C00F09D0B2
:10131000266202202062082020620420206201252B
:10132000009602E00098012811D10A4881684554CE
:1013300081688268491C4907490F8A4201D081604F
:1013400002E082680D21815400200AF083FCF8BD80
:101350000048004060150020F0B54C4E91B0B06BD5
:10136000012189040843B0634811059002200690CA
:1013700006200527012500243F07099005A90895A7
:101380000794384602F0B0F8A803059005A938463E
:1013900002F0AAF83D49EB024031C86803229202EC
:1013A00090431843C860B06BD9010843B063002272
:1013B00002211D2002F086FB1D2002F06BFB4B205A
:1013C000C0010A900B940C940D940F940C20304C97
:1013D0000E900AA9204605F055F92068022108431D
:1013E0002060206828432060E0698002C00FFBD0A5
:1013F000E0694002C00FFBD0206820210843206034
:10140000A06809040322120590430843A060A06865
:1014100049000843A06020688E1330432060A06814
:101420002843A0601B4900200AF0BCFBF001019595
:10143000002400900325029469461748039502F0A2
:1014400053F80022F101144802F015F969463846B4
:10145000009602F049F800223146384602F00BF9B6
:10146000360169460C48009602F03EF800223146EB
:10147000094802F000F901946A46F11038460395D4
:10148000029404F083F811B0F0BD00000010024097
:1014900000480040DD1700080004005010B586B079
:1014A00014216846FEF7A9FE0320019000200524C0
:1014B0000121240702906A468903204604F066F859
:1014C00001216A464903204604F060F806B010BDC9
:1014D000EFF3108172B605488268C068824201D07D
:1014E000012000E0002081F3108870476015002083
:1014F00010B5012105204902000702F0B7F80128C4
:1015000000D0002010BD000010B5044A0121117068
:10151000014678220248FEF757FE10BD1C0100204C
:10152000CC1B0020F0B589B0FFF7E2FF002849D1BD
:101530000A2001F0A0FF0122D1032E4802F09BF8FF
:101540002DA000F03DFA2D4C0120607004F06EFAE1
:10155000064604F06BFAAF270546BF0005E004F02D
:1015600065FA054626A010F031FF2078002802D148
:10157000A81BB842F3D3022001F07DFF00202070A9
:101580006070A81BB84203D31EA010F01FFF03E039
:101590001E496846FEF759FE01210022C90315487D
:1015A00002F069F84B22D200694613A000F05EFAFF
:1015B000694617A010F00AFF1BA010F007FF1B4898
:1015C00001F059FF1AA168460DF0AEFD002802D0C7
:1015D000022009B0F0BD1AA168460DF0A5FD002853
:1015E00003D1FFF785FF002801D00020F1E7032099
:1015F000EFE7000000040050000000001C01002084
:101600002E00000053544F5000000000CC1B00205F
:101610002D20506F77657220646F776E207374721F
:10162000696E673A202573000D0A0000C4090000A6
:1016300050534D20504F57455220444F574E0000B5
:101640004E4F524D414C20504F57455220444F571A
:101650004E00000030B589B00A2001F00CFF0122D5
:10166000364DD4032146284602F005F8FF20F53018
:1016700001F001FF00222146284601F0FCFF0A206C
:1016800001F0F9FE0122052514022D072146284606
:1016900001F0F1FFFF20913001F0EDFE0022214624
:1016A000284601F0E8FF7D22120125A124A000F0C8
:1016B000DDF924A010F08AFE26A010F087FE264A4D
:1016C00026A11FA000F086F924A010F07FFE21A023
:1016D00010F07CFE224A23A119A000F0C7F921A036
:1016E00010F074FE1BA010F071FE7D24E400224671
:1016F0001EA11FA000F06EF901281DD122461BA1DA
:101700001EA000F067F9012816D100F0A1F8012809
:1017100012D1224669461BA000F0A8F905461BA17C
:1017200068460DF001FD002805D02246694604A058
:1017300000F09CF90546284609B030BD0004005071
:1017400000000000504F574552454420444F574E2B
:10175000000000000D0A000010270000524459004C
:10176000409C000041505020524459004F4B000013
:1017700041542B434D45453D310D0A0041540D0A5E
:1017800000000000415445300D0A0000415445302E
:1017900000000000F8B5EFF3108672B60D4D286D0D
:1017A000012187B2686D84B2202005F0F1FA0A4861
:1017B000A74201D9391B02E019218901091BA9653A
:1017C000A96D001989B2103000F03AFB86F3108839
:1017D000F8BD0000601B002060150020F8B51A4F0E
:1017E00000261A4C0FE0FFF727FDA1680128785466
:1017F0000ED00D2812D00A2810D03E2811D07729FB
:101800001CD0491CA160FFF763FE0128EBD0F8BD96
:101810000D48A168FEF7F1FCA660F8BD0029F2D0E2
:101820007E54A66060780D46002802D00648FFF777
:101830006BFE29460448FEF7E0FCE4E70248FEF7A9
:10184000DCFCA660DFE70000E81400201C0100209B
:1018500010B5FF222D3202A102A000F0BBF810BD8E
:101860004F4B000041542646300D0A0000B58DB0A4
:101870000B46024605A168460EF010FB094A0AA174
:10188000684600F0A7F80DB000BD000041542B439E
:101890004F50533D312C322C222564222C25640DCF
:1018A0000A00000020BF00004F4B00000FB4F0B54D
:1018B0003C4C3E4DA5443C4B1924EA686B44A401C2
:1018C0001E46002A16D06F4629463846FEF77CFC95
:1018D0003749E86869448A6DC0193346214610F0DB
:1018E0006DFCE9680E180A212846FEF786FC0020E8
:1018F000E86007E02E4821466844826D684610F093
:101900005DFC0646294D5C3D286D696D401A001945
:101910002146FEF703FC671A13E0012001F0ABFD3E
:10192000286D696D401A00192146FEF7F7FB671A0A
:1019300072B60B2002F0B8F8012801D1FFF7D2FBF4
:1019400062B6BE42E9DC286D1A4F8019A042286DAC
:1019500008DAC01932466946FEF736FC286D801950
:1019600028650FE0201A84B2286D2246C019694606
:10197000FEF72AFC6846361B011932463846FEF748
:1019800023FC2E650D480C4980790858C007C00F0C
:1019900001D1FFF7FFFE044C183CA544F0BC08BC85
:1019A00004B01847BCF9FFFF5C060000BC1B002018
:1019B000000600007015002000000240C82A01083F
:1019C00010B50446FEF73AFC002802D02046FFF787
:1019D0006DFF10BDF7B51746FFF7F2FF1A4C012057
:1019E000607004F023F8064601E00AF0E7F804F01E
:1019F0001DF805462078002802D1A81BB842F4D370
:101A0000022001F038FD0020207060700F4801991D
:101A10000DF08AFB002801D00120FEBDA81BB842B2
:101A200007D30BA010F0D2FC0BA010F0CFFC0220CB
:101A3000FEBD064909A0019A10F0C8FC06A010F0EE
:101A4000C5FC0020FEBD00001C010020CC1B0020B6
:101A500054494D454F5554000D0A00004552524F10
:101A600052205F25735F257300000000F7B517460D
:101A7000FFF7A6FF124C0120607003F0D7FF064667
:101A800001E00AF09BF803F0D1FF0546207800281A
:101A900002D1A81BB842F4D3022001F0ECFC0020D4
:101AA00020706070A81BB84204D306A010F08EFC12
:101AB0000220FEBD05490198FEF7C7FB0120FEBDCF
:101AC0001C01002054494D454F555400CC1B0020AB
:101AD00000B589B000920B46024606A101A80EF09F
:101AE000DDF9FF222D3209A101A8FFF773FF09B02C
:101AF00000BD000041542B4345445258533D2564DA
:101B00002C25642C25730D0A000000004F4B0000AB
:101B100000B589B0024606A168460EF0BFF9FF2263
:101B20002D3207A16846FFF755FF09B000BD000040
:101B300041542B434D45453D25640D0A00000000EE
:101B40004F4B000010B51F4C010013D001291AD0D3
:101B5000022928D0032825D122461BA11BA0FFF76C
:101B600039FF224618A120A0FFF734FF224616A114
:101B700024A015E0224614A129A0FFF72BFF22463E
:101B800011A12EA007E022460FA133A0FFF722FFEC
:101B900022460DA137A0FFF71DFF22460AA13CA057
:101BA000FFF718FF10BD224607A140A0FFF712FF64
:101BB000224605A10CA0FFF70DFF224602A142A07C
:101BC000EEE700002C0100004F4B000041542B5168
:101BD0004346473D226E777363616E736571222CB5
:101BE00030332C310D0A000041542B514346473D00
:101BF000226E777363616E6D6F6465222C332C31B6
:101C00000D0A000041542B514346473D22696F7431
:101C10006F706D6F6465222C312C310D0A0000004D
:101C200041542B514346473D226E777363616E7377
:101C30006571222C30302C310D0A000041542B519B
:101C40004346473D226E777363616E6D6F64652214
:101C50002C302C310D0A000041542B514346473D96
:101C6000226E777363616E736571222C30312C3173
:101C70000D0A000041542B514346473D226E7773B5
:101C800063616E6D6F6465222C312C310D0A00008A
:101C900041542B514346473D22696F746F706D6FFD
:101CA0006465222C322C310D0A00000041542B5166
:101CB0004346473D226E777363616E736571222CD4
:101CC00030322C310000000041542B514346473D37
:101CD00022696F746F706D6F6465222C302C310D2A
:101CE0000A00000010B5FF222D3202A102A0FFF76A
:101CF00071FE10BD4F4B000041542B5150534D45C8
:101D000058544346473D362C312C3132302C322C3E
:101D1000312C310D0A0D0A0000B589B0024606A12A
:101D200068460EF0BBF8FF222D3207A16846FFF788
:101D300051FE09B000BD000041542B435245473DC0
:101D400025640D0A000000004F4B000000B58DB067
:101D5000024606A168460EF0A1F8FF222D3209A125
:101D60006846FFF737FE0DB000BD000041542B431D
:101D70004744434F4E543D312C224950222C257369
:101D80000D0A00004F4B000010B59CB01E9C019343
:101D900000920B460246029405A103A80EF07EF8BD
:101DA0007D22D20009A103A8FFF714FE1CB010BDCC
:101DB00041542B5150534D533D25642C25732C25F4
:101DC000732C25732C25730D0A0000004F4B000067
:101DD00000B589B005A168460EF060F87D22D200FA
:101DE00008A16846FFF7F6FD09B000BD41542B512C
:101DF0004346473D2270736D2F656E746572222CC9
:101E0000310D0A004F4B000000B589B00B46024669
:101E100005A168460EF042F87D22D20007A168466F
:101E2000FFF7D8FD09B000BD41542B5150534D432D
:101E300046473D25642C25640D0A00004F4B0000E9
:101E400070B51F4A8CB0146B01231C431463126BD2
:101E500080251A400B92102202921A4A0092002208
:101E6000069204920392019005950520164C079264
:101E700008910A9209906A460721204604F098FBCF
:101E8000124EB07921580222114321500022022122
:101E90000B20193E01F016FE0B2001F0FBFD094856
:101EA0002838816829438160F17F625801231A43F1
:101EB000625001684022114301600CB070BD000007
:101EC000001002402848004000000240C82A0108D3
:101ED000F3B51E488FB00E46C27800241CA1684698
:101EE0000DF0DCFF03F0A2FD054603F09FFDFF2788
:101EF0002D3714E0FEF756F9FF21F531FEF70EF904
:101F00000846FF30F53001F0B6FA3A4614A16846AB
:101F1000FFF760FD044603F089FD012C07D0401B4C
:101F2000B042E7D3012C02D0204611B0F0BD0F988B
:101F3000FFF746FD7D22D2000AA10BA0FFF74AFD64
:101F40003A460AA107A0FFF745FDEEE71C01002075
:101F500041542B514953454E443D25640D0A000020
:101F60003E000000000000001A00000053454E44EF
:101F7000204F4B00F0B59FB0324D01910090EB78AF
:101F8000AA7831A10CA80DF089FFFF262D36324624
:101F900035A10CA8FFF71EFD044603F047FD009095
:101FA00003F044FD314F10E0FEF7FCF8C821FEF7C6
:101FB000B5F80846643001F05EFA32462AA10CA852
:101FC000FFF708FD044603F031FD012C06D000990F
:101FD000401AB842E8D320461FB0F0BD32460CA9E3
:101FE00023A0FFF743FDEA7822A102A80DF056FFD7
:101FF00002A90CA80DF098F8002807D021A010F035
:10200000E5F924A010F0E2F90120E5E70020694697
:10201000C87402A90CA80DF087F8002803D01EA0F0
:1020200010F0D4F909E021A010F0D0F919A010F0B7
:10203000CDF90CA91FA010F0C9F916A010F0C6F92F
:102040000020C9E71C01002041542B51494F504545
:102050004E3D25642C25642C22554450222C2225EB
:1020600073222C25640D0A004F4B000030750000D0
:10207000000000002B51494F50454E3A2025642C5A
:102080003000000062756666657220636865636B88
:10209000206F6B000D0A0000627566666572206332
:1020A0006865636B20216F6B000000006F746865CA
:1020B000720000002573000000B507488FB0C27899
:1020C00006A168460DF0EAFEFF222D3207A1684600
:1020D000FFF780FC0FB000BD1C01002041542B51C4
:1020E00049434C4F53453D25640D0A004F4B0000BA
:1020F000F0B599B0074603F099FC064603F096FC4C
:102100000546FF2200242D3225A126A0FFF762FC00
:1021100030E07D22D200694626A0FFF7A7FC0446E6
:10212000012824D139216846FEF77EF80546694624
:1021300023A010F04BF924A010F048F9002D06D090
:1021400022A010F043F920A010F040F90BE025A0E8
:1021500010F03CF91CA010F039F928A168460CF0E9
:10216000E3FF002802D003F061FC0FE0002403F03D
:102170005DFC0546A81BB842CBD3012C06D0FF223C
:102180002D3221A10BA0FFF725FC0446FF222D32A2
:1021900003A121A0FFF71EFC204619B0F0BD0000EE
:1021A0004F4B000041542B43455245473D320D0AE9
:1021B0000000000041542B43455245473F0D0A00A3
:1021C0002D202573000000000D0A00002D204E4236
:1021D000494F54206D6F646520697320666F756E7A
:1021E000640000002D204E42494F54206D6F6465FD
:1021F000206E6F7420666F756E6400002B4345522D
:1022000045473A20312C22002B43455245473A207E
:10221000342C312C2200000041542B4345524547B9
:102220003D300D0A0000000070B5064603F0FEFBCD
:10223000054603F0FBFB044629460DA010F0C6F846
:1022400011A010F0C3F805E00A2001F014F903F022
:10225000EDFB0446FFF74CF9002802D1601BB042A9
:10226000F2D3601BB04201D3022070BD012070BDCB
:102270002D205469636B73207374617274656420DC
:1022800061742025303878000D0A0000F8B5064644
:1022900003F0CCFB009003F0C9FB01270446FF03C9
:1022A0001E4D14E001223C463946284601F0E3F970
:1022B000502001F0E0F800222146284601F0DBF929
:1022C0007D20C00001F0D7F803F0B0FB0446FFF713
:1022D0000FF9002803D00098201AB042E2D3104C26
:1022E00010A1224610A0FFF775FB10A010F06EF8A9
:1022F00010A010F06BF822460FA10BA0FFF76AFBAD
:102300000FA010F063F80BA010F060F8FFF7F0F8E2
:10231000002801D00220F8BD0120F8BD00040050C3
:10232000581B00005244590000000000476F742001
:10233000524459000D0A00004150502052445900A7
:10234000474F5420415050524459000010B5FFF7F8
:10235000CFF8002831D020A010F038F824A010F0D9
:1023600035F824A010F032F821A010F02FF82648FC
:10237000FFF78CFF012804D024A010F027F81CA040
:1023800008E028A010F022F82B48FFF7B1FE012842
:1023900004D02AA010F01AF8002010BD2EA010F0D2
:1023A00015F8FEF7A5FD00280CD032A010F00EF8AD
:1023B0000FA010F00BF8012010BD35A010F006F8AA
:1023C0000BA0ECE738A010F001F809A00FF0FEFF19
:1023D000FEF750FD3AA0E9E72D2053746174757340
:1023E0003A20706F776572656420646F776E0000C5
:1023F0000D0A00002D2057616B696E672066726FB1
:102400006D2070736D000000102700002D205761B3
:102410006B652066726F6D2050534D206661696C4C
:10242000000000002D2057616B652066726F6D20E3
:1024300050534D206F6B0000204E00002D2057613F
:10244000697420666F7220636F6E6E656374696F66
:102450006E206661696C00002D20576169742066EA
:102460006F7220636F6E6E656374696F6E206F6B41
:10247000000000002D20436F6E7465787420616C3D
:10248000726561647920616374697665000000009B
:102490002D205374617475733A20706F776572657F
:1024A00064206F6E000000002D20436F6E7465780D
:1024B00074206E6F7420616374697665000000009B
:1024C0002D20436F6E746578742061637469766142
:1024D0007465640010B502221449012386B00028F7
:1024E0001ED0012804D002281AD0032807D117E0F3
:1024F000CA6A1A43CA62C96AC907C90F059141006D
:102500000B4A8000515A009100210291032103914E
:10251000084901930858694600F0E6FF06B010BD6F
:10252000CC6A1443CC62C96A1140E7E7001002404C
:10253000A02501082400002010B5054A4100515A89
:10254000044A80001058002201F095F810BD0000E8
:10255000A02501082400002010B5054A4100515A69
:10256000044A80001058012201F085F810BD0000D7
:10257000A0250108240000207047FFB5102504465F
:102580004557112087B0205606900A98A16801602F
:1025900060790027012840D1022168460173A17C9F
:1025A0008173E07C03A909F015F946B2B54200DC5D
:1025B0003546B54203D10A98002101602DE0A0897B
:1025C000A168814200D30127E2898018884224D87B
:1025D000082069460873E07C03A909F0FBF840B2C3
:1025E0000690E189A068FDF783FD012915D122211C
:1025F000684601734573A17C8173E07C03A909F0EF
:10260000E9F845B2B54208D120790027012804D164
:1026100069460871E07C09F0E7F8089805700999A7
:102620000698087038460BB0F0BD0000FEB51C4C93
:10263000FF226168D532525C00250126002A6A46D5
:102640002CD01670FF223E32535C6A469370FF31E5
:10265000D0708131C86C0DF097F8114F0190803F18
:10266000B8696A46029055706078400706D5002028
:1026700004F0C8FE002801D06846467060686946CC
:10268000007808F0CDF9FF226168C332B869525A68
:10269000FF314243101A81318864FEBD1570D1E7C5
:1026A0002C0800200449896C002903D0896800297E
:1026B00000D0084770470000AC060020FFB587B087
:1026C000109E1C460F0005460CD0002E0AD017485D
:1026D0000490FEF735FB05A9204600F067FB0400D7
:1026E00003D020E002200BB0F0BD05990498491CEE
:1026F000FEF736FB002D04D0102229460498FEF781
:1027000037FB3946099A0498FEF732FB684604996C
:10271000FEF778FA00A80130FDF7A0FD69460978B8
:102720000002084330602046DDE70000F80D00207D
:10273000F0B587B09C460C4605000F9F0C9B0D9989
:102740000E98164608D0002F06D0FF220132944280
:1027500004D90E2007B0F0BD0A20FBE703AA0292BD
:102760000091019062463146204606F0B5FF33469F
:102770002246294603A800970CF02EF90028E9D03C
:102780000F20E7E7FFB5002085B00090054606461C
:1027900001900024770007980121C05BA140084206
:1027A0002FD028190C2203905043089A1258002A5F
:1027B00027D0059A002A01D1490722D0089941184B
:1027C000082002910856021100070117069840B22E
:1027D00008F019FB002814D00298407A01010E98E5
:1027E0000818C068002804D00198401CC0B20190AD
:1027F00007E0009A0F99039888540098401CC0B2D3
:102800000090641CE4B2102CC5D31035761CEDB2D8
:10281000F6B2102DBDD3109901980870009809B038
:10282000F0BD000030B587B014216846FDF7E5FC27
:10283000032001900020029003204003104C0090E0
:10284000E06A01210843E062E06A08400590052043
:102850006946000700F048FEE06A40084000E06278
:10286000606B0125AD052843606300F01BFD00F09F
:1028700029FD00F01FFD606BA843606307B030BD09
:102880000010024010B503F00FFA0AF05BFB10BD18
:1028900010B5FEF727FC10BD10B5046863608368AF
:1028A000102B036803D099600068C26010BD9A6065
:1028B0000068C16010BD000010B5044605280ED99F
:1028C000084909480CF06FFF214607480CF0D8FF73
:1028D00005480CF0E7FF012009F0CAF910BD00F02F
:1028E000CAFD10BD91950008A01400207FB50446D4
:1028F00000290BD000200090019002900390032C3F
:1029000006D0042C06D00B2004B070BD0A20FBE7D3
:10291000062000E005206A46107000A80822013059
:102920000EF0B5FE0B482346406802220446257887
:102930006946284665782D022843A578E4782D0459
:102940002843240620430CF051F80028DCD00F2047
:10295000DAE70000800B0020F0B585B01E46174670
:102960000546002913D0002F11D0002E0FD00020D3
:102970000090019002900390052D0AD0062D08D0FA
:10298000072D06D0082D06D00B2005B0F0BD0A207B
:10299000FBE7012000E002206A4610706C4603222B
:1029A000601C0EF069FE03223946201D0EF064FE05
:1029B00002223146E01D0EF05FFE0B482B464068B8
:1029C0000222044625786946284665782D02284368
:1029D000A578E4782D042843240620430CF006F85B
:1029E0000028D2D00F20D0E7800B0020FFB585B0A3
:1029F00017460546002915D0002F13D00898002847
:102A000010D0002002240090019002900390052D28
:102A10000AD0062D0AD0072D31D0082D31D00B2039
:102A200009B0F0BD0A20FBE7012000E003206A4660
:102A300010706E460322701C0EF01EFE08223946EE
:102A4000301D0EF024FE022203A808990EF014FE99
:102A50000D48224640682B4604462578694628469C
:102A600065782D022843A578E4782D0428432406B0
:102A700020430BF0BBFF0028D2D00F20D0E704206A
:102A8000D5E700240220D2E7800B002000280BD0DD
:102A9000002909D0027B20301307002B06D00378D1
:102AA000002B03D000200EE003207047037A002B98
:102AB00003D0120703D017207047012003E00078ED
:102AC000002803D003200870002070470220FAE796
:102AD0007047704710B5012000F0FAFC022000F0AA
:102AE000F7FC10BD10B5042000F0F2FC082000F047
:102AF000EFFC10BD10B5102000F0EAFC202000F023
:102B0000E7FC402000F0E4FC802000F0E1FCFF2026
:102B1000013000F0DDFC0120400200F0D9FC012072
:102B2000800200F0D5FC0120C00200F0D1FC0120A1
:102B3000000300F0CDFC0120400300F0C9FC01209F
:102B4000800300F0C5FC0120C00300F0C1FC10BDF3
:102B5000FEE710B50520FFF7A5FD10BD10B5042058
:102B6000FFF7A0FD10BD10B50620FFF79BFD10BDBF
:102B700010B50220FFF796FD10BD10B50320FFF73A
:102B800091FD10BDF0B58BB0119D109C9C469646F2
:102B90000646002D1CD00020049006900790089057
:102BA0000990009001900290039001206A461070F5
:102BB000244A5768244A3B68934211D96246002A46
:102BC00008D0012A06D0022A07D009200BB0F0BD98
:102BD0000A20FBE76A46107102E002236A4613717D
:102BE00073466A46537191710B0AD3710B0C1372C1
:102BF000090E51729472210AD172210C1173210EA7
:102C0000517311493A688A4201D96946C873002E46
:102C100016D006AB0722102168460BF0A7FE00284D
:102C200001D00F20D2E7002006AB07E004991C5C1E
:102C300009186A5C6240401C6A54C0B2B042F5D3C5
:102C40000020C3E7800B002000000101064980003E
:102C500009580648091803D0C14203D00020704724
:102C600001207047022070477C260108702FFCFF6E
:102C700038B5174C15482060FF20DD3060602046D5
:102C8000143004F0C1FC2061002000900F48694618
:102C900008384068007808F094FDA0600098E06073
:102CA00020461C300BF0D0FEA0612046243004F0FA
:102CB00057FA206220462C3004F0E4F9A062204646
:102CC000343004F047FB2063204638BD3408002030
:102CD000100A002070B505461446084604E0017845
:102CE000A94204D003F04EFCA042F8D1002070BDF0
:102CF0007FB50A9E089D099C002A0AD0002C08D0A6
:102D0000002E06D003000DF00CF9051517191B074E
:102D100024000A2004B070BD6846807B012801D0E1
:102D200003200EE0002903D0032901D0012008E090
:102D3000022006E0042004E0052002E0062000E076
:102D400007202070D289C0B23346294604F014FC13
:102D5000E0E70520DEE7000010B5094A0021CB00BE
:102D6000D458844207D89B189B68834203D9C80073
:102D70008018007910BD491CC9B21529EFD3FEE7B0
:102D8000EC24010810B5084B002294001C5D84421D
:102D900004D19000C0180860002010BD521CD2B2AF
:102DA000052AF2D30C2010BD8000002030B500228F
:102DB0000C4B1124640115015519ED182D192D7BAB
:102DC000854208D1100110188B22C018920080187B
:102DD0000860002030BD521CD2B2182AEBD3032069
:102DE00030BD0000E40C002010B5002909D0154CBE
:102DF000030062680DF095F80824070D141A1C20D2
:102E000022240A2010BD1069086060680146103154
:102E100004E050690860606801461431016309E00C
:102E200090690860606801461831F7E7D06900E0F2
:102E3000106A0860002010BD506AFAE7906AF8E74F
:102E4000052010BD800B002038B50B496B464A6841
:102E50001146FF3121310C7B9C7058700D20187089
:102E6000C87F012801D10E2018701078194608F08B
:102E7000B1FCC0B238BD00002C080020F8B50546F2
:102E800004464035287D0026012808D001202875F9
:102E9000206881688907890F01290ED101E002208D
:102EA000F8BD0168C90708D0A06D20210843A065BE
:102EB0000126002028753046F8BDA16DFF220132A1
:102EC000914302221143A165C1688907890F0091CE
:102ED000C16889088900C160206881689207114330
:102EE000816000F0CFFB07460EE000F0CBFBC01B7B
:102EF0000A2809D9A06D0221884310210843A06542
:102F0000002028750120F8BD206880680028ECDBCF
:102F10002068C168009A1143C160A06D80088000DC
:102F2000401CA065C5E70000F8B506460D464036D2
:102F3000317D01290DD00121317501688A68520760
:102F400009D5816D20221143816500203075012053
:102F5000F8BD0220F8BD174B6A68D80547109A42A1
:102F6000154C8A6A2B6812D05B035B0B1A438A628A
:102F70002968490305D5A1680143A1600A20FDF72E
:102F8000FDFD2868800312D5A06838430EE05B037E
:102F90005B0B9A438A622968490302D5A168814381
:102FA000A1602868800302D5A068B843A060002013
:102FB0003075F8BD01100000002701400068006C6A
:102FC0007047000070B5040006D0A06D26460025AD
:102FD0004036002802D006E0012070BDE565357559
:102FE000204600F0D1F8A06DC00603D4216888689F
:102FF000400705D5A06D10210843A0653575EBE7A6
:10300000A06DFF220132904302221043A065886820
:103010008207920F5A48012A02D10A68D2072BD19F
:10302000032362689B079A4205D05B429A4202D012
:103030005B009A4209D10A69920092080A612168EC
:103040000A6963681A430A610CE00A6992009208EF
:103050000A6181680F2292049143816081686268ED
:10306000114381602168CA6818239A43CA602168A5
:10307000CA68A3681A43CA60816801225206914354
:1030800081608168228F52061143816020688168C7
:10309000C90004D4816801221207114381602068AD
:1030A000C168384A1140C1602169E068022923D013
:1030B00000210843216A226B49035200114308434F
:1030C000616B0843A16989030843E169C9030843A7
:1030D0002168CA681043C860A06A0146FF39C23936
:1030E00005D0E16A08432168CA681043C860606A75
:1030F0000121012802D00BE00421DAE7206A002830
:1031000023D0A06D20221043A065E06D0843E06548
:10311000206C012820681FD00169C90703D001690C
:1031200049084900016120684169C908C900416135
:1031300020684169E26B11434161E565A06D80083B
:103140008000401CA065002070BD2068C26801237B
:103150001B041A43C260DBE70269FF239B009A430A
:10316000026120680269636CE66C1A43A36C334306
:103170001A430261206802690A430261D3E7000032
:10318000002701401902FEFF7047F8B50446406968
:10319000254640350E4608280BD02068C068C00779
:1031A00009D0A06D20210843A065002028750120CA
:1031B000F8BD082700E00C2700F064FA009011E049
:1031C000701C0FD0002E05D000F05CFA0099401A58
:1031D000B04207D9A06D04210843A06500202875DE
:1031E0000320F8BD206800683842E9D0A06D0121B5
:1031F00049020843A0652068C16809058A0F0C21AF
:10320000002A1AD1226A002A17D10268120714D59F
:10321000826853070122002B08DB43688B4343601D
:10322000A06D130298431043A06506E0A06D202313
:103230001843A065E06D1043E065A069002801D146
:10324000206801600020F8BD70B5044621680020A8
:103250008968490721D425464035297D01291CD09C
:1032600001212975E169012904D02046FDF798FC68
:10327000002811D1A16D0A4A1140FF2201321143E9
:10328000A1650021E165297522681C211160216872
:103290008A6804231A438A6070BD022070BD000052
:1032A000FEF1FFFF0248416849084900416070474C
:1032B0000058014002484168042291434160704730
:1032C0000058014002484168022291434160704722
:1032D00000580140F8B504460068016849084900F3
:1032E000016000F0CFF900272546064620350EE0A4
:1032F00000F0C8F9811B7D20C000814207D9E06B36
:1033000020210843E0632F7103206871F8BD206815
:103310000068C007ECD12F71012068710020F8BD52
:1033200070B5002805D0034620335979002902D012
:1033300003E0012070BD0021197102215971046858
:1033400022683749C5680A4081684669294305698A
:103350003543294385692943C5692943056A2943BA
:10336000114321602F492F4C02687831A24206D1C7
:103370008A6A120912018A628A6A406849E0294C05
:103380001434A24207D18A6AF024A2438A628A6A6C
:10339000406800013DE0234C2834A24208D18A6AEB
:1033A0000F242402A2438A628A6A4068000230E045
:1033B0001C4C3C34A24208D18A6A0F242403A24345
:1033C0008A628A6A4068000323E0164C5034A242A5
:1033D00008D18A6A0F242404A2438A628A6A8088F8
:1033E000000416E00F4C6434A24208D18A6A0F240C
:1033F0002405A2438A628A6A8088000509E08A421D
:1034000009D18A6A0F242406A2438A628A6A007953
:10341000000602438A6201205871002070BD00003E
:103420000FC0FFFF08000240F8B5044620300579C0
:10343000012D1ED0012505710226467120680768FE
:10344000AF4307602046FFF727FA20680168314341
:10345000016020680168042211430160206801684E
:10346000082211430160206801682943016000209F
:10347000F8BD0220F8BD01B5009802F04BFA08BD76
:1034800002484168821511434160704700200240A4
:103490000348416801221143416000207047000049
:1034A0000020024005484168C90705D00449C160B1
:1034B0000449C1600020704701207047002002408D
:1034C000EFCDAB890504030210B502F089F810BDF9
:1034D00010B504494A69024202D04861FFF7F4FF7F
:1034E00010BD000000040140F8B500230124A7E04E
:1034F00027469F403A4070D04D68022D01D0122DD2
:1035000014D1DD08AD002D1800952D6A5E07AC467C
:10351000F50E0F26AE46AE406546B543AC460E6985
:103520007546AE4065462E43009D2E624D68012DC6
:1035300005D0022D03D0112D01D0122D16D1856892
:103540000326AC465D00AE46AE406546B543AC468C
:10355000CE687546AE4065462E43866046680D7956
:10356000BE43ED06ED0F9D403543456006685F00A4
:103570000325BD40AE46AE430D79B446AE07B60F47
:10358000BE4065462E430660C6687546AE438D68EC
:10359000BD403543C5604D68ED0050D52B4D6E6B79
:1035A00026436E639E082A4DB6007519AC46AD6879
:1035B0009E07360F0F27B740BD4305273F07B84288
:1035C00001D100271AE0234FB84201D1012715E0AD
:1035D000214FB84202D1022710E030E01F4FB8421D
:1035E00001D103270AE01E4FB84201D1042705E0AC
:1035F0001C4FB84201D1052700E00627B7402F43F2
:103600006546AF60184D2E684F689643FF0300D59E
:1036100016432E606E684F689643BF0300D516436D
:103620006E60AE684F689643FF0200D51643AE60E9
:10363000EE684F689643BF0200D51643EE605B1CF0
:103640000A681546DD4000D052E7F8BD0010024080
:10365000000001400004005000080050000C005021
:1036600000100050001C0050000401400069084098
:1036700000D001207047002A01D08161704781622B
:1036800070470000014800687047000050000020AB
:1036900070B5040014D02421204640300546417006
:1036A00020680168490849000160204600F0BEF921
:1036B0000021616469702163A9702970084670BD9A
:1036C000012070BD403040787047000070B50400A4
:1036D00006D02546403568780026002802D005E04F
:1036E000012070BD2E70204600F0A1F924206870E2
:1036F000206801684908490001600F2160680906D7
:1037000088432168086121688A680120C0038243D8
:103710008A60E1680129A16808D021229202114340
:1037200022689160E168022902D005E00143F7E7D1
:1037300001212268C902516021684A680F4B1A436F
:103740004A602168CA688243CA6061692069084387
:10375000A169090208432168C860216AE069084339
:1037600021680860206801680122114301606664D5
:10377000202068702663AE70002070BD00800002BB
:10378000FFB5054604464035687883B0202873D1DC
:103790000C98002871D00D9800286ED02878012848
:1037A0006AD001202870FFF76DFF074601220090C4
:1037B0001923D103204602F059FE002876D1222099
:1037C00068704020A870002666640C9860620D98AE
:1037D000608566630E980090019704A90EC9204683
:1037E00002F0C8FD002804D0606C2E70042860D060
:1037F0005CE0618D09208002FF2905D9FF22228526
:1038000001231B06009006E0618D21850090208D2C
:103810000123C2B25B062046049902F015FE009710
:103820000022042120460E9B02F020FE00283DD1FC
:103830002068416A606A421C62620170208D401EED
:1038400081B22185608D401E6085002921D1608D67
:1038500000281ED000970022802120460E9B02F0F7
:1038600005FE002822D1608DFF2807D9FF2222857E
:1038700001231B06009608E02AE01AE0608D2085EF
:103880000096208D0123C2B25B062046049902F007
:10389000DBFD608D0028C2D13A4620460E9902F029
:1038A00009FE002807D0606C042802D0032007B06E
:1038B000F0BD0120FBE721682020C86121684A682B
:1038C000044B1A404A606870AE702E700020EEE71C
:1038D0000220ECE700E800FEFFB50546044640354F
:1038E000687883B0202876D10C98002874D00D9881
:1038F000002871D0287801286DD001202870FFF7AA
:10390000C1FE0746012200901923D103204602F090
:10391000ADFD002853D1212068704020A8700026FA
:1039200066640C9860620D98608566630E980090DE
:10393000019704A90EC9204602F051FD002804D0C9
:10394000606C2E7004286AD039E0608DFF2805D99C
:10395000FF22228501231B06009606E0608D20854C
:103960000096208D0123C2B25B062046049902F026
:103970006BFD3A4620460E9902F0C3FD002803D0A5
:10398000606C04284BD01AE0606A411C61622168B7
:1039900000788862608D401E6085208D401E000486
:1039A000000C208524D1608D002821D000970022B2
:1039B000802120460E9B02F059FD002802D00320F2
:1039C00007B0F0BD608DFF2807D9FF2222850123B3
:1039D0001B06009608E024E021E0608D208500961B
:1039E000208D0123C2B25B062046049902F02CFD13
:1039F000608D0028BDD13A4620460E9902F05AFD4E
:103A00000028BDD120682021C16120684268064B92
:103A10001A4042606970AE702E700020D0E701201D
:103A2000CEE70220CCE7000000E800FE70477047B8
:103A300002480168491C01607047000050000020E6
:103A400010B506480168022211430160032000F00E
:103A500007F800F007F8002010BD00000020024029
:103A60000020704710B50948816B0204114381633F
:103A700000F03CF800F032F80548016808221143D4
:103A8000016000F023F801F049FE10BD0010024073
:103A900000200240C106C90E01208840014908608B
:103AA0007047000000E100E005490968C206D20E37
:103AB00001209040014201D0012070470020704752
:103AC00000E200E010B505F0F7FB10BD0248016808
:103AD0000215114301607047007000400248016800
:103AE00042151143016070470070004002480168B0
:103AF000102291430160704700700040094B1A6822
:103B00009208920002431A600748026904239A430C
:103B10000261012903D040BF20BF20BF704730BFE2
:103B2000704700000070004000ED00E005480168AB
:103B3000022211430160044801690422114301611A
:103B400030BF70470070004000ED00E00A4B1A687B
:103B50009208920002431A60084803690422134342
:103B60000361012906D040BF20BF20BF01699143F6
:103B70000161704730BFF9E70070004000ED00E0E0
:103B8000F8B56649074601250020ED03624B634AFC
:103B90004031102F6FD011DC012F77D0022F6CD065
:103BA000042F6BD0082F24D1C9680324240321409B
:103BB0007BD0BD026C10A9427CD0A0E00326584CFB
:103BC0003604202F0BD0402F35D0FF3F012F10D1CE
:103BD000C968314069D07C04A1426BD096E00B6982
:103BE0000969012731403F04B94203D1990559E0E1
:103BF0002846F8BD01256D04A94203D19907F8D5DF
:103C00004848F8BDB142FCD111688903F9D5116863
:103C100003200005014001200005091A09D0091AF6
:103C200005D0814201D14048F8BD2046F8BD3F484B
:103C3000F8BD3F48F8BDC9680125AD06294006D04A
:103C4000A942F7D191688907F4D53A48F8BD1168BF
:103C50008901FBD5D068D1688002374D000F2D5CFB
:103C60000802810FD068491CC0030AD41068C0063E
:103C700005D5204606E045E008E023E030E01846A0
:103C800000E02E486843FCF733FAF8BDCC68A4077F
:103C9000A40F0CD0022C0DD0012C10D0032CF4D189
:103CA000096989050029A3DBF8BD16E002E000F0F0
:103CB000D1F9F9E711684907F6D51846F4E700F09D
:103CC000D9F9F1E7CC680C26344006D0082CF1D0A5
:103CD000042CF4D00C2CE3D0E6E700F0ABF9E3E7DA
:103CE000CC680326B6023440F7D00127FF02BC425D
:103CF000E0D07A109442E2D0B442D1D0D4E7A142CD
:103D0000DDD0D1E7916B4902E7D4CDE7012212045F
:103D10009142D4D0C8E700000024F4000010024013
:103D200000093D008890000020A1070040420F00DC
:103D300080841E00006CDC022C26010800127A0030
:103D4000F8B5044600785E4D800672D55C4E0027BB
:103D5000403EB06BC00004D4B06BA9050843B0630B
:103D6000012758480168C90511D40168821511431B
:103D70000160FFF787FC009005E0FFF783FC0099E6
:103D8000401A642837D84F480068C005F5D5326816
:103D90000321090560680A400140914208D081036F
:103DA000890F032904D13168890301D50120F8BDA9
:103DB0002A69032109040A4022D0084090421FD0FA
:103DC000207880061CD528692A6988430121C90406
:103DD0000A432A612A698A432A612861C0050FD5EE
:103DE000FFF750FC009008E0FFF74CFC0099411AE7
:103DF0003548814201D90320F8BD28698005F3D5F3
:103E000061688803800F032805D13268000582436A
:103E100001400A433260286903226168120411409C
:103E200008432861002F04D0B06B012109078843A3
:103E3000B0632078C00705D0E868A16880088000DA
:103E40000843E8602078800705D5E8680C2188439E
:103E5000E1680843E8602078400706D5E868032158
:103E60008902884321690843E8602078000706D565
:103E7000E86803210903884361690843E8602088F2
:103E8000C00506D5E868032109048843A1690843F1
:103E9000E8602078400606D5E86801218906884355
:103EA000216A0843E8602078000606D5E868032107
:103EB00089048843E1690843E8600020F8BD0000F8
:103EC000401002400070004088130000F8B505461D
:103ED00053480E460068C007C00FB0420AD250488F
:103EE000016849084900314301600068C007C00FFC
:103EF000B0426FD128784B4C800705D5E068F0219F
:103F00008843A9680843E0602878C00752D06868F1
:103F1000022817D0032818D02168012818D0890555
:103F2000002957DAE168890889000143E160FFF759
:103F3000A9FB69680746022912D003291CD0012970
:103F400026D033E021688903EAE721688901E7E7A1
:103F50004907E5E7FFF796FBC11B3348814223D8A9
:103F6000E0680007800F0228F4D123E0FFF78AFB06
:103F7000C11B2D48814217D8E0680007800F032835
:103F8000F4D117E0FFF77EFBC11B274881420BD815
:103F9000E0680007800F0128F4D10BE0FFF772FB07
:103FA000C11B2148814201D90320F8BDE068000708
:103FB000800FF3D11A480168C907C90FB1420BD964
:103FC000016849084900314301600068C007C00F1B
:103FD000B04201D00120F8BD2878400706D5E0683E
:103FE000072109028843E9680843E0602878000750
:103FF00007D5E0680721C90288432969C900084339
:10400000E06000F037F8E168084A0906090F515CE2
:10401000C840074908600320FFF722FD0020F8BDD3
:104020000020024000100240881300001C260108F6
:104030004C000020044805490068C968044A490545
:10404000490F515CC84070474C00002000100240EE
:1040500035260108044805490068C968044A8904EE
:10406000490F515CC84070474C00002000100240CE
:104070003526010810B5184AD1680C2008400428DC
:104080000BD0082810D00C2810D050680004410F25
:104090000120C003491C884010BD1068C00601D52E
:1040A0000E4810BD0E4810BD0E4810BD88020E4BC4
:1040B000000F185C0902D368890F491CDB0301D586
:1040C000084A05E01268D20601D5044A00E0044A15
:1040D0005043FCF70DF810BD0010024000093D00F0
:1040E0000024F40000127A002C260108F8B50446DA
:1040F0000078FF4DC0074CD0E8680007800F022809
:1041000007D0E8680007800F032809D1E868C003DA
:1041100006D5286880033CD56068002875D038E053
:10412000012062680004824203D1296801432960AA
:1041300011E0052301211B0489049A422A6802D157
:104140000A432A60F1E782432A602A68024000920B
:10415000286888432860606800280DD0FFF792FA2D
:104160000646E44F04E0FFF78DFA801BB8427DD885
:1041700028688003F7D50CE0FFF784FA0646DD4F88
:1041800004E0FFF77FFA801BB842F0D8286880036C
:10419000F7D42078800741D5E8681F270007800FF3
:1041A0003F02012807D0E8680007800F032809D1E3
:1041B000E868C00306D42868400717D5E0680128DE
:1041C00023D113E0E068002817D029680922914321
:1041D00001432960FFF756FA064604E0FFF752FA5A
:1041E000801B0228C3D828684007F7D56868216972
:1041F000B84309020843686010E02868400840009E
:104200002860FFF73FFA064605E090E0FFF73AFA2C
:10421000801B0228ABD828684007F7D42078C00656
:1042200076D5E868B44E0007800F0BD0E06900280F
:104230005DD02868FF21013108432860FFF722FA8A
:10424000074644E02868800502D5E06900286ED062
:10425000606A69683140884212D906F0ADFA0028D8
:10426000AED16868616AB043084300E0E4E068608A
:104270006868218C0002000A0906084368600FE0A4
:104280006968B143014369606868218C0002000AD3
:10429000090608436860606A06F08EFA00288FD12C
:1042A000606A410B0120C003491C8840E968934AB9
:1042B0000906090F515CC840914908600320FFF7C7
:1042C000CFFB25E0FFF7DEF9C01B02288AD828685B
:1042D0008005F7D56868616AB0430843686068681C
:1042E000218C0002000A09060843686010E0296872
:1042F000FF20013081432960FFF7C4F9064604E03E
:10430000FFF7C0F9801B022884D828688005F7D4FD
:1043100020787C4E000723D560690028306910D0D2
:10432000012108433061FFF7ADF9074605E009E1D7
:10433000FFF7A8F9C01B02287ED830698007F7D59F
:104340000EE0400840003061FFF79CF9074604E0AA
:10435000FFF798F9C01B02286ED830698007F7D4A0
:104360002078400761D5A86B0027C00005D4A86B52
:10437000012109070843A863012763480168C905AB
:1043800011D40168821511430160FFF77BF9009099
:1043900005E0FFF777F90099401A64284CD85A488D
:1043A0000068C005F5D5FF20A2680130824203D124
:1043B00031690143316111E001218902002A07D0EE
:1043C00005231B029A4203D132690A433261EFE7A7
:1043D000326982433261306988433061A0680028C5
:1043E0000ED0FFF74FF9009006E0FFF74BF9009968
:1043F000411A404881421FD830698005F5D50DE04B
:10440000FFF740F9009006E0FFF73CF90099411AE8
:104410003848814210D830698005F5D4002F04D087
:10442000A96B012000078143A9632078800630D55D
:104430003649A0694A1400E07DE0002816D0AB6838
:1044400001200343AB606B6B03436B63086A10434B
:104450000862FFF717F9064604E0FFF713F9801B1F
:10446000022868D8A8688007F7D512E0A868400835
:104470004000A860086A90430862FFF703F9064607
:1044800004E0FFF7FFF8801B022854D8A8688007D3
:10449000F7D4A06A002853D0E9680907890F0329D7
:1044A00050D0012636060228286805D0B04328607F
:1044B000FFF7E8F8044640E0B0432860FFF7E2F871
:1044C000074604E0FFF7DEF8C01B022833D828684F
:1044D0008001F7D4216BE06AEA680843616BFD2331
:1044E0001B049A4311430843E860286830430FE0F7
:1044F000001002408813000000E000001C260108A4
:104500004C000020401002400070004000000140BC
:104510002860FFF7B7F8044604E0FFF7B3F8001B84
:10452000022808D828688001F7D509E0FFF7AAF823
:10453000001B022801D90320F8BD28688001F5D4AA
:104540000020F8BD0120F8BD10B5040010D020688F
:1045500001680C2291430160206841686022914308
:104560004160204600F058F800206071207110BDB5
:10457000012010BDF3B504460079002681B0012862
:1045800009D0012727716079012806D00126002073
:1045900020713046FEBD0220FEBD02206071FFF793
:1045A00071F805460CE0FFF76DF8411B7D20C00057
:1045B000814205D904206071002020710320FEBDD6
:1045C00020684068C043C007EDD120688068A060C3
:1045D000029908606771DAE770B5040009D02079A4
:1045E000012808D00125257160790026002804D013
:1045F00007E0012070BD022070BD2671204600F04A
:104600000CF80220607120680168042211430160E7
:1046100065712671002070BD704770470068890081
:10462000503008180068704700688900503008183A
:104630000260704730B5014620310A78012A15D052
:1046400001220A7002234B700468CA236362046863
:104650005323636203689C6820252C439C60006898
:10466000FF2343624A700020087030BD022030BD35
:1046700010B50BF0AFF810BDF8B504460220264681
:10468000203670702168CA20486221685320486231
:10469000204606F086F9FF27002842D121680860ED
:1046A000216827484860206881684907490F816070
:1046B000FEF7E8FF05460BE0FEF7E4FF411B7D2017
:1046C000C000814204D92068476203207070F8BDA1
:1046D0002068C0684007EFD52068816800258560A4
:1046E0002168184848612168174808612068C56139
:1046F000206805622068C5622068C563206845643B
:10470000206885642068C560206805642068C564E9
:104710002068806880060AD4204600F0FBFA002852
:1047200005D020684762042070700120F8BD206821
:104730004762204600F008F9757035700020F8BD1A
:1047400001210000FFFF0000FF007F00F8B50546D3
:1047500004462035287801281DD001202870022029
:1047600068702268CA205062226853205062FF207D
:1047700001300026FF2781421CD121688A688243CC
:104780008A60206881680122120391438160FEF7EC
:1047900079FF009009E00220F8BDFEF773FF009951
:1047A000411A7D20C00081421BD82068C068C00724
:1047B000F3D020E020688168012252029143816099
:1047C00020688168120191438160FEF75BFF0090D1
:1047D0000DE0FEF757FF0099411A7D20C00081428D
:1047E00005D920684762032068702E70F8BD2068E4
:1047F000C0688007EDD520684762012068702E7080
:104800000020F8BD10B500680B464068C021C943C0
:1048100001400002000ECC04D870E40E5C708C06DF
:10482000A40E0904490F9C701970002A0AD106F0E1
:10483000A5F8D870587806F0A1F85870987806F066
:104840009DF89870002010BD30B50B460168896A4C
:104850005960016809694904490C99600068046855
:104860000F482146014088024D04800E18706D0EDD
:1048700049065D70490E99706102490E402421403D
:10488000D970002A0AD106F079F81870587806F025
:1048900075F85870987806F071F89870002030BD5F
:1048A0007F7F7F0070B5040005D0254620356878ED
:1048B000002802D006E0012070BD002028702046AC
:1048C00000F04CF8022068702168CA204862216814
:1048D00053204862204606F064F8FF210028206833
:1048E00003D0416204206870E5E78268154B1A40E6
:1048F0008260226890686368A6691843236933431D
:10490000184390602268E06810612068026923897A
:104910001B041A4302612068C26880239A43C26064
:104920002068C26C92089200C264E2696069024326
:104930002068C36C1A43C264206841620120687019
:10494000002070BDBFFF8FFF034801690122920460
:1049500091430161704700004010024000B597B0DC
:104960000420009000200A90FF2001300290684649
:10497000FFF7BCFB002801D0FEF7EAF820200E90DC
:10498000C0020F900EA8FFF7DBF9002801D0FEF758
:10499000DFF80848016901229204114301610022F5
:1049A00001210220FFF78EF80220FFF773F817B0FD
:1049B00000BD000040100240FEB506460446203609
:1049C00030780B46012842D00120307002207070F0
:1049D00020681D46002720358068002A39D040060F
:1049E00055D5187805F0CAFF287805F0C7FF197863
:1049F0009878090408435978DA78090212041143B7
:104A00000843297809060843D969084359690843C6
:104A1000054699695868084300902168CA20486291
:104A2000216853204862FF205A6A01308021824267
:104A30004AD122689368834393602268D068084013
:104A4000FF388238D060FEF71DFE019029E0022079
:104A5000FEBD400600D4DF70187805F097FF020411
:104A6000587805F093FF00020243987805F08EFF16
:104A70000243D87800040243287805F087FF000637
:104A80000243D8690243586902431546C1E7DF7003
:104A9000AAE7FEF7F7FD0199411A7D20C000814287
:104AA0002AD82068C068C007F3D02068C561216893
:104AB0000098486420688168FF22013211438160B8
:104AC00020688168120130E02068826801235B025F
:104AD0009A4382602068C2680A401D495118C1602B
:104AE000FEF7D0FD01900EE0FEF7CCFD0199411AD2
:104AF0007D20C000814206D92168FF204862032042
:104B000070703770FEBD2068C0688007ECD52068E3
:104B10000562216800988864206881680122520239
:104B20001143816020688168120111438160094846
:104B30000268012149040A43026082680A438260D4
:104B40002168FF2048620120707037700020FEBD90
:104B50007FFDFFFF00040140F8B5054604462035FF
:104B600028780B46012815D0012028700220687093
:104B70005878002A10D005F001FF987805F0FEFE65
:104B8000D8789E78000406435878197800024903C3
:104B9000084316E00220F8BDC10603D5EF21084006
:104BA0000A305870D87805F0F1FE0604587805F000
:104BB000EDFE00020643987805F0E8FE06431878FB
:104BC000400306432168CA20486221685320486296
:104BD000204605F0E6FE0027002811D110480640C7
:104BE000206846602068C16880229143C1602068C7
:104BF000806880060CD4204600F08CF8002807D08E
:104C00002168FF204862042068702F700120F8BDE1
:104C10002168FF204862012068702F700020F8BDD5
:104C20003FFFFF00F8B506460446203630780D46B3
:104C300001280ED0012030700220707020680027FB
:104C40008068002A07D040061AD5287805F096FE1D
:104C500017E00220F8BD400600D4EF70287805F078
:104C600095FE0204687805F091FE00020243A878E0
:104C700005F08CFE0243E8780004024300920BE04A
:104C8000EF702978A878090408436978EA7809025E
:104C900012041143084300902168CA204862216829
:104CA00053204862204605F07CFE00281FD1184999
:104CB00000980840216808602068816801229204F9
:104CC000914381602969E868084321688A68104334
:104CD00088602068C16880229143C1602068806834
:104CE00080060CD4204600F015F8002807D0216873
:104CF000FF2048620420707037700120F8BD2168E1
:104D0000FF2048620120707037700020F8BD00005D
:104D10007F7F7F0070B504460068C168A022914380
:104D2000C160FEF7AFFC7D260546F60006E0FEF703
:104D3000A9FC401BB04201D9032070BD2068C068A7
:104D40008006F4D5002070BD10B50446006C002824
:104D500001D0FEF7BFFA606C002801D0FEF7BAFA66
:104D600020684168022291434160206841684908F7
:104D700049004160012040346074002010BD70473C
:104D800070B5040006D025464035687C0026002812
:104D900002D005E0012070BD2E74204600F032F8EC
:104DA0000220687420680168402291430160A16874
:104DB000606822690843E168114308436169012280
:104DC0000843A169520211400843E1690843216A7E
:104DD0000843A16A084321680860A0690421000C07
:104DE0000840616A0843216848602168E06A0861F8
:104DF0002068C16992009143C161666501206874B1
:104E0000002070BD38B51C490546486B8A14104314
:104E10004863086B012210430863086B1040009040
:104E200000F0DAFF154C082060601020A060002020
:104E3000E06080202061400060618000A06120204F
:104E4000E061000220620E4820602046FEF768FA0A
:104E50002C64002211460A20A562FEF733FE0A20C8
:104E6000FEF718FE002211461920FEF72BFE19202E
:104E7000FEF710FE38BD00000010024000130020B5
:104E800030000240F8B504460027684607802646F1
:104E90004036707C012802D0707C22287ED1002907
:104EA0000CD0002A0AD0002B08D0307C012875D005
:104EB00001203074707C012802D003E00120F8BD8D
:104EC000322070746765A263A387E3872163A3869A
:104ED000E386A764E7640125A06A6D03A84207D1B1
:104EE00020680168A94301602068016829430160C6
:104EF00020680168490603D401684022114301601B
:104F00000121FF20E268C90205308A42616866D14A
:104F1000002904D081420CD1E08E012809D1206BF8
:104F200021680088C860206B801C2063E08E401ED2
:104F3000E086E08E002843D1A06AA84246D12068CE
:104F4000016801221203114301603FE02068C0683C
:104F5000A16B0880A06B801CA063B0E0002202213E
:104F60002046069B07F0BAFE00287DD1206B216801
:104F70000088C860206B801C2063E08E401EE086A5
:104F8000E08E002808D1A06AA84205D120680168F7
:104F90000122120311430160002200E0CCE0012154
:104FA0002046069B07F09AFE00287FD12068C06843
:104FB000A16B0880A06B801CA063E08F401EE0877F
:104FC000E08E0028CAD1606800287BD10022012130
:104FD0002046069B07F082FE002867D1B6E700292D
:104FE00004D081420BD1E08E012808D1206B411CF6
:104FF000216321680078C860E08E401EE086E08E64
:10500000002845D1A06AA84205D120680168012284
:10501000120311430160002201212046069B07F084
:105020005DFE002842D12068C068A16B087046E090
:10503000002202212046069B07F050FE002835D1B1
:10504000206B411C216321680078C860E08E401EFF
:10505000E086E08E00280AD1A06AA84207D1206825
:1050600002680121090300E020E00A4302600022F7
:1050700001212046069B07F031FE002816D120684A
:10508000C268A06B411CA1630270E08F401EE087E4
:10509000E08E0028CCD16068002813D100220121C5
:1050A0002046069B07F01AFE002802D00320F8BD18
:1050B00008E02068C168A06B421CA2630170E08F09
:1050C000401EE087A06AA8420FD10022012120469D
:1050D000069B07F003FE002802D0606D02210EE05F
:1050E0002068C0686946088008880122802120461F
:1050F000069B07F0F3FD002804D0606D20210843D3
:105100006065D3E701207074A06AA84211D12068BD
:105110008168C943C9060CD4616D022211436165DF
:105120000168A94301602068016829430160377460
:10513000C4E637740020BAE70220B8E770B5064627
:1051400004464036707C0025012801D0357454E0B7
:1051500000294FD0002A4DD0307C01284DD00120AD
:1051600030741220707465652163A286E286E5645E
:10517000A564A563A587E5870121A068C9038842C6
:1051800005D12068016801229203114301600120CA
:10519000A16A4003814207D121680A6882430A60FC
:1051A00021680A6802430A60216C15480863216C73
:1051B0001448C862216C14484863606C0563606CD5
:1051C000C562606C4563E38E2268216B0C32206CF3
:1051D000FEF72AF9206841680222114341603574C4
:1051E00020680168490603D4016840221143016028
:1051F000002070BD3574012070BD022070BD00001C
:1052000063CC00086DCC000845CC0008704770479F
:1052100070B504462034237D012B0CD00125257563
:1052200002236375002A08D0042A0AD0082A0CD069
:105230000C2A11D10DE0022070BD00680AF033F98C
:105240000AE000680AF047F906E000680AF05CF935
:1052500002E000680AF073F965750020207570BDE2
:1052600070B5040005D025462035687D002802D0A1
:1052700006E0012070BD00202875204600F00AF8E5
:1052800002206875211D20680AF0D2F80120687597
:10529000002070BD0248816B012211438163704779
:1052A0000010024010B50446006801220AF0F0F830
:1052B00020680168012211430160002010BD000038
:1052C00010B50446006800220AF0E2F82068016A7E
:1052D000044A114203D101684908490001600020D5
:1052E00010BD00001111000070B5040005D0254666
:1052F0006035687A002802D006E0012070BD0020E9
:105300002872204600F026F8242068722068016880
:10531000490849000160606A002802D020460AF06E
:105320002DFB20460AF0C0FB0128E7D02068416829
:105330000922D20291434160206881682A22914368
:1053400081602068016801221143016020460AF053
:105350007BFB70BD7047FFB5064604466036707A29
:1053600083B00D46202858D1002D0CD00598002878
:1053700009D00120A1680003814207D120690028DB
:1053800004D1E80702D0012007B0F0BD307A01282F
:1053900043D0012030720020E06621207072FEF7B9
:1053A00071F9019027464037059838820598788230
:1053B00018E0788A401E78820698009000228021AA
:1053C0002046019B0AF088FC002818D10120A16822
:1053D0000003814202D12069002812D02168287878
:1053E00088626D1C788A0028E3D10698009000221C
:1053F00040212046019B0AF06FFC002808D00320C2
:10540000C2E728882168C005C00D8862AD1CE9E7A5
:105410002020707200203072B6E70220B4E700004E
:1054200010B51248017800291ED1012202701148DE
:105430000F49016000210164C161D30781614360AC
:1054400082638160C160016207234162C3630261BC
:10545000C1620422426101630748416B4215114356
:1054600041630448FDF7AEFD10BD00000B010020B4
:105470000024014040130020001002407CB51E496A
:10548000064609780020002934D01C484168C943E9
:105490000907FBD41A4C606B651528436063002133
:1054A0001848FDF7EBFC1848009018480190694631
:1054B0001448FDF739FDA014019069460096114883
:1054C000FDF732FD0F48FDF7BFFE0021C9430D482F
:1054D000FDF75BFE0B48FDF771FD0A4980B20A68D3
:1054E0009368022633439360096803220A60616B64
:1054F000A94361637CBD00000B01002000700040E7
:105500000010024040130020FFFF070001100000C0
:1055100010B5094C2078AA280CD0FDF7C3FFFDF781
:10552000AFFFAA20207058220449201DFAF74CFE34
:10553000FDF7AEFF10BD000000000808702A01084A
:1055400010B5FDF7A5FF10BD10B5FDF7ABFFFDF7DA
:1055500097FF10BD014600200A0A00D00820084A23
:10556000114201D004221043064A114201D0022206
:105570001043054A114201D0012108437047000041
:10558000F0F00000CCCC0000AAAA000038B50B2334
:105590001B07C518114B0FD01C152D1B18D02D1B28
:1055A00019D0A542DD6A05D108242543DD62DB6AF6
:1055B000234007E08024F8E7DC6A01252C43DC6205
:1055C000DB6A2B40009311601146FDF78DFF38BD5B
:1055D000DD6A0224E9E7DD6A0424E6E70010024000
:1055E00010B5FFF7B7FF810003484158002901D0EB
:1055F0000020884710BD00000012002070B51C4636
:1056000015460E460846FFF7A5FF0A49002C0DD0A7
:1056100080000C50304603F0C3FD044600222946AA
:10562000FEF750FA2046FEF735FA70BD00228000E2
:105630000A5070BD0012002010B5D2B2FEF71BF860
:1056400010BD000010B50648FFF718FF011E05D079
:105650000448054A008B5043FAF74AFD80B210BD5A
:10566000000002446000F81FB80B000003494A69BB
:105670000869496A50404840704700004000F81FE0
:1056800070B51148FFF7FAFE104C01001AD0208BBC
:105690000F4A5043FAF72CFD05460E48FFF7EEFE81
:1056A00068430B49FAF724FD618B0522401A120367
:1056B0005043E28B511AFAF731FD0F21490240188D
:1056C00080B270BD0025E8E7000002446000F81FCA
:1056D000B80B0000000004480F494B6A0A69D21851
:1056E000120EC2714B6A0A69D218120C82710A8AB0
:1056F0008B8CD218120A42710A7C8B8CD2180271E0
:105700004A69120EC2704A69120C82708A8A120AA1
:105710004270097D017070474000F81FF0B587B0F6
:1057200014216846FAF769FD224CE06A012108431A
:10573000E062E06A08400590E06A02252843E062E2
:10574000E06A28400590E06A04263043E062E06A9F
:1057500030400590E06A80273843E062E06A69469D
:1057600038400590032001900020029012480090DC
:1057700005200007FDF7B8FE104800906946104864
:10578000FDF7B2FE69460F48FDF7AEFE69460E48CA
:10579000FDF7AAFEE06A40084000E062E06AA84324
:1057A000E062E06AB043E062E06AB843E06207B0FA
:1057B000F0BD000000100240FF9F0000FFFF00004E
:1057C0000004005000080050001C005010B5104CA0
:1057D00088B06078002818D11C216846FAF70DFDC2
:1057E000FFF71EFE00F0C8FA00F028F900F0E0FB19
:1057F000FCF7C2FE07F092FD684607F01BFD012191
:10580000402008F097FF0120607008B010BD000034
:105810000B010020F0B587B014216846FAF7EDFCC3
:10582000214CE06A01210843E062E06A08400590EB
:10583000E06A02252843E062E06A28400590E06AB9
:1058400004263043E062E06A30400590E06A802739
:105850003843E062E06A69463840059003200190D1
:10586000002002901148009005200007FDF73CFE43
:1058700069460F48FDF738FE69460E48FDF734FECD
:1058800069460D48FDF730FEE06A40084000E062DE
:10589000E06AA843E062E06AB043E062E06AB843CD
:1058A000E06207B0F0BD000000100240FFFF000002
:1058B0000004005000080050001C005070B50C4659
:1058C000054600210448FEF7A9FE28600121024890
:1058D000FEF7A4FE206070BD4012002010B50C46FB
:1058E000024600210448FEF79FFE2246012102489D
:1058F000FEF79AFE10BD00004012002010B50349CB
:10590000012008700248FEF7B7FE10BD0A01002012
:105910004012002070B5410EC0017D220023FAF72D
:1059200011FC054600F082F8044600E000BF00F0DC
:105930007DF8001BA842F9D370BD30B587B005468D
:10594000694605A800F00AF8840A8005800D00F079
:105950009BF92880204607B030BD000070B5054691
:105960000C4600222048FEF76FFF002229461E4801
:105970006668FEF747FF002221461B48FEF764FFDA
:105980006068B042F1D1E878184A01465043C01C23
:105990008308880726D0164968783D22064650437A
:1059A00002463C3A7000801EC1408807D10F89181A
:1059B000800F4910081AC018A978401E08180D4910
:1059C0003C2248436178E123514322781B015A432A
:1059D0008918A27810180818074A61688002511ABD
:1059E000401870BD0549D7E740120020B5050000FA
:1059F000A0AA990080510100FF0300005055440007
:105A00000320704701480068704700008C12002096
:105A100000B587B0694605A8FFF7A0FF02490968ED
:105A200007B0401A00BD00008C12002000B587B0FE
:105A3000694605A8FFF792FF07B000BD10B5084CF6
:105A4000207800280AD100F041F8FF2101310548F3
:105A5000FEF77CFE00F06AF80120207010BD000007
:105A60000A0100204012002010B50D4C0021042036
:105A700001F08EF901200B494004486121688868D3
:105A8000C0040BD5C868C00508D5C868802210407E
:105A9000FF388238C8602046FEF7EAFD10BD0000DE
:105AA000401200200004014010B50446FFF7B0FF8B
:105AB000201A032801D9002100E00121042001F06F
:105AC00067F9204600F03EF810BD000010B51449FB
:105AD000144886B0002412C01F2101608460046154
